{
	"contracts/FundMe.sol": {
		"FundMe": {
			"abi": [
				{
					"inputs": [],
					"name": "fund",
					"outputs": [],
					"stateMutability": "payable",
					"type": "function"
				},
				{
					"inputs": [
						{
							"internalType": "uint256",
							"name": "",
							"type": "uint256"
						}
					],
					"name": "funders",
					"outputs": [
						{
							"internalType": "address",
							"name": "",
							"type": "address"
						}
					],
					"stateMutability": "view",
					"type": "function"
				}
			],
			"devdoc": {
				"kind": "dev",
				"methods": {},
				"version": 1
			},
			"evm": {
				"assembly": "    /* \"contracts/FundMe.sol\":100:1115  contract FundMe {... */\n  mstore(0x40, 0x80)\n    /* \"contracts/FundMe.sol\":181:183  50 */\n  0x32\n    /* \"contracts/FundMe.sol\":164:183  uint256 minUSD = 50 */\n  0x00\n  sstore\n    /* \"contracts/FundMe.sol\":100:1115  contract FundMe {... */\n  callvalue\n  dup1\n  iszero\n  tag_1\n  jumpi\n  0x00\n  dup1\n  revert\ntag_1:\n  pop\n  dataSize(sub_0)\n  dup1\n  dataOffset(sub_0)\n  0x00\n  codecopy\n  0x00\n  return\nstop\n\nsub_0: assembly {\n        /* \"contracts/FundMe.sol\":100:1115  contract FundMe {... */\n      mstore(0x40, 0x80)\n      jumpi(tag_1, lt(calldatasize, 0x04))\n      shr(0xe0, calldataload(0x00))\n      dup1\n      0xb60d4288\n      eq\n      tag_2\n      jumpi\n      dup1\n      0xdc0d3dff\n      eq\n      tag_3\n      jumpi\n    tag_1:\n      0x00\n      dup1\n      revert\n        /* \"contracts/FundMe.sol\":271:467  function fund() public payable {... */\n    tag_2:\n      tag_4\n      tag_5\n      jump\t// in\n    tag_4:\n      stop\n        /* \"contracts/FundMe.sol\":190:214  address[] public funders */\n    tag_3:\n      callvalue\n      dup1\n      iszero\n      tag_6\n      jumpi\n      0x00\n      dup1\n      revert\n    tag_6:\n      pop\n      tag_7\n      0x04\n      dup1\n      calldatasize\n      sub\n      dup2\n      add\n      swap1\n      tag_8\n      swap2\n      swap1\n      tag_9\n      jump\t// in\n    tag_8:\n      tag_10\n      jump\t// in\n    tag_7:\n      mload(0x40)\n      tag_11\n      swap2\n      swap1\n      tag_12\n      jump\t// in\n    tag_11:\n      mload(0x40)\n      dup1\n      swap2\n      sub\n      swap1\n      return\n        /* \"contracts/FundMe.sol\":271:467  function fund() public payable {... */\n    tag_5:\n        /* \"contracts/FundMe.sol\":352:358  minUSD */\n      sload(0x00)\n        /* \"contracts/FundMe.sol\":321:350  msg.value.getConversionRate() */\n      tag_14\n        /* \"contracts/FundMe.sol\":321:330  msg.value */\n      callvalue\n        /* \"contracts/FundMe.sol\":321:348  msg.value.getConversionRate */\n      tag_15\n        /* \"contracts/FundMe.sol\":321:350  msg.value.getConversionRate() */\n      jump\t// in\n    tag_14:\n        /* \"contracts/FundMe.sol\":321:358  msg.value.getConversionRate()>=minUSD */\n      lt\n      iszero\n        /* \"contracts/FundMe.sol\":313:381  require(msg.value.getConversionRate()>=minUSD, \"Didn't send enough\") */\n      tag_16\n      jumpi\n      mload(0x40)\n      0x08c379a000000000000000000000000000000000000000000000000000000000\n      dup2\n      mstore\n      0x04\n      add\n      tag_17\n      swap1\n      tag_18\n      jump\t// in\n    tag_17:\n      mload(0x40)\n      dup1\n      swap2\n      sub\n      swap1\n      revert\n    tag_16:\n        /* \"contracts/FundMe.sol\":392:399  funders */\n      0x01\n        /* \"contracts/FundMe.sol\":405:415  msg.sender */\n      caller\n        /* \"contracts/FundMe.sol\":392:416  funders.push(msg.sender) */\n      swap1\n      dup1\n      0x01\n      dup2\n      sload\n      add\n      dup1\n      dup3\n      sstore\n      dup1\n      swap2\n      pop\n      pop\n      0x01\n      swap1\n      sub\n      swap1\n      0x00\n      mstore\n      keccak256(0x00, 0x20)\n      add\n      0x00\n      swap1\n      swap2\n      swap1\n      swap2\n      swap1\n      swap2\n      0x0100\n      exp\n      dup2\n      sload\n      dup2\n      0xffffffffffffffffffffffffffffffffffffffff\n      mul\n      not\n      and\n      swap1\n      dup4\n      0xffffffffffffffffffffffffffffffffffffffff\n      and\n      mul\n      or\n      swap1\n      sstore\n      pop\n        /* \"contracts/FundMe.sol\":450:459  msg.value */\n      callvalue\n        /* \"contracts/FundMe.sol\":427:434  amounts */\n      0x02\n        /* \"contracts/FundMe.sol\":427:446  amounts[msg.sender] */\n      0x00\n        /* \"contracts/FundMe.sol\":435:445  msg.sender */\n      caller\n        /* \"contracts/FundMe.sol\":427:446  amounts[msg.sender] */\n      0xffffffffffffffffffffffffffffffffffffffff\n      and\n      0xffffffffffffffffffffffffffffffffffffffff\n      and\n      dup2\n      mstore\n      0x20\n      add\n      swap1\n      dup2\n      mstore\n      0x20\n      add\n      0x00\n      keccak256\n      0x00\n        /* \"contracts/FundMe.sol\":427:459  amounts[msg.sender] += msg.value */\n      dup3\n      dup3\n      sload\n      tag_20\n      swap2\n      swap1\n      tag_21\n      jump\t// in\n    tag_20:\n      swap3\n      pop\n      pop\n      dup2\n      swap1\n      sstore\n      pop\n        /* \"contracts/FundMe.sol\":271:467  function fund() public payable {... */\n      jump\t// out\n        /* \"contracts/FundMe.sol\":190:214  address[] public funders */\n    tag_10:\n      0x01\n      dup2\n      dup2\n      sload\n      dup2\n      lt\n      tag_22\n      jumpi\n      0x00\n      dup1\n      revert\n    tag_22:\n      swap1\n      0x00\n      mstore\n      keccak256(0x00, 0x20)\n      add\n      0x00\n      swap2\n      pop\n      sload\n      swap1\n      0x0100\n      exp\n      swap1\n      div\n      0xffffffffffffffffffffffffffffffffffffffff\n      and\n      dup2\n      jump\t// out\n        /* \"contracts/PriceConverter.sol\":605:742  function getConversionRate(uint256 amountInEth) internal view returns (uint256) {... */\n    tag_15:\n        /* \"contracts/PriceConverter.sol\":676:683  uint256 */\n      0x00\n        /* \"contracts/PriceConverter.sol\":729:733  1e18 */\n      0x0de0b6b3a7640000\n        /* \"contracts/PriceConverter.sol\":717:727  getPrice() */\n      tag_25\n        /* \"contracts/PriceConverter.sol\":717:725  getPrice */\n      tag_26\n        /* \"contracts/PriceConverter.sol\":717:727  getPrice() */\n      jump\t// in\n    tag_25:\n        /* \"contracts/PriceConverter.sol\":705:716  amountInEth */\n      dup4\n        /* \"contracts/PriceConverter.sol\":705:727  amountInEth*getPrice() */\n      tag_27\n      swap2\n      swap1\n      tag_28\n      jump\t// in\n    tag_27:\n        /* \"contracts/PriceConverter.sol\":704:733  (amountInEth*getPrice())/1e18 */\n      tag_29\n      swap2\n      swap1\n      tag_30\n      jump\t// in\n    tag_29:\n        /* \"contracts/PriceConverter.sol\":696:734  return ((amountInEth*getPrice())/1e18) */\n      swap1\n      pop\n        /* \"contracts/PriceConverter.sol\":605:742  function getConversionRate(uint256 amountInEth) internal view returns (uint256) {... */\n      swap2\n      swap1\n      pop\n      jump\t// out\n        /* \"contracts/PriceConverter.sol\":168:597  function getPrice() internal view returns (uint256) {... */\n    tag_26:\n        /* \"contracts/PriceConverter.sol\":211:218  uint256 */\n      0x00\n        /* \"contracts/PriceConverter.sol\":231:262  AggregatorV3Interface priceFeed */\n      dup1\n        /* \"contracts/PriceConverter.sol\":287:329  0x694AA1769357215DE4FAC081bf1f309aDC325306 */\n      0x694aa1769357215de4fac081bf1f309adc325306\n        /* \"contracts/PriceConverter.sol\":231:330  AggregatorV3Interface priceFeed = AggregatorV3Interface(0x694AA1769357215DE4FAC081bf1f309aDC325306) */\n      swap1\n      pop\n        /* \"contracts/PriceConverter.sol\":391:401  int answer */\n      0x00\n        /* \"contracts/PriceConverter.sol\":522:531  priceFeed */\n      dup2\n        /* \"contracts/PriceConverter.sol\":522:547  priceFeed.latestRoundData */\n      0xffffffffffffffffffffffffffffffffffffffff\n      and\n      0xfeaf968c\n        /* \"contracts/PriceConverter.sol\":522:549  priceFeed.latestRoundData() */\n      mload(0x40)\n      dup2\n      0xffffffff\n      and\n      0xe0\n      shl\n      dup2\n      mstore\n      0x04\n      add\n      0xa0\n      mload(0x40)\n      dup1\n      dup4\n      sub\n      dup2\n      dup7\n      gas\n      staticcall\n      iszero\n      dup1\n      iszero\n      tag_33\n      jumpi\n      returndatasize\n      0x00\n      dup1\n      returndatacopy\n      revert(0x00, returndatasize)\n    tag_33:\n      pop\n      pop\n      pop\n      pop\n      mload(0x40)\n      returndatasize\n      not(0x1f)\n      0x1f\n      dup3\n      add\n      and\n      dup3\n      add\n      dup1\n      0x40\n      mstore\n      pop\n      dup2\n      add\n      swap1\n      tag_34\n      swap2\n      swap1\n      tag_35\n      jump\t// in\n    tag_34:\n        /* \"contracts/PriceConverter.sol\":341:549  (... */\n      pop\n      pop\n      pop\n      swap2\n      pop\n      pop\n        /* \"contracts/PriceConverter.sol\":584:588  1e10 */\n      0x02540be400\n        /* \"contracts/PriceConverter.sol\":577:583  answer */\n      dup2\n        /* \"contracts/PriceConverter.sol\":577:588  answer*1e10 */\n      tag_36\n      swap2\n      swap1\n      tag_37\n      jump\t// in\n    tag_36:\n        /* \"contracts/PriceConverter.sol\":562:589  return uint256(answer*1e10) */\n      swap3\n      pop\n      pop\n      pop\n        /* \"contracts/PriceConverter.sol\":168:597  function getPrice() internal view returns (uint256) {... */\n      swap1\n      jump\t// out\n        /* \"#utility.yul\":88:205   */\n    tag_39:\n        /* \"#utility.yul\":197:198   */\n      0x00\n        /* \"#utility.yul\":194:195   */\n      dup1\n        /* \"#utility.yul\":187:199   */\n      revert\n        /* \"#utility.yul\":334:411   */\n    tag_41:\n        /* \"#utility.yul\":371:378   */\n      0x00\n        /* \"#utility.yul\":400:405   */\n      dup2\n        /* \"#utility.yul\":389:405   */\n      swap1\n      pop\n        /* \"#utility.yul\":334:411   */\n      swap2\n      swap1\n      pop\n      jump\t// out\n        /* \"#utility.yul\":417:539   */\n    tag_42:\n        /* \"#utility.yul\":490:514   */\n      tag_65\n        /* \"#utility.yul\":508:513   */\n      dup2\n        /* \"#utility.yul\":490:514   */\n      tag_41\n      jump\t// in\n    tag_65:\n        /* \"#utility.yul\":483:488   */\n      dup2\n        /* \"#utility.yul\":480:515   */\n      eq\n        /* \"#utility.yul\":470:533   */\n      tag_66\n      jumpi\n        /* \"#utility.yul\":529:530   */\n      0x00\n        /* \"#utility.yul\":526:527   */\n      dup1\n        /* \"#utility.yul\":519:531   */\n      revert\n        /* \"#utility.yul\":470:533   */\n    tag_66:\n        /* \"#utility.yul\":417:539   */\n      pop\n      jump\t// out\n        /* \"#utility.yul\":545:684   */\n    tag_43:\n        /* \"#utility.yul\":591:596   */\n      0x00\n        /* \"#utility.yul\":629:635   */\n      dup2\n        /* \"#utility.yul\":616:636   */\n      calldataload\n        /* \"#utility.yul\":607:636   */\n      swap1\n      pop\n        /* \"#utility.yul\":645:678   */\n      tag_68\n        /* \"#utility.yul\":672:677   */\n      dup2\n        /* \"#utility.yul\":645:678   */\n      tag_42\n      jump\t// in\n    tag_68:\n        /* \"#utility.yul\":545:684   */\n      swap3\n      swap2\n      pop\n      pop\n      jump\t// out\n        /* \"#utility.yul\":690:1019   */\n    tag_9:\n        /* \"#utility.yul\":749:755   */\n      0x00\n        /* \"#utility.yul\":798:800   */\n      0x20\n        /* \"#utility.yul\":786:795   */\n      dup3\n        /* \"#utility.yul\":777:784   */\n      dup5\n        /* \"#utility.yul\":773:796   */\n      sub\n        /* \"#utility.yul\":769:801   */\n      slt\n        /* \"#utility.yul\":766:885   */\n      iszero\n      tag_70\n      jumpi\n        /* \"#utility.yul\":804:883   */\n      tag_71\n      tag_39\n      jump\t// in\n    tag_71:\n        /* \"#utility.yul\":766:885   */\n    tag_70:\n        /* \"#utility.yul\":924:925   */\n      0x00\n        /* \"#utility.yul\":949:1002   */\n      tag_72\n        /* \"#utility.yul\":994:1001   */\n      dup5\n        /* \"#utility.yul\":985:991   */\n      dup3\n        /* \"#utility.yul\":974:983   */\n      dup6\n        /* \"#utility.yul\":970:992   */\n      add\n        /* \"#utility.yul\":949:1002   */\n      tag_43\n      jump\t// in\n    tag_72:\n        /* \"#utility.yul\":939:1002   */\n      swap2\n      pop\n        /* \"#utility.yul\":895:1012   */\n      pop\n        /* \"#utility.yul\":690:1019   */\n      swap3\n      swap2\n      pop\n      pop\n      jump\t// out\n        /* \"#utility.yul\":1025:1151   */\n    tag_44:\n        /* \"#utility.yul\":1062:1069   */\n      0x00\n        /* \"#utility.yul\":1102:1144   */\n      0xffffffffffffffffffffffffffffffffffffffff\n        /* \"#utility.yul\":1095:1100   */\n      dup3\n        /* \"#utility.yul\":1091:1145   */\n      and\n        /* \"#utility.yul\":1080:1145   */\n      swap1\n      pop\n        /* \"#utility.yul\":1025:1151   */\n      swap2\n      swap1\n      pop\n      jump\t// out\n        /* \"#utility.yul\":1157:1253   */\n    tag_45:\n        /* \"#utility.yul\":1194:1201   */\n      0x00\n        /* \"#utility.yul\":1223:1247   */\n      tag_75\n        /* \"#utility.yul\":1241:1246   */\n      dup3\n        /* \"#utility.yul\":1223:1247   */\n      tag_44\n      jump\t// in\n    tag_75:\n        /* \"#utility.yul\":1212:1247   */\n      swap1\n      pop\n        /* \"#utility.yul\":1157:1253   */\n      swap2\n      swap1\n      pop\n      jump\t// out\n        /* \"#utility.yul\":1259:1377   */\n    tag_46:\n        /* \"#utility.yul\":1346:1370   */\n      tag_77\n        /* \"#utility.yul\":1364:1369   */\n      dup2\n        /* \"#utility.yul\":1346:1370   */\n      tag_45\n      jump\t// in\n    tag_77:\n        /* \"#utility.yul\":1341:1344   */\n      dup3\n        /* \"#utility.yul\":1334:1371   */\n      mstore\n        /* \"#utility.yul\":1259:1377   */\n      pop\n      pop\n      jump\t// out\n        /* \"#utility.yul\":1383:1605   */\n    tag_12:\n        /* \"#utility.yul\":1476:1480   */\n      0x00\n        /* \"#utility.yul\":1514:1516   */\n      0x20\n        /* \"#utility.yul\":1503:1512   */\n      dup3\n        /* \"#utility.yul\":1499:1517   */\n      add\n        /* \"#utility.yul\":1491:1517   */\n      swap1\n      pop\n        /* \"#utility.yul\":1527:1598   */\n      tag_79\n        /* \"#utility.yul\":1595:1596   */\n      0x00\n        /* \"#utility.yul\":1584:1593   */\n      dup4\n        /* \"#utility.yul\":1580:1597   */\n      add\n        /* \"#utility.yul\":1571:1577   */\n      dup5\n        /* \"#utility.yul\":1527:1598   */\n      tag_46\n      jump\t// in\n    tag_79:\n        /* \"#utility.yul\":1383:1605   */\n      swap3\n      swap2\n      pop\n      pop\n      jump\t// out\n        /* \"#utility.yul\":1611:1780   */\n    tag_47:\n        /* \"#utility.yul\":1695:1706   */\n      0x00\n        /* \"#utility.yul\":1729:1735   */\n      dup3\n        /* \"#utility.yul\":1724:1727   */\n      dup3\n        /* \"#utility.yul\":1717:1736   */\n      mstore\n        /* \"#utility.yul\":1769:1773   */\n      0x20\n        /* \"#utility.yul\":1764:1767   */\n      dup3\n        /* \"#utility.yul\":1760:1774   */\n      add\n        /* \"#utility.yul\":1745:1774   */\n      swap1\n      pop\n        /* \"#utility.yul\":1611:1780   */\n      swap3\n      swap2\n      pop\n      pop\n      jump\t// out\n        /* \"#utility.yul\":1786:1954   */\n    tag_48:\n        /* \"#utility.yul\":1926:1946   */\n      0x4469646e27742073656e6420656e6f7567680000000000000000000000000000\n        /* \"#utility.yul\":1922:1923   */\n      0x00\n        /* \"#utility.yul\":1914:1920   */\n      dup3\n        /* \"#utility.yul\":1910:1924   */\n      add\n        /* \"#utility.yul\":1903:1947   */\n      mstore\n        /* \"#utility.yul\":1786:1954   */\n      pop\n      jump\t// out\n        /* \"#utility.yul\":1960:2326   */\n    tag_49:\n        /* \"#utility.yul\":2102:2105   */\n      0x00\n        /* \"#utility.yul\":2123:2190   */\n      tag_83\n        /* \"#utility.yul\":2187:2189   */\n      0x12\n        /* \"#utility.yul\":2182:2185   */\n      dup4\n        /* \"#utility.yul\":2123:2190   */\n      tag_47\n      jump\t// in\n    tag_83:\n        /* \"#utility.yul\":2116:2190   */\n      swap2\n      pop\n        /* \"#utility.yul\":2199:2292   */\n      tag_84\n        /* \"#utility.yul\":2288:2291   */\n      dup3\n        /* \"#utility.yul\":2199:2292   */\n      tag_48\n      jump\t// in\n    tag_84:\n        /* \"#utility.yul\":2317:2319   */\n      0x20\n        /* \"#utility.yul\":2312:2315   */\n      dup3\n        /* \"#utility.yul\":2308:2320   */\n      add\n        /* \"#utility.yul\":2301:2320   */\n      swap1\n      pop\n        /* \"#utility.yul\":1960:2326   */\n      swap2\n      swap1\n      pop\n      jump\t// out\n        /* \"#utility.yul\":2332:2751   */\n    tag_18:\n        /* \"#utility.yul\":2498:2502   */\n      0x00\n        /* \"#utility.yul\":2536:2538   */\n      0x20\n        /* \"#utility.yul\":2525:2534   */\n      dup3\n        /* \"#utility.yul\":2521:2539   */\n      add\n        /* \"#utility.yul\":2513:2539   */\n      swap1\n      pop\n        /* \"#utility.yul\":2585:2594   */\n      dup2\n        /* \"#utility.yul\":2579:2583   */\n      dup2\n        /* \"#utility.yul\":2575:2595   */\n      sub\n        /* \"#utility.yul\":2571:2572   */\n      0x00\n        /* \"#utility.yul\":2560:2569   */\n      dup4\n        /* \"#utility.yul\":2556:2573   */\n      add\n        /* \"#utility.yul\":2549:2596   */\n      mstore\n        /* \"#utility.yul\":2613:2744   */\n      tag_86\n        /* \"#utility.yul\":2739:2743   */\n      dup2\n        /* \"#utility.yul\":2613:2744   */\n      tag_49\n      jump\t// in\n    tag_86:\n        /* \"#utility.yul\":2605:2744   */\n      swap1\n      pop\n        /* \"#utility.yul\":2332:2751   */\n      swap2\n      swap1\n      pop\n      jump\t// out\n        /* \"#utility.yul\":2757:2937   */\n    tag_50:\n        /* \"#utility.yul\":2805:2882   */\n      0x4e487b7100000000000000000000000000000000000000000000000000000000\n        /* \"#utility.yul\":2802:2803   */\n      0x00\n        /* \"#utility.yul\":2795:2883   */\n      mstore\n        /* \"#utility.yul\":2902:2906   */\n      0x11\n        /* \"#utility.yul\":2899:2900   */\n      0x04\n        /* \"#utility.yul\":2892:2907   */\n      mstore\n        /* \"#utility.yul\":2926:2930   */\n      0x24\n        /* \"#utility.yul\":2923:2924   */\n      0x00\n        /* \"#utility.yul\":2916:2931   */\n      revert\n        /* \"#utility.yul\":2943:3134   */\n    tag_21:\n        /* \"#utility.yul\":2983:2986   */\n      0x00\n        /* \"#utility.yul\":3002:3022   */\n      tag_89\n        /* \"#utility.yul\":3020:3021   */\n      dup3\n        /* \"#utility.yul\":3002:3022   */\n      tag_41\n      jump\t// in\n    tag_89:\n        /* \"#utility.yul\":2997:3022   */\n      swap2\n      pop\n        /* \"#utility.yul\":3036:3056   */\n      tag_90\n        /* \"#utility.yul\":3054:3055   */\n      dup4\n        /* \"#utility.yul\":3036:3056   */\n      tag_41\n      jump\t// in\n    tag_90:\n        /* \"#utility.yul\":3031:3056   */\n      swap3\n      pop\n        /* \"#utility.yul\":3079:3080   */\n      dup3\n        /* \"#utility.yul\":3076:3077   */\n      dup3\n        /* \"#utility.yul\":3072:3081   */\n      add\n        /* \"#utility.yul\":3065:3081   */\n      swap1\n      pop\n        /* \"#utility.yul\":3100:3103   */\n      dup1\n        /* \"#utility.yul\":3097:3098   */\n      dup3\n        /* \"#utility.yul\":3094:3104   */\n      gt\n        /* \"#utility.yul\":3091:3127   */\n      iszero\n      tag_91\n      jumpi\n        /* \"#utility.yul\":3107:3125   */\n      tag_92\n      tag_50\n      jump\t// in\n    tag_92:\n        /* \"#utility.yul\":3091:3127   */\n    tag_91:\n        /* \"#utility.yul\":2943:3134   */\n      swap3\n      swap2\n      pop\n      pop\n      jump\t// out\n        /* \"#utility.yul\":3140:3550   */\n    tag_28:\n        /* \"#utility.yul\":3180:3187   */\n      0x00\n        /* \"#utility.yul\":3203:3223   */\n      tag_94\n        /* \"#utility.yul\":3221:3222   */\n      dup3\n        /* \"#utility.yul\":3203:3223   */\n      tag_41\n      jump\t// in\n    tag_94:\n        /* \"#utility.yul\":3198:3223   */\n      swap2\n      pop\n        /* \"#utility.yul\":3237:3257   */\n      tag_95\n        /* \"#utility.yul\":3255:3256   */\n      dup4\n        /* \"#utility.yul\":3237:3257   */\n      tag_41\n      jump\t// in\n    tag_95:\n        /* \"#utility.yul\":3232:3257   */\n      swap3\n      pop\n        /* \"#utility.yul\":3292:3293   */\n      dup3\n        /* \"#utility.yul\":3289:3290   */\n      dup3\n        /* \"#utility.yul\":3285:3294   */\n      mul\n        /* \"#utility.yul\":3314:3344   */\n      tag_96\n        /* \"#utility.yul\":3332:3343   */\n      dup2\n        /* \"#utility.yul\":3314:3344   */\n      tag_41\n      jump\t// in\n    tag_96:\n        /* \"#utility.yul\":3303:3344   */\n      swap2\n      pop\n        /* \"#utility.yul\":3493:3494   */\n      dup3\n        /* \"#utility.yul\":3484:3491   */\n      dup3\n        /* \"#utility.yul\":3480:3495   */\n      div\n        /* \"#utility.yul\":3477:3478   */\n      dup5\n        /* \"#utility.yul\":3474:3496   */\n      eq\n        /* \"#utility.yul\":3454:3455   */\n      dup4\n        /* \"#utility.yul\":3447:3456   */\n      iszero\n        /* \"#utility.yul\":3427:3510   */\n      or\n        /* \"#utility.yul\":3404:3543   */\n      tag_97\n      jumpi\n        /* \"#utility.yul\":3523:3541   */\n      tag_98\n      tag_50\n      jump\t// in\n    tag_98:\n        /* \"#utility.yul\":3404:3543   */\n    tag_97:\n        /* \"#utility.yul\":3188:3550   */\n      pop\n        /* \"#utility.yul\":3140:3550   */\n      swap3\n      swap2\n      pop\n      pop\n      jump\t// out\n        /* \"#utility.yul\":3556:3736   */\n    tag_51:\n        /* \"#utility.yul\":3604:3681   */\n      0x4e487b7100000000000000000000000000000000000000000000000000000000\n        /* \"#utility.yul\":3601:3602   */\n      0x00\n        /* \"#utility.yul\":3594:3682   */\n      mstore\n        /* \"#utility.yul\":3701:3705   */\n      0x12\n        /* \"#utility.yul\":3698:3699   */\n      0x04\n        /* \"#utility.yul\":3691:3706   */\n      mstore\n        /* \"#utility.yul\":3725:3729   */\n      0x24\n        /* \"#utility.yul\":3722:3723   */\n      0x00\n        /* \"#utility.yul\":3715:3730   */\n      revert\n        /* \"#utility.yul\":3742:3927   */\n    tag_30:\n        /* \"#utility.yul\":3782:3783   */\n      0x00\n        /* \"#utility.yul\":3799:3819   */\n      tag_101\n        /* \"#utility.yul\":3817:3818   */\n      dup3\n        /* \"#utility.yul\":3799:3819   */\n      tag_41\n      jump\t// in\n    tag_101:\n        /* \"#utility.yul\":3794:3819   */\n      swap2\n      pop\n        /* \"#utility.yul\":3833:3853   */\n      tag_102\n        /* \"#utility.yul\":3851:3852   */\n      dup4\n        /* \"#utility.yul\":3833:3853   */\n      tag_41\n      jump\t// in\n    tag_102:\n        /* \"#utility.yul\":3828:3853   */\n      swap3\n      pop\n        /* \"#utility.yul\":3872:3873   */\n      dup3\n        /* \"#utility.yul\":3862:3897   */\n      tag_103\n      jumpi\n        /* \"#utility.yul\":3877:3895   */\n      tag_104\n      tag_51\n      jump\t// in\n    tag_104:\n        /* \"#utility.yul\":3862:3897   */\n    tag_103:\n        /* \"#utility.yul\":3919:3920   */\n      dup3\n        /* \"#utility.yul\":3916:3917   */\n      dup3\n        /* \"#utility.yul\":3912:3921   */\n      div\n        /* \"#utility.yul\":3907:3921   */\n      swap1\n      pop\n        /* \"#utility.yul\":3742:3927   */\n      swap3\n      swap2\n      pop\n      pop\n      jump\t// out\n        /* \"#utility.yul\":3933:4038   */\n    tag_52:\n        /* \"#utility.yul\":3969:3976   */\n      0x00\n        /* \"#utility.yul\":4009:4031   */\n      0xffffffffffffffffffff\n        /* \"#utility.yul\":4002:4007   */\n      dup3\n        /* \"#utility.yul\":3998:4032   */\n      and\n        /* \"#utility.yul\":3987:4032   */\n      swap1\n      pop\n        /* \"#utility.yul\":3933:4038   */\n      swap2\n      swap1\n      pop\n      jump\t// out\n        /* \"#utility.yul\":4044:4164   */\n    tag_53:\n        /* \"#utility.yul\":4116:4139   */\n      tag_107\n        /* \"#utility.yul\":4133:4138   */\n      dup2\n        /* \"#utility.yul\":4116:4139   */\n      tag_52\n      jump\t// in\n    tag_107:\n        /* \"#utility.yul\":4109:4114   */\n      dup2\n        /* \"#utility.yul\":4106:4140   */\n      eq\n        /* \"#utility.yul\":4096:4158   */\n      tag_108\n      jumpi\n        /* \"#utility.yul\":4154:4155   */\n      0x00\n        /* \"#utility.yul\":4151:4152   */\n      dup1\n        /* \"#utility.yul\":4144:4156   */\n      revert\n        /* \"#utility.yul\":4096:4158   */\n    tag_108:\n        /* \"#utility.yul\":4044:4164   */\n      pop\n      jump\t// out\n        /* \"#utility.yul\":4170:4311   */\n    tag_54:\n        /* \"#utility.yul\":4226:4231   */\n      0x00\n        /* \"#utility.yul\":4257:4263   */\n      dup2\n        /* \"#utility.yul\":4251:4264   */\n      mload\n        /* \"#utility.yul\":4242:4264   */\n      swap1\n      pop\n        /* \"#utility.yul\":4273:4305   */\n      tag_110\n        /* \"#utility.yul\":4299:4304   */\n      dup2\n        /* \"#utility.yul\":4273:4305   */\n      tag_53\n      jump\t// in\n    tag_110:\n        /* \"#utility.yul\":4170:4311   */\n      swap3\n      swap2\n      pop\n      pop\n      jump\t// out\n        /* \"#utility.yul\":4317:4393   */\n    tag_55:\n        /* \"#utility.yul\":4353:4360   */\n      0x00\n        /* \"#utility.yul\":4382:4387   */\n      dup2\n        /* \"#utility.yul\":4371:4387   */\n      swap1\n      pop\n        /* \"#utility.yul\":4317:4393   */\n      swap2\n      swap1\n      pop\n      jump\t// out\n        /* \"#utility.yul\":4399:4519   */\n    tag_56:\n        /* \"#utility.yul\":4471:4494   */\n      tag_113\n        /* \"#utility.yul\":4488:4493   */\n      dup2\n        /* \"#utility.yul\":4471:4494   */\n      tag_55\n      jump\t// in\n    tag_113:\n        /* \"#utility.yul\":4464:4469   */\n      dup2\n        /* \"#utility.yul\":4461:4495   */\n      eq\n        /* \"#utility.yul\":4451:4513   */\n      tag_114\n      jumpi\n        /* \"#utility.yul\":4509:4510   */\n      0x00\n        /* \"#utility.yul\":4506:4507   */\n      dup1\n        /* \"#utility.yul\":4499:4511   */\n      revert\n        /* \"#utility.yul\":4451:4513   */\n    tag_114:\n        /* \"#utility.yul\":4399:4519   */\n      pop\n      jump\t// out\n        /* \"#utility.yul\":4525:4666   */\n    tag_57:\n        /* \"#utility.yul\":4581:4586   */\n      0x00\n        /* \"#utility.yul\":4612:4618   */\n      dup2\n        /* \"#utility.yul\":4606:4619   */\n      mload\n        /* \"#utility.yul\":4597:4619   */\n      swap1\n      pop\n        /* \"#utility.yul\":4628:4660   */\n      tag_116\n        /* \"#utility.yul\":4654:4659   */\n      dup2\n        /* \"#utility.yul\":4628:4660   */\n      tag_56\n      jump\t// in\n    tag_116:\n        /* \"#utility.yul\":4525:4666   */\n      swap3\n      swap2\n      pop\n      pop\n      jump\t// out\n        /* \"#utility.yul\":4672:4815   */\n    tag_58:\n        /* \"#utility.yul\":4729:4734   */\n      0x00\n        /* \"#utility.yul\":4760:4766   */\n      dup2\n        /* \"#utility.yul\":4754:4767   */\n      mload\n        /* \"#utility.yul\":4745:4767   */\n      swap1\n      pop\n        /* \"#utility.yul\":4776:4809   */\n      tag_118\n        /* \"#utility.yul\":4803:4808   */\n      dup2\n        /* \"#utility.yul\":4776:4809   */\n      tag_42\n      jump\t// in\n    tag_118:\n        /* \"#utility.yul\":4672:4815   */\n      swap3\n      swap2\n      pop\n      pop\n      jump\t// out\n        /* \"#utility.yul\":4821:5792   */\n    tag_35:\n        /* \"#utility.yul\":4924:4930   */\n      0x00\n        /* \"#utility.yul\":4932:4938   */\n      dup1\n        /* \"#utility.yul\":4940:4946   */\n      0x00\n        /* \"#utility.yul\":4948:4954   */\n      dup1\n        /* \"#utility.yul\":4956:4962   */\n      0x00\n        /* \"#utility.yul\":5005:5008   */\n      0xa0\n        /* \"#utility.yul\":4993:5002   */\n      dup7\n        /* \"#utility.yul\":4984:4991   */\n      dup9\n        /* \"#utility.yul\":4980:5003   */\n      sub\n        /* \"#utility.yul\":4976:5009   */\n      slt\n        /* \"#utility.yul\":4973:5093   */\n      iszero\n      tag_120\n      jumpi\n        /* \"#utility.yul\":5012:5091   */\n      tag_121\n      tag_39\n      jump\t// in\n    tag_121:\n        /* \"#utility.yul\":4973:5093   */\n    tag_120:\n        /* \"#utility.yul\":5132:5133   */\n      0x00\n        /* \"#utility.yul\":5157:5220   */\n      tag_122\n        /* \"#utility.yul\":5212:5219   */\n      dup9\n        /* \"#utility.yul\":5203:5209   */\n      dup3\n        /* \"#utility.yul\":5192:5201   */\n      dup10\n        /* \"#utility.yul\":5188:5210   */\n      add\n        /* \"#utility.yul\":5157:5220   */\n      tag_54\n      jump\t// in\n    tag_122:\n        /* \"#utility.yul\":5147:5220   */\n      swap6\n      pop\n        /* \"#utility.yul\":5103:5230   */\n      pop\n        /* \"#utility.yul\":5269:5271   */\n      0x20\n        /* \"#utility.yul\":5295:5358   */\n      tag_123\n        /* \"#utility.yul\":5350:5357   */\n      dup9\n        /* \"#utility.yul\":5341:5347   */\n      dup3\n        /* \"#utility.yul\":5330:5339   */\n      dup10\n        /* \"#utility.yul\":5326:5348   */\n      add\n        /* \"#utility.yul\":5295:5358   */\n      tag_57\n      jump\t// in\n    tag_123:\n        /* \"#utility.yul\":5285:5358   */\n      swap5\n      pop\n        /* \"#utility.yul\":5240:5368   */\n      pop\n        /* \"#utility.yul\":5407:5409   */\n      0x40\n        /* \"#utility.yul\":5433:5497   */\n      tag_124\n        /* \"#utility.yul\":5489:5496   */\n      dup9\n        /* \"#utility.yul\":5480:5486   */\n      dup3\n        /* \"#utility.yul\":5469:5478   */\n      dup10\n        /* \"#utility.yul\":5465:5487   */\n      add\n        /* \"#utility.yul\":5433:5497   */\n      tag_58\n      jump\t// in\n    tag_124:\n        /* \"#utility.yul\":5423:5497   */\n      swap4\n      pop\n        /* \"#utility.yul\":5378:5507   */\n      pop\n        /* \"#utility.yul\":5546:5548   */\n      0x60\n        /* \"#utility.yul\":5572:5636   */\n      tag_125\n        /* \"#utility.yul\":5628:5635   */\n      dup9\n        /* \"#utility.yul\":5619:5625   */\n      dup3\n        /* \"#utility.yul\":5608:5617   */\n      dup10\n        /* \"#utility.yul\":5604:5626   */\n      add\n        /* \"#utility.yul\":5572:5636   */\n      tag_58\n      jump\t// in\n    tag_125:\n        /* \"#utility.yul\":5562:5636   */\n      swap3\n      pop\n        /* \"#utility.yul\":5517:5646   */\n      pop\n        /* \"#utility.yul\":5685:5688   */\n      0x80\n        /* \"#utility.yul\":5712:5775   */\n      tag_126\n        /* \"#utility.yul\":5767:5774   */\n      dup9\n        /* \"#utility.yul\":5758:5764   */\n      dup3\n        /* \"#utility.yul\":5747:5756   */\n      dup10\n        /* \"#utility.yul\":5743:5765   */\n      add\n        /* \"#utility.yul\":5712:5775   */\n      tag_54\n      jump\t// in\n    tag_126:\n        /* \"#utility.yul\":5702:5775   */\n      swap2\n      pop\n        /* \"#utility.yul\":5656:5785   */\n      pop\n        /* \"#utility.yul\":4821:5792   */\n      swap3\n      swap6\n      pop\n      swap3\n      swap6\n      swap1\n      swap4\n      pop\n      jump\t// out\n        /* \"#utility.yul\":5798:6354   */\n    tag_37:\n        /* \"#utility.yul\":5837:5844   */\n      0x00\n        /* \"#utility.yul\":5860:5879   */\n      tag_128\n        /* \"#utility.yul\":5877:5878   */\n      dup3\n        /* \"#utility.yul\":5860:5879   */\n      tag_55\n      jump\t// in\n    tag_128:\n        /* \"#utility.yul\":5855:5879   */\n      swap2\n      pop\n        /* \"#utility.yul\":5893:5912   */\n      tag_129\n        /* \"#utility.yul\":5910:5911   */\n      dup4\n        /* \"#utility.yul\":5893:5912   */\n      tag_55\n      jump\t// in\n    tag_129:\n        /* \"#utility.yul\":5888:5912   */\n      swap3\n      pop\n        /* \"#utility.yul\":5947:5948   */\n      dup3\n        /* \"#utility.yul\":5944:5945   */\n      dup3\n        /* \"#utility.yul\":5940:5949   */\n      mul\n        /* \"#utility.yul\":5969:5998   */\n      tag_130\n        /* \"#utility.yul\":5986:5997   */\n      dup2\n        /* \"#utility.yul\":5969:5998   */\n      tag_55\n      jump\t// in\n    tag_130:\n        /* \"#utility.yul\":5958:5998   */\n      swap2\n      pop\n        /* \"#utility.yul\":6056:6122   */\n      0x8000000000000000000000000000000000000000000000000000000000000000\n        /* \"#utility.yul\":6053:6054   */\n      dup5\n        /* \"#utility.yul\":6050:6123   */\n      eq\n        /* \"#utility.yul\":6046:6047   */\n      0x00\n        /* \"#utility.yul\":6043:6044   */\n      dup5\n        /* \"#utility.yul\":6039:6048   */\n      slt\n        /* \"#utility.yul\":6035:6124   */\n      and\n        /* \"#utility.yul\":6032:6147   */\n      iszero\n      tag_131\n      jumpi\n        /* \"#utility.yul\":6127:6145   */\n      tag_132\n      tag_50\n      jump\t// in\n    tag_132:\n        /* \"#utility.yul\":6032:6147   */\n    tag_131:\n        /* \"#utility.yul\":6297:6298   */\n      dup3\n        /* \"#utility.yul\":6288:6295   */\n      dup3\n        /* \"#utility.yul\":6283:6299   */\n      sdiv\n        /* \"#utility.yul\":6280:6281   */\n      dup5\n        /* \"#utility.yul\":6277:6300   */\n      eq\n        /* \"#utility.yul\":6257:6258   */\n      dup4\n        /* \"#utility.yul\":6250:6259   */\n      iszero\n        /* \"#utility.yul\":6230:6314   */\n      or\n        /* \"#utility.yul\":6207:6347   */\n      tag_133\n      jumpi\n        /* \"#utility.yul\":6327:6345   */\n      tag_134\n      tag_50\n      jump\t// in\n    tag_134:\n        /* \"#utility.yul\":6207:6347   */\n    tag_133:\n        /* \"#utility.yul\":5845:6354   */\n      pop\n        /* \"#utility.yul\":5798:6354   */\n      swap3\n      swap2\n      pop\n      pop\n      jump\t// out\n\n    auxdata: 0xa2646970667358221220eec7f8c6f26aef2aeb8d62ee3e9dcd3e8b755e161a23f0422f612358bef2e61e64736f6c63430008120033\n}\n",
				"bytecode": {
					"linkReferences": {},
					"object": "6080604052603260005534801561001557600080fd5b50610690806100256000396000f3fe6080604052600436106100295760003560e01c8063b60d42881461002e578063dc0d3dff14610038575b600080fd5b610036610075565b005b34801561004457600080fd5b5061005f600480360381019061005a91906102cf565b61017d565b60405161006c919061033d565b60405180910390f35b600054610081346101bc565b10156100c2576040517f08c379a00000000000000000000000000000000000000000000000000000000081526004016100b9906103b5565b60405180910390fd5b6001339080600181540180825580915050600190039060005260206000200160009091909190916101000a81548173ffffffffffffffffffffffffffffffffffffffff021916908373ffffffffffffffffffffffffffffffffffffffff16021790555034600260003373ffffffffffffffffffffffffffffffffffffffff1673ffffffffffffffffffffffffffffffffffffffff16815260200190815260200160002060008282546101749190610404565b92505081905550565b6001818154811061018d57600080fd5b906000526020600020016000915054906101000a900473ffffffffffffffffffffffffffffffffffffffff1681565b6000670de0b6b3a76400006101cf6101eb565b836101da9190610438565b6101e491906104a9565b9050919050565b60008073694aa1769357215de4fac081bf1f309adc325306905060008173ffffffffffffffffffffffffffffffffffffffff1663feaf968c6040518163ffffffff1660e01b815260040160a060405180830381865afa158015610252573d6000803e3d6000fd5b505050506040513d601f19601f820116820180604052508101906102769190610567565b5050509150506402540be4008161028d91906105e2565b9250505090565b600080fd5b6000819050919050565b6102ac81610299565b81146102b757600080fd5b50565b6000813590506102c9816102a3565b92915050565b6000602082840312156102e5576102e4610294565b5b60006102f3848285016102ba565b91505092915050565b600073ffffffffffffffffffffffffffffffffffffffff82169050919050565b6000610327826102fc565b9050919050565b6103378161031c565b82525050565b6000602082019050610352600083018461032e565b92915050565b600082825260208201905092915050565b7f4469646e27742073656e6420656e6f7567680000000000000000000000000000600082015250565b600061039f601283610358565b91506103aa82610369565b602082019050919050565b600060208201905081810360008301526103ce81610392565b9050919050565b7f4e487b7100000000000000000000000000000000000000000000000000000000600052601160045260246000fd5b600061040f82610299565b915061041a83610299565b9250828201905080821115610432576104316103d5565b5b92915050565b600061044382610299565b915061044e83610299565b925082820261045c81610299565b91508282048414831517610473576104726103d5565b5b5092915050565b7f4e487b7100000000000000000000000000000000000000000000000000000000600052601260045260246000fd5b60006104b482610299565b91506104bf83610299565b9250826104cf576104ce61047a565b5b828204905092915050565b600069ffffffffffffffffffff82169050919050565b6104f9816104da565b811461050457600080fd5b50565b600081519050610516816104f0565b92915050565b6000819050919050565b61052f8161051c565b811461053a57600080fd5b50565b60008151905061054c81610526565b92915050565b600081519050610561816102a3565b92915050565b600080600080600060a0868803121561058357610582610294565b5b600061059188828901610507565b95505060206105a28882890161053d565b94505060406105b388828901610552565b93505060606105c488828901610552565b92505060806105d588828901610507565b9150509295509295909350565b60006105ed8261051c565b91506105f88361051c565b92508282026106068161051c565b91507f8000000000000000000000000000000000000000000000000000000000000000841460008412161561063e5761063d6103d5565b5b8282058414831517610653576106526103d5565b5b509291505056fea2646970667358221220eec7f8c6f26aef2aeb8d62ee3e9dcd3e8b755e161a23f0422f612358bef2e61e64736f6c63430008120033",
					"opcodes": "PUSH1 0x80 PUSH1 0x40 MSTORE PUSH1 0x32 PUSH1 0x0 SSTORE CALLVALUE DUP1 ISZERO PUSH2 0x15 JUMPI PUSH1 0x0 DUP1 REVERT JUMPDEST POP PUSH2 0x690 DUP1 PUSH2 0x25 PUSH1 0x0 CODECOPY PUSH1 0x0 RETURN INVALID PUSH1 0x80 PUSH1 0x40 MSTORE PUSH1 0x4 CALLDATASIZE LT PUSH2 0x29 JUMPI PUSH1 0x0 CALLDATALOAD PUSH1 0xE0 SHR DUP1 PUSH4 0xB60D4288 EQ PUSH2 0x2E JUMPI DUP1 PUSH4 0xDC0D3DFF EQ PUSH2 0x38 JUMPI JUMPDEST PUSH1 0x0 DUP1 REVERT JUMPDEST PUSH2 0x36 PUSH2 0x75 JUMP JUMPDEST STOP JUMPDEST CALLVALUE DUP1 ISZERO PUSH2 0x44 JUMPI PUSH1 0x0 DUP1 REVERT JUMPDEST POP PUSH2 0x5F PUSH1 0x4 DUP1 CALLDATASIZE SUB DUP2 ADD SWAP1 PUSH2 0x5A SWAP2 SWAP1 PUSH2 0x2CF JUMP JUMPDEST PUSH2 0x17D JUMP JUMPDEST PUSH1 0x40 MLOAD PUSH2 0x6C SWAP2 SWAP1 PUSH2 0x33D JUMP JUMPDEST PUSH1 0x40 MLOAD DUP1 SWAP2 SUB SWAP1 RETURN JUMPDEST PUSH1 0x0 SLOAD PUSH2 0x81 CALLVALUE PUSH2 0x1BC JUMP JUMPDEST LT ISZERO PUSH2 0xC2 JUMPI PUSH1 0x40 MLOAD PUSH32 0x8C379A000000000000000000000000000000000000000000000000000000000 DUP2 MSTORE PUSH1 0x4 ADD PUSH2 0xB9 SWAP1 PUSH2 0x3B5 JUMP JUMPDEST PUSH1 0x40 MLOAD DUP1 SWAP2 SUB SWAP1 REVERT JUMPDEST PUSH1 0x1 CALLER SWAP1 DUP1 PUSH1 0x1 DUP2 SLOAD ADD DUP1 DUP3 SSTORE DUP1 SWAP2 POP POP PUSH1 0x1 SWAP1 SUB SWAP1 PUSH1 0x0 MSTORE PUSH1 0x20 PUSH1 0x0 KECCAK256 ADD PUSH1 0x0 SWAP1 SWAP2 SWAP1 SWAP2 SWAP1 SWAP2 PUSH2 0x100 EXP DUP2 SLOAD DUP2 PUSH20 0xFFFFFFFFFFFFFFFFFFFFFFFFFFFFFFFFFFFFFFFF MUL NOT AND SWAP1 DUP4 PUSH20 0xFFFFFFFFFFFFFFFFFFFFFFFFFFFFFFFFFFFFFFFF AND MUL OR SWAP1 SSTORE POP CALLVALUE PUSH1 0x2 PUSH1 0x0 CALLER PUSH20 0xFFFFFFFFFFFFFFFFFFFFFFFFFFFFFFFFFFFFFFFF AND PUSH20 0xFFFFFFFFFFFFFFFFFFFFFFFFFFFFFFFFFFFFFFFF AND DUP2 MSTORE PUSH1 0x20 ADD SWAP1 DUP2 MSTORE PUSH1 0x20 ADD PUSH1 0x0 KECCAK256 PUSH1 0x0 DUP3 DUP3 SLOAD PUSH2 0x174 SWAP2 SWAP1 PUSH2 0x404 JUMP JUMPDEST SWAP3 POP POP DUP2 SWAP1 SSTORE POP JUMP JUMPDEST PUSH1 0x1 DUP2 DUP2 SLOAD DUP2 LT PUSH2 0x18D JUMPI PUSH1 0x0 DUP1 REVERT JUMPDEST SWAP1 PUSH1 0x0 MSTORE PUSH1 0x20 PUSH1 0x0 KECCAK256 ADD PUSH1 0x0 SWAP2 POP SLOAD SWAP1 PUSH2 0x100 EXP SWAP1 DIV PUSH20 0xFFFFFFFFFFFFFFFFFFFFFFFFFFFFFFFFFFFFFFFF AND DUP2 JUMP JUMPDEST PUSH1 0x0 PUSH8 0xDE0B6B3A7640000 PUSH2 0x1CF PUSH2 0x1EB JUMP JUMPDEST DUP4 PUSH2 0x1DA SWAP2 SWAP1 PUSH2 0x438 JUMP JUMPDEST PUSH2 0x1E4 SWAP2 SWAP1 PUSH2 0x4A9 JUMP JUMPDEST SWAP1 POP SWAP2 SWAP1 POP JUMP JUMPDEST PUSH1 0x0 DUP1 PUSH20 0x694AA1769357215DE4FAC081BF1F309ADC325306 SWAP1 POP PUSH1 0x0 DUP2 PUSH20 0xFFFFFFFFFFFFFFFFFFFFFFFFFFFFFFFFFFFFFFFF AND PUSH4 0xFEAF968C PUSH1 0x40 MLOAD DUP2 PUSH4 0xFFFFFFFF AND PUSH1 0xE0 SHL DUP2 MSTORE PUSH1 0x4 ADD PUSH1 0xA0 PUSH1 0x40 MLOAD DUP1 DUP4 SUB DUP2 DUP7 GAS STATICCALL ISZERO DUP1 ISZERO PUSH2 0x252 JUMPI RETURNDATASIZE PUSH1 0x0 DUP1 RETURNDATACOPY RETURNDATASIZE PUSH1 0x0 REVERT JUMPDEST POP POP POP POP PUSH1 0x40 MLOAD RETURNDATASIZE PUSH1 0x1F NOT PUSH1 0x1F DUP3 ADD AND DUP3 ADD DUP1 PUSH1 0x40 MSTORE POP DUP2 ADD SWAP1 PUSH2 0x276 SWAP2 SWAP1 PUSH2 0x567 JUMP JUMPDEST POP POP POP SWAP2 POP POP PUSH5 0x2540BE400 DUP2 PUSH2 0x28D SWAP2 SWAP1 PUSH2 0x5E2 JUMP JUMPDEST SWAP3 POP POP POP SWAP1 JUMP JUMPDEST PUSH1 0x0 DUP1 REVERT JUMPDEST PUSH1 0x0 DUP2 SWAP1 POP SWAP2 SWAP1 POP JUMP JUMPDEST PUSH2 0x2AC DUP2 PUSH2 0x299 JUMP JUMPDEST DUP2 EQ PUSH2 0x2B7 JUMPI PUSH1 0x0 DUP1 REVERT JUMPDEST POP JUMP JUMPDEST PUSH1 0x0 DUP2 CALLDATALOAD SWAP1 POP PUSH2 0x2C9 DUP2 PUSH2 0x2A3 JUMP JUMPDEST SWAP3 SWAP2 POP POP JUMP JUMPDEST PUSH1 0x0 PUSH1 0x20 DUP3 DUP5 SUB SLT ISZERO PUSH2 0x2E5 JUMPI PUSH2 0x2E4 PUSH2 0x294 JUMP JUMPDEST JUMPDEST PUSH1 0x0 PUSH2 0x2F3 DUP5 DUP3 DUP6 ADD PUSH2 0x2BA JUMP JUMPDEST SWAP2 POP POP SWAP3 SWAP2 POP POP JUMP JUMPDEST PUSH1 0x0 PUSH20 0xFFFFFFFFFFFFFFFFFFFFFFFFFFFFFFFFFFFFFFFF DUP3 AND SWAP1 POP SWAP2 SWAP1 POP JUMP JUMPDEST PUSH1 0x0 PUSH2 0x327 DUP3 PUSH2 0x2FC JUMP JUMPDEST SWAP1 POP SWAP2 SWAP1 POP JUMP JUMPDEST PUSH2 0x337 DUP2 PUSH2 0x31C JUMP JUMPDEST DUP3 MSTORE POP POP JUMP JUMPDEST PUSH1 0x0 PUSH1 0x20 DUP3 ADD SWAP1 POP PUSH2 0x352 PUSH1 0x0 DUP4 ADD DUP5 PUSH2 0x32E JUMP JUMPDEST SWAP3 SWAP2 POP POP JUMP JUMPDEST PUSH1 0x0 DUP3 DUP3 MSTORE PUSH1 0x20 DUP3 ADD SWAP1 POP SWAP3 SWAP2 POP POP JUMP JUMPDEST PUSH32 0x4469646E27742073656E6420656E6F7567680000000000000000000000000000 PUSH1 0x0 DUP3 ADD MSTORE POP JUMP JUMPDEST PUSH1 0x0 PUSH2 0x39F PUSH1 0x12 DUP4 PUSH2 0x358 JUMP JUMPDEST SWAP2 POP PUSH2 0x3AA DUP3 PUSH2 0x369 JUMP JUMPDEST PUSH1 0x20 DUP3 ADD SWAP1 POP SWAP2 SWAP1 POP JUMP JUMPDEST PUSH1 0x0 PUSH1 0x20 DUP3 ADD SWAP1 POP DUP2 DUP2 SUB PUSH1 0x0 DUP4 ADD MSTORE PUSH2 0x3CE DUP2 PUSH2 0x392 JUMP JUMPDEST SWAP1 POP SWAP2 SWAP1 POP JUMP JUMPDEST PUSH32 0x4E487B7100000000000000000000000000000000000000000000000000000000 PUSH1 0x0 MSTORE PUSH1 0x11 PUSH1 0x4 MSTORE PUSH1 0x24 PUSH1 0x0 REVERT JUMPDEST PUSH1 0x0 PUSH2 0x40F DUP3 PUSH2 0x299 JUMP JUMPDEST SWAP2 POP PUSH2 0x41A DUP4 PUSH2 0x299 JUMP JUMPDEST SWAP3 POP DUP3 DUP3 ADD SWAP1 POP DUP1 DUP3 GT ISZERO PUSH2 0x432 JUMPI PUSH2 0x431 PUSH2 0x3D5 JUMP JUMPDEST JUMPDEST SWAP3 SWAP2 POP POP JUMP JUMPDEST PUSH1 0x0 PUSH2 0x443 DUP3 PUSH2 0x299 JUMP JUMPDEST SWAP2 POP PUSH2 0x44E DUP4 PUSH2 0x299 JUMP JUMPDEST SWAP3 POP DUP3 DUP3 MUL PUSH2 0x45C DUP2 PUSH2 0x299 JUMP JUMPDEST SWAP2 POP DUP3 DUP3 DIV DUP5 EQ DUP4 ISZERO OR PUSH2 0x473 JUMPI PUSH2 0x472 PUSH2 0x3D5 JUMP JUMPDEST JUMPDEST POP SWAP3 SWAP2 POP POP JUMP JUMPDEST PUSH32 0x4E487B7100000000000000000000000000000000000000000000000000000000 PUSH1 0x0 MSTORE PUSH1 0x12 PUSH1 0x4 MSTORE PUSH1 0x24 PUSH1 0x0 REVERT JUMPDEST PUSH1 0x0 PUSH2 0x4B4 DUP3 PUSH2 0x299 JUMP JUMPDEST SWAP2 POP PUSH2 0x4BF DUP4 PUSH2 0x299 JUMP JUMPDEST SWAP3 POP DUP3 PUSH2 0x4CF JUMPI PUSH2 0x4CE PUSH2 0x47A JUMP JUMPDEST JUMPDEST DUP3 DUP3 DIV SWAP1 POP SWAP3 SWAP2 POP POP JUMP JUMPDEST PUSH1 0x0 PUSH10 0xFFFFFFFFFFFFFFFFFFFF DUP3 AND SWAP1 POP SWAP2 SWAP1 POP JUMP JUMPDEST PUSH2 0x4F9 DUP2 PUSH2 0x4DA JUMP JUMPDEST DUP2 EQ PUSH2 0x504 JUMPI PUSH1 0x0 DUP1 REVERT JUMPDEST POP JUMP JUMPDEST PUSH1 0x0 DUP2 MLOAD SWAP1 POP PUSH2 0x516 DUP2 PUSH2 0x4F0 JUMP JUMPDEST SWAP3 SWAP2 POP POP JUMP JUMPDEST PUSH1 0x0 DUP2 SWAP1 POP SWAP2 SWAP1 POP JUMP JUMPDEST PUSH2 0x52F DUP2 PUSH2 0x51C JUMP JUMPDEST DUP2 EQ PUSH2 0x53A JUMPI PUSH1 0x0 DUP1 REVERT JUMPDEST POP JUMP JUMPDEST PUSH1 0x0 DUP2 MLOAD SWAP1 POP PUSH2 0x54C DUP2 PUSH2 0x526 JUMP JUMPDEST SWAP3 SWAP2 POP POP JUMP JUMPDEST PUSH1 0x0 DUP2 MLOAD SWAP1 POP PUSH2 0x561 DUP2 PUSH2 0x2A3 JUMP JUMPDEST SWAP3 SWAP2 POP POP JUMP JUMPDEST PUSH1 0x0 DUP1 PUSH1 0x0 DUP1 PUSH1 0x0 PUSH1 0xA0 DUP7 DUP9 SUB SLT ISZERO PUSH2 0x583 JUMPI PUSH2 0x582 PUSH2 0x294 JUMP JUMPDEST JUMPDEST PUSH1 0x0 PUSH2 0x591 DUP9 DUP3 DUP10 ADD PUSH2 0x507 JUMP JUMPDEST SWAP6 POP POP PUSH1 0x20 PUSH2 0x5A2 DUP9 DUP3 DUP10 ADD PUSH2 0x53D JUMP JUMPDEST SWAP5 POP POP PUSH1 0x40 PUSH2 0x5B3 DUP9 DUP3 DUP10 ADD PUSH2 0x552 JUMP JUMPDEST SWAP4 POP POP PUSH1 0x60 PUSH2 0x5C4 DUP9 DUP3 DUP10 ADD PUSH2 0x552 JUMP JUMPDEST SWAP3 POP POP PUSH1 0x80 PUSH2 0x5D5 DUP9 DUP3 DUP10 ADD PUSH2 0x507 JUMP JUMPDEST SWAP2 POP POP SWAP3 SWAP6 POP SWAP3 SWAP6 SWAP1 SWAP4 POP JUMP JUMPDEST PUSH1 0x0 PUSH2 0x5ED DUP3 PUSH2 0x51C JUMP JUMPDEST SWAP2 POP PUSH2 0x5F8 DUP4 PUSH2 0x51C JUMP JUMPDEST SWAP3 POP DUP3 DUP3 MUL PUSH2 0x606 DUP2 PUSH2 0x51C JUMP JUMPDEST SWAP2 POP PUSH32 0x8000000000000000000000000000000000000000000000000000000000000000 DUP5 EQ PUSH1 0x0 DUP5 SLT AND ISZERO PUSH2 0x63E JUMPI PUSH2 0x63D PUSH2 0x3D5 JUMP JUMPDEST JUMPDEST DUP3 DUP3 SDIV DUP5 EQ DUP4 ISZERO OR PUSH2 0x653 JUMPI PUSH2 0x652 PUSH2 0x3D5 JUMP JUMPDEST JUMPDEST POP SWAP3 SWAP2 POP POP JUMP INVALID LOG2 PUSH5 0x6970667358 0x22 SLT KECCAK256 0xEE 0xC7 0xF8 0xC6 CALLCODE PUSH11 0xEF2AEB8D62EE3E9DCD3E8B PUSH22 0x5E161A23F0422F612358BEF2E61E64736F6C63430008 SLT STOP CALLER "
				},
				"gasEstimates": {
					"creation": {
						"codeDepositCost": "336000",
						"executionCost": "22480",
						"totalCost": "358480"
					},
					"external": {
						"fund()": "infinite",
						"funders(uint256)": "4956"
					},
					"internal": {
						"withdraw()": "infinite"
					}
				},
				"methodIdentifiers": {
					"fund()": "b60d4288",
					"funders(uint256)": "dc0d3dff"
				}
			},
			"storageLayout": {
				"storage": [
					{
						"astId": 54,
						"contract": "contracts/FundMe.sol:FundMe",
						"label": "minUSD",
						"offset": 0,
						"slot": "0",
						"type": "t_uint256"
					},
					{
						"astId": 57,
						"contract": "contracts/FundMe.sol:FundMe",
						"label": "funders",
						"offset": 0,
						"slot": "1",
						"type": "t_array(t_address)dyn_storage"
					},
					{
						"astId": 61,
						"contract": "contracts/FundMe.sol:FundMe",
						"label": "amounts",
						"offset": 0,
						"slot": "2",
						"type": "t_mapping(t_address,t_uint256)"
					}
				],
				"types": {
					"t_address": {
						"encoding": "inplace",
						"label": "address",
						"numberOfBytes": "20"
					},
					"t_array(t_address)dyn_storage": {
						"base": "t_address",
						"encoding": "dynamic_array",
						"label": "address[]",
						"numberOfBytes": "32"
					},
					"t_mapping(t_address,t_uint256)": {
						"encoding": "mapping",
						"key": "t_address",
						"label": "mapping(address => uint256)",
						"numberOfBytes": "32",
						"value": "t_uint256"
					},
					"t_uint256": {
						"encoding": "inplace",
						"label": "uint256",
						"numberOfBytes": "32"
					}
				}
			},
			"userdoc": {
				"kind": "user",
				"methods": {},
				"version": 1
			}
		}
	}
}