{
	"contracts/FundMe.sol": {
		"FundMe": {
			"abi": [
				{
					"inputs": [],
					"stateMutability": "nonpayable",
					"type": "constructor"
				},
				{
					"inputs": [],
					"name": "NotOwner",
					"type": "error"
				},
				{
					"inputs": [],
					"name": "MIN_USD",
					"outputs": [
						{
							"internalType": "uint256",
							"name": "",
							"type": "uint256"
						}
					],
					"stateMutability": "view",
					"type": "function"
				},
				{
					"inputs": [
						{
							"internalType": "address",
							"name": "",
							"type": "address"
						}
					],
					"name": "amounts",
					"outputs": [
						{
							"internalType": "uint256",
							"name": "",
							"type": "uint256"
						}
					],
					"stateMutability": "view",
					"type": "function"
				},
				{
					"inputs": [],
					"name": "fund",
					"outputs": [],
					"stateMutability": "payable",
					"type": "function"
				},
				{
					"inputs": [
						{
							"internalType": "uint256",
							"name": "",
							"type": "uint256"
						}
					],
					"name": "funders",
					"outputs": [
						{
							"internalType": "address",
							"name": "",
							"type": "address"
						}
					],
					"stateMutability": "view",
					"type": "function"
				},
				{
					"inputs": [],
					"name": "owner",
					"outputs": [
						{
							"internalType": "address",
							"name": "",
							"type": "address"
						}
					],
					"stateMutability": "view",
					"type": "function"
				},
				{
					"inputs": [],
					"name": "withdraw",
					"outputs": [],
					"stateMutability": "nonpayable",
					"type": "function"
				}
			],
			"devdoc": {
				"kind": "dev",
				"methods": {},
				"version": 1
			},
			"evm": {
				"assembly": "    /* \"contracts/FundMe.sol\":100:1485  contract FundMe {... */\n  mstore(0x40, 0xa0)\n    /* \"contracts/FundMe.sol\":350:401  constructor() {... */\n  callvalue\n  dup1\n  iszero\n  tag_1\n  jumpi\n  0x00\n  dup1\n  revert\ntag_1:\n  pop\n    /* \"contracts/FundMe.sol\":383:393  msg.sender */\n  caller\n    /* \"contracts/FundMe.sol\":375:393  owner = msg.sender */\n  0xffffffffffffffffffffffffffffffffffffffff\n  and\n  0x80\n  dup2\n  0xffffffffffffffffffffffffffffffffffffffff\n  and\n  dup2\n  mstore\n  pop\n  pop\n    /* \"contracts/FundMe.sol\":100:1485  contract FundMe {... */\n  mload(0x80)\n  codecopy(0x00, dataOffset(sub_0), dataSize(sub_0))\n  0x00\n  assignImmutable(\"0x606503ebd6bdca7290248af82fd5a09ca0489398da9f242244210336ae6ece9f\")\n  return(0x00, dataSize(sub_0))\nstop\n\nsub_0: assembly {\n        /* \"contracts/FundMe.sol\":100:1485  contract FundMe {... */\n      mstore(0x40, 0x80)\n      jumpi(tag_1, lt(calldatasize, 0x04))\n      shr(0xe0, calldataload(0x00))\n      dup1\n      0x213dbea2\n      eq\n      tag_2\n      jumpi\n      dup1\n      0x3ccfd60b\n      eq\n      tag_3\n      jumpi\n      dup1\n      0x55a3b2c1\n      eq\n      tag_4\n      jumpi\n      dup1\n      0x8da5cb5b\n      eq\n      tag_5\n      jumpi\n      dup1\n      0xb60d4288\n      eq\n      tag_6\n      jumpi\n      dup1\n      0xdc0d3dff\n      eq\n      tag_7\n      jumpi\n    tag_1:\n      0x00\n      dup1\n      revert\n        /* \"contracts/FundMe.sol\":164:205  uint256 public constant MIN_USD = 50*1e18 */\n    tag_2:\n      callvalue\n      dup1\n      iszero\n      tag_8\n      jumpi\n      0x00\n      dup1\n      revert\n    tag_8:\n      pop\n      tag_9\n      tag_10\n      jump\t// in\n    tag_9:\n      mload(0x40)\n      tag_11\n      swap2\n      swap1\n      tag_12\n      jump\t// in\n    tag_11:\n      mload(0x40)\n      dup1\n      swap2\n      sub\n      swap1\n      return\n        /* \"contracts/FundMe.sol\":626:1288  function withdraw() public onlyOwner{... */\n    tag_3:\n      callvalue\n      dup1\n      iszero\n      tag_13\n      jumpi\n      0x00\n      dup1\n      revert\n    tag_13:\n      pop\n      tag_14\n      tag_15\n      jump\t// in\n    tag_14:\n      stop\n        /* \"contracts/FundMe.sol\":243:283  mapping(address=>uint256) public amounts */\n    tag_4:\n      callvalue\n      dup1\n      iszero\n      tag_16\n      jumpi\n      0x00\n      dup1\n      revert\n    tag_16:\n      pop\n      tag_17\n      0x04\n      dup1\n      calldatasize\n      sub\n      dup2\n      add\n      swap1\n      tag_18\n      swap2\n      swap1\n      tag_19\n      jump\t// in\n    tag_18:\n      tag_20\n      jump\t// in\n    tag_17:\n      mload(0x40)\n      tag_21\n      swap2\n      swap1\n      tag_12\n      jump\t// in\n    tag_21:\n      mload(0x40)\n      dup1\n      swap2\n      sub\n      swap1\n      return\n        /* \"contracts/FundMe.sol\":290:320  address public immutable owner */\n    tag_5:\n      callvalue\n      dup1\n      iszero\n      tag_22\n      jumpi\n      0x00\n      dup1\n      revert\n    tag_22:\n      pop\n      tag_23\n      tag_24\n      jump\t// in\n    tag_23:\n      mload(0x40)\n      tag_25\n      swap2\n      swap1\n      tag_26\n      jump\t// in\n    tag_25:\n      mload(0x40)\n      dup1\n      swap2\n      sub\n      swap1\n      return\n        /* \"contracts/FundMe.sol\":415:612  function fund() public payable {... */\n    tag_6:\n      tag_27\n      tag_28\n      jump\t// in\n    tag_27:\n      stop\n        /* \"contracts/FundMe.sol\":212:236  address[] public funders */\n    tag_7:\n      callvalue\n      dup1\n      iszero\n      tag_29\n      jumpi\n      0x00\n      dup1\n      revert\n    tag_29:\n      pop\n      tag_30\n      0x04\n      dup1\n      calldatasize\n      sub\n      dup2\n      add\n      swap1\n      tag_31\n      swap2\n      swap1\n      tag_32\n      jump\t// in\n    tag_31:\n      tag_33\n      jump\t// in\n    tag_30:\n      mload(0x40)\n      tag_34\n      swap2\n      swap1\n      tag_26\n      jump\t// in\n    tag_34:\n      mload(0x40)\n      dup1\n      swap2\n      sub\n      swap1\n      return\n        /* \"contracts/FundMe.sol\":164:205  uint256 public constant MIN_USD = 50*1e18 */\n    tag_10:\n        /* \"contracts/FundMe.sol\":198:205  50*1e18 */\n      0x02b5e3af16b1880000\n        /* \"contracts/FundMe.sol\":164:205  uint256 public constant MIN_USD = 50*1e18 */\n      dup2\n      jump\t// out\n        /* \"contracts/FundMe.sol\":626:1288  function withdraw() public onlyOwner{... */\n    tag_15:\n        /* \"contracts/FundMe.sol\":1413:1418  owner */\n      immutable(\"0x606503ebd6bdca7290248af82fd5a09ca0489398da9f242244210336ae6ece9f\")\n        /* \"contracts/FundMe.sol\":1401:1418  msg.sender!=owner */\n      0xffffffffffffffffffffffffffffffffffffffff\n      and\n        /* \"contracts/FundMe.sol\":1401:1411  msg.sender */\n      caller\n        /* \"contracts/FundMe.sol\":1401:1418  msg.sender!=owner */\n      0xffffffffffffffffffffffffffffffffffffffff\n      and\n      eq\n        /* \"contracts/FundMe.sol\":1398:1463  if(msg.sender!=owner){... */\n      tag_36\n      jumpi\n        /* \"contracts/FundMe.sol\":1441:1451  NotOwner() */\n      mload(0x40)\n      0x30cd747100000000000000000000000000000000000000000000000000000000\n      dup2\n      mstore\n      0x04\n      add\n      mload(0x40)\n      dup1\n      swap2\n      sub\n      swap1\n      revert\n        /* \"contracts/FundMe.sol\":1398:1463  if(msg.sender!=owner){... */\n    tag_36:\n        /* \"contracts/FundMe.sol\":688:697  uint256 i */\n      0x00\n        /* \"contracts/FundMe.sol\":683:808  for (uint256 i; i<funders.length;i++){... */\n    tag_38:\n        /* \"contracts/FundMe.sol\":701:708  funders */\n      0x00\n        /* \"contracts/FundMe.sol\":701:715  funders.length */\n      dup1\n      sload\n      swap1\n      pop\n        /* \"contracts/FundMe.sol\":699:700  i */\n      dup2\n        /* \"contracts/FundMe.sol\":699:715  i<funders.length */\n      lt\n        /* \"contracts/FundMe.sol\":683:808  for (uint256 i; i<funders.length;i++){... */\n      iszero\n      tag_39\n      jumpi\n        /* \"contracts/FundMe.sol\":735:749  address funder */\n      0x00\n        /* \"contracts/FundMe.sol\":752:759  funders */\n      dup1\n        /* \"contracts/FundMe.sol\":760:761  i */\n      dup3\n        /* \"contracts/FundMe.sol\":752:762  funders[i] */\n      dup2\n      sload\n      dup2\n      lt\n      tag_41\n      jumpi\n      tag_42\n      tag_43\n      jump\t// in\n    tag_42:\n    tag_41:\n      swap1\n      0x00\n      mstore\n      keccak256(0x00, 0x20)\n      add\n      0x00\n      swap1\n      sload\n      swap1\n      0x0100\n      exp\n      swap1\n      div\n      0xffffffffffffffffffffffffffffffffffffffff\n      and\n        /* \"contracts/FundMe.sol\":735:762  address funder = funders[i] */\n      swap1\n      pop\n        /* \"contracts/FundMe.sol\":795:796  0 */\n      0x00\n        /* \"contracts/FundMe.sol\":777:784  amounts */\n      0x01\n        /* \"contracts/FundMe.sol\":777:792  amounts[funder] */\n      0x00\n        /* \"contracts/FundMe.sol\":785:791  funder */\n      dup4\n        /* \"contracts/FundMe.sol\":777:792  amounts[funder] */\n      0xffffffffffffffffffffffffffffffffffffffff\n      and\n      0xffffffffffffffffffffffffffffffffffffffff\n      and\n      dup2\n      mstore\n      0x20\n      add\n      swap1\n      dup2\n      mstore\n      0x20\n      add\n      0x00\n      keccak256\n        /* \"contracts/FundMe.sol\":777:796  amounts[funder] = 0 */\n      dup2\n      swap1\n      sstore\n      pop\n        /* \"contracts/FundMe.sol\":720:808  {... */\n      pop\n        /* \"contracts/FundMe.sol\":716:719  i++ */\n      dup1\n      dup1\n      tag_45\n      swap1\n      tag_46\n      jump\t// in\n    tag_45:\n      swap2\n      pop\n      pop\n        /* \"contracts/FundMe.sol\":683:808  for (uint256 i; i<funders.length;i++){... */\n      jump(tag_38)\n    tag_39:\n      pop\n        /* \"contracts/FundMe.sol\":842:843  0 */\n      0x00\n        /* \"contracts/FundMe.sol\":828:844  new address[](0) */\n      0xffffffffffffffff\n      dup2\n      gt\n      iszero\n      tag_47\n      jumpi\n      tag_48\n      tag_49\n      jump\t// in\n    tag_48:\n    tag_47:\n      mload(0x40)\n      swap1\n      dup1\n      dup3\n      mstore\n      dup1\n      0x20\n      mul\n      0x20\n      add\n      dup3\n      add\n      0x40\n      mstore\n      dup1\n      iszero\n      tag_50\n      jumpi\n      dup2\n      0x20\n      add\n      0x20\n      dup3\n      mul\n      dup1\n      calldatasize\n      dup4\n      calldatacopy\n      dup1\n      dup3\n      add\n      swap2\n      pop\n      pop\n      swap1\n      pop\n    tag_50:\n      pop\n        /* \"contracts/FundMe.sol\":818:825  funders */\n      0x00\n        /* \"contracts/FundMe.sol\":818:844  funders = new address[](0) */\n      swap1\n      dup1\n      mload\n      swap1\n      0x20\n      add\n      swap1\n      tag_51\n      swap3\n      swap2\n      swap1\n      tag_52\n      jump\t// in\n    tag_51:\n      pop\n        /* \"contracts/FundMe.sol\":1167:1179  bool success */\n      0x00\n        /* \"contracts/FundMe.sol\":1192:1202  msg.sender */\n      caller\n        /* \"contracts/FundMe.sol\":1184:1208  payable(msg.sender).call */\n      0xffffffffffffffffffffffffffffffffffffffff\n      and\n        /* \"contracts/FundMe.sol\":1215:1236  address(this).balance */\n      selfbalance\n        /* \"contracts/FundMe.sol\":1184:1241  payable(msg.sender).call{value:address(this).balance}(\"\") */\n      mload(0x40)\n      tag_53\n      swap1\n      tag_54\n      jump\t// in\n    tag_53:\n      0x00\n      mload(0x40)\n      dup1\n      dup4\n      sub\n      dup2\n      dup6\n      dup8\n      gas\n      call\n      swap3\n      pop\n      pop\n      pop\n      returndatasize\n      dup1\n      0x00\n      dup2\n      eq\n      tag_57\n      jumpi\n      mload(0x40)\n      swap2\n      pop\n      and(add(returndatasize, 0x3f), not(0x1f))\n      dup3\n      add\n      0x40\n      mstore\n      returndatasize\n      dup3\n      mstore\n      returndatasize\n      0x00\n      0x20\n      dup5\n      add\n      returndatacopy\n      jump(tag_56)\n    tag_57:\n      0x60\n      swap2\n      pop\n    tag_56:\n      pop\n        /* \"contracts/FundMe.sol\":1166:1241  (bool success,) = payable(msg.sender).call{value:address(this).balance}(\"\") */\n      pop\n      swap1\n      pop\n        /* \"contracts/FundMe.sol\":1260:1267  success */\n      dup1\n        /* \"contracts/FundMe.sol\":1252:1280  require(success, \"Not sent\") */\n      tag_58\n      jumpi\n      mload(0x40)\n      0x08c379a000000000000000000000000000000000000000000000000000000000\n      dup2\n      mstore\n      0x04\n      add\n      tag_59\n      swap1\n      tag_60\n      jump\t// in\n    tag_59:\n      mload(0x40)\n      dup1\n      swap2\n      sub\n      swap1\n      revert\n    tag_58:\n        /* \"contracts/FundMe.sol\":662:1288  {... */\n      pop\n        /* \"contracts/FundMe.sol\":626:1288  function withdraw() public onlyOwner{... */\n      jump\t// out\n        /* \"contracts/FundMe.sol\":243:283  mapping(address=>uint256) public amounts */\n    tag_20:\n      mstore(0x20, 0x01)\n      dup1\n      0x00\n      mstore\n      keccak256(0x00, 0x40)\n      0x00\n      swap2\n      pop\n      swap1\n      pop\n      sload\n      dup2\n      jump\t// out\n        /* \"contracts/FundMe.sol\":290:320  address public immutable owner */\n    tag_24:\n      immutable(\"0x606503ebd6bdca7290248af82fd5a09ca0489398da9f242244210336ae6ece9f\")\n      dup2\n      jump\t// out\n        /* \"contracts/FundMe.sol\":415:612  function fund() public payable {... */\n    tag_28:\n        /* \"contracts/FundMe.sol\":198:205  50*1e18 */\n      0x02b5e3af16b1880000\n        /* \"contracts/FundMe.sol\":465:494  msg.value.getConversionRate() */\n      tag_62\n        /* \"contracts/FundMe.sol\":465:474  msg.value */\n      callvalue\n        /* \"contracts/FundMe.sol\":465:492  msg.value.getConversionRate */\n      tag_63\n        /* \"contracts/FundMe.sol\":465:494  msg.value.getConversionRate() */\n      jump\t// in\n    tag_62:\n        /* \"contracts/FundMe.sol\":465:503  msg.value.getConversionRate()>=MIN_USD */\n      lt\n      iszero\n        /* \"contracts/FundMe.sol\":457:526  require(msg.value.getConversionRate()>=MIN_USD, \"Didn't send enough\") */\n      tag_64\n      jumpi\n      mload(0x40)\n      0x08c379a000000000000000000000000000000000000000000000000000000000\n      dup2\n      mstore\n      0x04\n      add\n      tag_65\n      swap1\n      tag_66\n      jump\t// in\n    tag_65:\n      mload(0x40)\n      dup1\n      swap2\n      sub\n      swap1\n      revert\n    tag_64:\n        /* \"contracts/FundMe.sol\":537:544  funders */\n      0x00\n        /* \"contracts/FundMe.sol\":550:560  msg.sender */\n      caller\n        /* \"contracts/FundMe.sol\":537:561  funders.push(msg.sender) */\n      swap1\n      dup1\n      0x01\n      dup2\n      sload\n      add\n      dup1\n      dup3\n      sstore\n      dup1\n      swap2\n      pop\n      pop\n      0x01\n      swap1\n      sub\n      swap1\n      0x00\n      mstore\n      keccak256(0x00, 0x20)\n      add\n      0x00\n      swap1\n      swap2\n      swap1\n      swap2\n      swap1\n      swap2\n      0x0100\n      exp\n      dup2\n      sload\n      dup2\n      0xffffffffffffffffffffffffffffffffffffffff\n      mul\n      not\n      and\n      swap1\n      dup4\n      0xffffffffffffffffffffffffffffffffffffffff\n      and\n      mul\n      or\n      swap1\n      sstore\n      pop\n        /* \"contracts/FundMe.sol\":595:604  msg.value */\n      callvalue\n        /* \"contracts/FundMe.sol\":572:579  amounts */\n      0x01\n        /* \"contracts/FundMe.sol\":572:591  amounts[msg.sender] */\n      0x00\n        /* \"contracts/FundMe.sol\":580:590  msg.sender */\n      caller\n        /* \"contracts/FundMe.sol\":572:591  amounts[msg.sender] */\n      0xffffffffffffffffffffffffffffffffffffffff\n      and\n      0xffffffffffffffffffffffffffffffffffffffff\n      and\n      dup2\n      mstore\n      0x20\n      add\n      swap1\n      dup2\n      mstore\n      0x20\n      add\n      0x00\n      keccak256\n      0x00\n        /* \"contracts/FundMe.sol\":572:604  amounts[msg.sender] += msg.value */\n      dup3\n      dup3\n      sload\n      tag_68\n      swap2\n      swap1\n      tag_69\n      jump\t// in\n    tag_68:\n      swap3\n      pop\n      pop\n      dup2\n      swap1\n      sstore\n      pop\n        /* \"contracts/FundMe.sol\":415:612  function fund() public payable {... */\n      jump\t// out\n        /* \"contracts/FundMe.sol\":212:236  address[] public funders */\n    tag_33:\n      0x00\n      dup2\n      dup2\n      sload\n      dup2\n      lt\n      tag_70\n      jumpi\n      0x00\n      dup1\n      revert\n    tag_70:\n      swap1\n      0x00\n      mstore\n      keccak256(0x00, 0x20)\n      add\n      0x00\n      swap2\n      pop\n      sload\n      swap1\n      0x0100\n      exp\n      swap1\n      div\n      0xffffffffffffffffffffffffffffffffffffffff\n      and\n      dup2\n      jump\t// out\n        /* \"contracts/PriceConverter.sol\":605:742  function getConversionRate(uint256 amountInEth) internal view returns (uint256) {... */\n    tag_63:\n        /* \"contracts/PriceConverter.sol\":676:683  uint256 */\n      0x00\n        /* \"contracts/PriceConverter.sol\":729:733  1e18 */\n      0x0de0b6b3a7640000\n        /* \"contracts/PriceConverter.sol\":717:727  getPrice() */\n      tag_73\n        /* \"contracts/PriceConverter.sol\":717:725  getPrice */\n      tag_74\n        /* \"contracts/PriceConverter.sol\":717:727  getPrice() */\n      jump\t// in\n    tag_73:\n        /* \"contracts/PriceConverter.sol\":705:716  amountInEth */\n      dup4\n        /* \"contracts/PriceConverter.sol\":705:727  amountInEth*getPrice() */\n      tag_75\n      swap2\n      swap1\n      tag_76\n      jump\t// in\n    tag_75:\n        /* \"contracts/PriceConverter.sol\":704:733  (amountInEth*getPrice())/1e18 */\n      tag_77\n      swap2\n      swap1\n      tag_78\n      jump\t// in\n    tag_77:\n        /* \"contracts/PriceConverter.sol\":696:734  return ((amountInEth*getPrice())/1e18) */\n      swap1\n      pop\n        /* \"contracts/PriceConverter.sol\":605:742  function getConversionRate(uint256 amountInEth) internal view returns (uint256) {... */\n      swap2\n      swap1\n      pop\n      jump\t// out\n        /* \"contracts/PriceConverter.sol\":168:597  function getPrice() internal view returns (uint256) {... */\n    tag_74:\n        /* \"contracts/PriceConverter.sol\":211:218  uint256 */\n      0x00\n        /* \"contracts/PriceConverter.sol\":231:262  AggregatorV3Interface priceFeed */\n      dup1\n        /* \"contracts/PriceConverter.sol\":287:329  0x694AA1769357215DE4FAC081bf1f309aDC325306 */\n      0x694aa1769357215de4fac081bf1f309adc325306\n        /* \"contracts/PriceConverter.sol\":231:330  AggregatorV3Interface priceFeed = AggregatorV3Interface(0x694AA1769357215DE4FAC081bf1f309aDC325306) */\n      swap1\n      pop\n        /* \"contracts/PriceConverter.sol\":391:401  int answer */\n      0x00\n        /* \"contracts/PriceConverter.sol\":522:531  priceFeed */\n      dup2\n        /* \"contracts/PriceConverter.sol\":522:547  priceFeed.latestRoundData */\n      0xffffffffffffffffffffffffffffffffffffffff\n      and\n      0xfeaf968c\n        /* \"contracts/PriceConverter.sol\":522:549  priceFeed.latestRoundData() */\n      mload(0x40)\n      dup2\n      0xffffffff\n      and\n      0xe0\n      shl\n      dup2\n      mstore\n      0x04\n      add\n      0xa0\n      mload(0x40)\n      dup1\n      dup4\n      sub\n      dup2\n      dup7\n      gas\n      staticcall\n      iszero\n      dup1\n      iszero\n      tag_81\n      jumpi\n      returndatasize\n      0x00\n      dup1\n      returndatacopy\n      revert(0x00, returndatasize)\n    tag_81:\n      pop\n      pop\n      pop\n      pop\n      mload(0x40)\n      returndatasize\n      not(0x1f)\n      0x1f\n      dup3\n      add\n      and\n      dup3\n      add\n      dup1\n      0x40\n      mstore\n      pop\n      dup2\n      add\n      swap1\n      tag_82\n      swap2\n      swap1\n      tag_83\n      jump\t// in\n    tag_82:\n        /* \"contracts/PriceConverter.sol\":341:549  (... */\n      pop\n      pop\n      pop\n      swap2\n      pop\n      pop\n        /* \"contracts/PriceConverter.sol\":584:588  1e10 */\n      0x02540be400\n        /* \"contracts/PriceConverter.sol\":577:583  answer */\n      dup2\n        /* \"contracts/PriceConverter.sol\":577:588  answer*1e10 */\n      tag_84\n      swap2\n      swap1\n      tag_85\n      jump\t// in\n    tag_84:\n        /* \"contracts/PriceConverter.sol\":562:589  return uint256(answer*1e10) */\n      swap3\n      pop\n      pop\n      pop\n        /* \"contracts/PriceConverter.sol\":168:597  function getPrice() internal view returns (uint256) {... */\n      swap1\n      jump\t// out\n    tag_52:\n      dup3\n      dup1\n      sload\n      dup3\n      dup3\n      sstore\n      swap1\n      0x00\n      mstore\n      keccak256(0x00, 0x20)\n      swap1\n      dup2\n      add\n      swap3\n      dup3\n      iszero\n      tag_86\n      jumpi\n      swap2\n      0x20\n      mul\n      dup3\n      add\n    tag_87:\n      dup3\n      dup2\n      gt\n      iszero\n      tag_88\n      jumpi\n      dup3\n      mload\n      dup3\n      exp(0x0100, 0x00)\n      dup2\n      sload\n      dup2\n      0xffffffffffffffffffffffffffffffffffffffff\n      mul\n      not\n      and\n      swap1\n      dup4\n      0xffffffffffffffffffffffffffffffffffffffff\n      and\n      mul\n      or\n      swap1\n      sstore\n      pop\n      swap2\n      0x20\n      add\n      swap2\n      swap1\n      0x01\n      add\n      swap1\n      jump(tag_87)\n    tag_88:\n    tag_86:\n      pop\n      swap1\n      pop\n      tag_89\n      swap2\n      swap1\n      tag_90\n      jump\t// in\n    tag_89:\n      pop\n      swap1\n      jump\t// out\n    tag_90:\n    tag_91:\n      dup1\n      dup3\n      gt\n      iszero\n      tag_92\n      jumpi\n      0x00\n      dup2\n      0x00\n      swap1\n      sstore\n      pop\n      0x01\n      add\n      jump(tag_91)\n    tag_92:\n      pop\n      swap1\n      jump\t// out\n        /* \"#utility.yul\":7:84   */\n    tag_93:\n        /* \"#utility.yul\":44:51   */\n      0x00\n        /* \"#utility.yul\":73:78   */\n      dup2\n        /* \"#utility.yul\":62:78   */\n      swap1\n      pop\n        /* \"#utility.yul\":7:84   */\n      swap2\n      swap1\n      pop\n      jump\t// out\n        /* \"#utility.yul\":90:208   */\n    tag_94:\n        /* \"#utility.yul\":177:201   */\n      tag_125\n        /* \"#utility.yul\":195:200   */\n      dup2\n        /* \"#utility.yul\":177:201   */\n      tag_93\n      jump\t// in\n    tag_125:\n        /* \"#utility.yul\":172:175   */\n      dup3\n        /* \"#utility.yul\":165:202   */\n      mstore\n        /* \"#utility.yul\":90:208   */\n      pop\n      pop\n      jump\t// out\n        /* \"#utility.yul\":214:436   */\n    tag_12:\n        /* \"#utility.yul\":307:311   */\n      0x00\n        /* \"#utility.yul\":345:347   */\n      0x20\n        /* \"#utility.yul\":334:343   */\n      dup3\n        /* \"#utility.yul\":330:348   */\n      add\n        /* \"#utility.yul\":322:348   */\n      swap1\n      pop\n        /* \"#utility.yul\":358:429   */\n      tag_127\n        /* \"#utility.yul\":426:427   */\n      0x00\n        /* \"#utility.yul\":415:424   */\n      dup4\n        /* \"#utility.yul\":411:428   */\n      add\n        /* \"#utility.yul\":402:408   */\n      dup5\n        /* \"#utility.yul\":358:429   */\n      tag_94\n      jump\t// in\n    tag_127:\n        /* \"#utility.yul\":214:436   */\n      swap3\n      swap2\n      pop\n      pop\n      jump\t// out\n        /* \"#utility.yul\":523:640   */\n    tag_96:\n        /* \"#utility.yul\":632:633   */\n      0x00\n        /* \"#utility.yul\":629:630   */\n      dup1\n        /* \"#utility.yul\":622:634   */\n      revert\n        /* \"#utility.yul\":769:895   */\n    tag_98:\n        /* \"#utility.yul\":806:813   */\n      0x00\n        /* \"#utility.yul\":846:888   */\n      0xffffffffffffffffffffffffffffffffffffffff\n        /* \"#utility.yul\":839:844   */\n      dup3\n        /* \"#utility.yul\":835:889   */\n      and\n        /* \"#utility.yul\":824:889   */\n      swap1\n      pop\n        /* \"#utility.yul\":769:895   */\n      swap2\n      swap1\n      pop\n      jump\t// out\n        /* \"#utility.yul\":901:997   */\n    tag_99:\n        /* \"#utility.yul\":938:945   */\n      0x00\n        /* \"#utility.yul\":967:991   */\n      tag_133\n        /* \"#utility.yul\":985:990   */\n      dup3\n        /* \"#utility.yul\":967:991   */\n      tag_98\n      jump\t// in\n    tag_133:\n        /* \"#utility.yul\":956:991   */\n      swap1\n      pop\n        /* \"#utility.yul\":901:997   */\n      swap2\n      swap1\n      pop\n      jump\t// out\n        /* \"#utility.yul\":1003:1125   */\n    tag_100:\n        /* \"#utility.yul\":1076:1100   */\n      tag_135\n        /* \"#utility.yul\":1094:1099   */\n      dup2\n        /* \"#utility.yul\":1076:1100   */\n      tag_99\n      jump\t// in\n    tag_135:\n        /* \"#utility.yul\":1069:1074   */\n      dup2\n        /* \"#utility.yul\":1066:1101   */\n      eq\n        /* \"#utility.yul\":1056:1119   */\n      tag_136\n      jumpi\n        /* \"#utility.yul\":1115:1116   */\n      0x00\n        /* \"#utility.yul\":1112:1113   */\n      dup1\n        /* \"#utility.yul\":1105:1117   */\n      revert\n        /* \"#utility.yul\":1056:1119   */\n    tag_136:\n        /* \"#utility.yul\":1003:1125   */\n      pop\n      jump\t// out\n        /* \"#utility.yul\":1131:1270   */\n    tag_101:\n        /* \"#utility.yul\":1177:1182   */\n      0x00\n        /* \"#utility.yul\":1215:1221   */\n      dup2\n        /* \"#utility.yul\":1202:1222   */\n      calldataload\n        /* \"#utility.yul\":1193:1222   */\n      swap1\n      pop\n        /* \"#utility.yul\":1231:1264   */\n      tag_138\n        /* \"#utility.yul\":1258:1263   */\n      dup2\n        /* \"#utility.yul\":1231:1264   */\n      tag_100\n      jump\t// in\n    tag_138:\n        /* \"#utility.yul\":1131:1270   */\n      swap3\n      swap2\n      pop\n      pop\n      jump\t// out\n        /* \"#utility.yul\":1276:1605   */\n    tag_19:\n        /* \"#utility.yul\":1335:1341   */\n      0x00\n        /* \"#utility.yul\":1384:1386   */\n      0x20\n        /* \"#utility.yul\":1372:1381   */\n      dup3\n        /* \"#utility.yul\":1363:1370   */\n      dup5\n        /* \"#utility.yul\":1359:1382   */\n      sub\n        /* \"#utility.yul\":1355:1387   */\n      slt\n        /* \"#utility.yul\":1352:1471   */\n      iszero\n      tag_140\n      jumpi\n        /* \"#utility.yul\":1390:1469   */\n      tag_141\n      tag_96\n      jump\t// in\n    tag_141:\n        /* \"#utility.yul\":1352:1471   */\n    tag_140:\n        /* \"#utility.yul\":1510:1511   */\n      0x00\n        /* \"#utility.yul\":1535:1588   */\n      tag_142\n        /* \"#utility.yul\":1580:1587   */\n      dup5\n        /* \"#utility.yul\":1571:1577   */\n      dup3\n        /* \"#utility.yul\":1560:1569   */\n      dup6\n        /* \"#utility.yul\":1556:1578   */\n      add\n        /* \"#utility.yul\":1535:1588   */\n      tag_101\n      jump\t// in\n    tag_142:\n        /* \"#utility.yul\":1525:1588   */\n      swap2\n      pop\n        /* \"#utility.yul\":1481:1598   */\n      pop\n        /* \"#utility.yul\":1276:1605   */\n      swap3\n      swap2\n      pop\n      pop\n      jump\t// out\n        /* \"#utility.yul\":1611:1729   */\n    tag_102:\n        /* \"#utility.yul\":1698:1722   */\n      tag_144\n        /* \"#utility.yul\":1716:1721   */\n      dup2\n        /* \"#utility.yul\":1698:1722   */\n      tag_99\n      jump\t// in\n    tag_144:\n        /* \"#utility.yul\":1693:1696   */\n      dup3\n        /* \"#utility.yul\":1686:1723   */\n      mstore\n        /* \"#utility.yul\":1611:1729   */\n      pop\n      pop\n      jump\t// out\n        /* \"#utility.yul\":1735:1957   */\n    tag_26:\n        /* \"#utility.yul\":1828:1832   */\n      0x00\n        /* \"#utility.yul\":1866:1868   */\n      0x20\n        /* \"#utility.yul\":1855:1864   */\n      dup3\n        /* \"#utility.yul\":1851:1869   */\n      add\n        /* \"#utility.yul\":1843:1869   */\n      swap1\n      pop\n        /* \"#utility.yul\":1879:1950   */\n      tag_146\n        /* \"#utility.yul\":1947:1948   */\n      0x00\n        /* \"#utility.yul\":1936:1945   */\n      dup4\n        /* \"#utility.yul\":1932:1949   */\n      add\n        /* \"#utility.yul\":1923:1929   */\n      dup5\n        /* \"#utility.yul\":1879:1950   */\n      tag_102\n      jump\t// in\n    tag_146:\n        /* \"#utility.yul\":1735:1957   */\n      swap3\n      swap2\n      pop\n      pop\n      jump\t// out\n        /* \"#utility.yul\":1963:2085   */\n    tag_103:\n        /* \"#utility.yul\":2036:2060   */\n      tag_148\n        /* \"#utility.yul\":2054:2059   */\n      dup2\n        /* \"#utility.yul\":2036:2060   */\n      tag_93\n      jump\t// in\n    tag_148:\n        /* \"#utility.yul\":2029:2034   */\n      dup2\n        /* \"#utility.yul\":2026:2061   */\n      eq\n        /* \"#utility.yul\":2016:2079   */\n      tag_149\n      jumpi\n        /* \"#utility.yul\":2075:2076   */\n      0x00\n        /* \"#utility.yul\":2072:2073   */\n      dup1\n        /* \"#utility.yul\":2065:2077   */\n      revert\n        /* \"#utility.yul\":2016:2079   */\n    tag_149:\n        /* \"#utility.yul\":1963:2085   */\n      pop\n      jump\t// out\n        /* \"#utility.yul\":2091:2230   */\n    tag_104:\n        /* \"#utility.yul\":2137:2142   */\n      0x00\n        /* \"#utility.yul\":2175:2181   */\n      dup2\n        /* \"#utility.yul\":2162:2182   */\n      calldataload\n        /* \"#utility.yul\":2153:2182   */\n      swap1\n      pop\n        /* \"#utility.yul\":2191:2224   */\n      tag_151\n        /* \"#utility.yul\":2218:2223   */\n      dup2\n        /* \"#utility.yul\":2191:2224   */\n      tag_103\n      jump\t// in\n    tag_151:\n        /* \"#utility.yul\":2091:2230   */\n      swap3\n      swap2\n      pop\n      pop\n      jump\t// out\n        /* \"#utility.yul\":2236:2565   */\n    tag_32:\n        /* \"#utility.yul\":2295:2301   */\n      0x00\n        /* \"#utility.yul\":2344:2346   */\n      0x20\n        /* \"#utility.yul\":2332:2341   */\n      dup3\n        /* \"#utility.yul\":2323:2330   */\n      dup5\n        /* \"#utility.yul\":2319:2342   */\n      sub\n        /* \"#utility.yul\":2315:2347   */\n      slt\n        /* \"#utility.yul\":2312:2431   */\n      iszero\n      tag_153\n      jumpi\n        /* \"#utility.yul\":2350:2429   */\n      tag_154\n      tag_96\n      jump\t// in\n    tag_154:\n        /* \"#utility.yul\":2312:2431   */\n    tag_153:\n        /* \"#utility.yul\":2470:2471   */\n      0x00\n        /* \"#utility.yul\":2495:2548   */\n      tag_155\n        /* \"#utility.yul\":2540:2547   */\n      dup5\n        /* \"#utility.yul\":2531:2537   */\n      dup3\n        /* \"#utility.yul\":2520:2529   */\n      dup6\n        /* \"#utility.yul\":2516:2538   */\n      add\n        /* \"#utility.yul\":2495:2548   */\n      tag_104\n      jump\t// in\n    tag_155:\n        /* \"#utility.yul\":2485:2548   */\n      swap2\n      pop\n        /* \"#utility.yul\":2441:2558   */\n      pop\n        /* \"#utility.yul\":2236:2565   */\n      swap3\n      swap2\n      pop\n      pop\n      jump\t// out\n        /* \"#utility.yul\":2571:2751   */\n    tag_43:\n        /* \"#utility.yul\":2619:2696   */\n      0x4e487b7100000000000000000000000000000000000000000000000000000000\n        /* \"#utility.yul\":2616:2617   */\n      0x00\n        /* \"#utility.yul\":2609:2697   */\n      mstore\n        /* \"#utility.yul\":2716:2720   */\n      0x32\n        /* \"#utility.yul\":2713:2714   */\n      0x04\n        /* \"#utility.yul\":2706:2721   */\n      mstore\n        /* \"#utility.yul\":2740:2744   */\n      0x24\n        /* \"#utility.yul\":2737:2738   */\n      0x00\n        /* \"#utility.yul\":2730:2745   */\n      revert\n        /* \"#utility.yul\":2757:2937   */\n    tag_105:\n        /* \"#utility.yul\":2805:2882   */\n      0x4e487b7100000000000000000000000000000000000000000000000000000000\n        /* \"#utility.yul\":2802:2803   */\n      0x00\n        /* \"#utility.yul\":2795:2883   */\n      mstore\n        /* \"#utility.yul\":2902:2906   */\n      0x11\n        /* \"#utility.yul\":2899:2900   */\n      0x04\n        /* \"#utility.yul\":2892:2907   */\n      mstore\n        /* \"#utility.yul\":2926:2930   */\n      0x24\n        /* \"#utility.yul\":2923:2924   */\n      0x00\n        /* \"#utility.yul\":2916:2931   */\n      revert\n        /* \"#utility.yul\":2943:3176   */\n    tag_46:\n        /* \"#utility.yul\":2982:2985   */\n      0x00\n        /* \"#utility.yul\":3005:3029   */\n      tag_159\n        /* \"#utility.yul\":3023:3028   */\n      dup3\n        /* \"#utility.yul\":3005:3029   */\n      tag_93\n      jump\t// in\n    tag_159:\n        /* \"#utility.yul\":2996:3029   */\n      swap2\n      pop\n        /* \"#utility.yul\":3051:3117   */\n      0xffffffffffffffffffffffffffffffffffffffffffffffffffffffffffffffff\n        /* \"#utility.yul\":3044:3049   */\n      dup3\n        /* \"#utility.yul\":3041:3118   */\n      sub\n        /* \"#utility.yul\":3038:3141   */\n      tag_160\n      jumpi\n        /* \"#utility.yul\":3121:3139   */\n      tag_161\n      tag_105\n      jump\t// in\n    tag_161:\n        /* \"#utility.yul\":3038:3141   */\n    tag_160:\n        /* \"#utility.yul\":3168:3169   */\n      0x01\n        /* \"#utility.yul\":3161:3166   */\n      dup3\n        /* \"#utility.yul\":3157:3170   */\n      add\n        /* \"#utility.yul\":3150:3170   */\n      swap1\n      pop\n        /* \"#utility.yul\":2943:3176   */\n      swap2\n      swap1\n      pop\n      jump\t// out\n        /* \"#utility.yul\":3182:3362   */\n    tag_49:\n        /* \"#utility.yul\":3230:3307   */\n      0x4e487b7100000000000000000000000000000000000000000000000000000000\n        /* \"#utility.yul\":3227:3228   */\n      0x00\n        /* \"#utility.yul\":3220:3308   */\n      mstore\n        /* \"#utility.yul\":3327:3331   */\n      0x41\n        /* \"#utility.yul\":3324:3325   */\n      0x04\n        /* \"#utility.yul\":3317:3332   */\n      mstore\n        /* \"#utility.yul\":3351:3355   */\n      0x24\n        /* \"#utility.yul\":3348:3349   */\n      0x00\n        /* \"#utility.yul\":3341:3356   */\n      revert\n        /* \"#utility.yul\":3368:3515   */\n    tag_106:\n        /* \"#utility.yul\":3469:3480   */\n      0x00\n        /* \"#utility.yul\":3506:3509   */\n      dup2\n        /* \"#utility.yul\":3491:3509   */\n      swap1\n      pop\n        /* \"#utility.yul\":3368:3515   */\n      swap3\n      swap2\n      pop\n      pop\n      jump\t// out\n        /* \"#utility.yul\":3521:3635   */\n    tag_107:\n      pop\n      jump\t// out\n        /* \"#utility.yul\":3641:4039   */\n    tag_108:\n        /* \"#utility.yul\":3800:3803   */\n      0x00\n        /* \"#utility.yul\":3821:3904   */\n      tag_166\n        /* \"#utility.yul\":3902:3903   */\n      0x00\n        /* \"#utility.yul\":3897:3900   */\n      dup4\n        /* \"#utility.yul\":3821:3904   */\n      tag_106\n      jump\t// in\n    tag_166:\n        /* \"#utility.yul\":3814:3904   */\n      swap2\n      pop\n        /* \"#utility.yul\":3913:4006   */\n      tag_167\n        /* \"#utility.yul\":4002:4005   */\n      dup3\n        /* \"#utility.yul\":3913:4006   */\n      tag_107\n      jump\t// in\n    tag_167:\n        /* \"#utility.yul\":4031:4032   */\n      0x00\n        /* \"#utility.yul\":4026:4029   */\n      dup3\n        /* \"#utility.yul\":4022:4033   */\n      add\n        /* \"#utility.yul\":4015:4033   */\n      swap1\n      pop\n        /* \"#utility.yul\":3641:4039   */\n      swap2\n      swap1\n      pop\n      jump\t// out\n        /* \"#utility.yul\":4045:4424   */\n    tag_54:\n        /* \"#utility.yul\":4229:4232   */\n      0x00\n        /* \"#utility.yul\":4251:4398   */\n      tag_169\n        /* \"#utility.yul\":4394:4397   */\n      dup3\n        /* \"#utility.yul\":4251:4398   */\n      tag_108\n      jump\t// in\n    tag_169:\n        /* \"#utility.yul\":4244:4398   */\n      swap2\n      pop\n        /* \"#utility.yul\":4415:4418   */\n      dup2\n        /* \"#utility.yul\":4408:4418   */\n      swap1\n      pop\n        /* \"#utility.yul\":4045:4424   */\n      swap2\n      swap1\n      pop\n      jump\t// out\n        /* \"#utility.yul\":4430:4599   */\n    tag_109:\n        /* \"#utility.yul\":4514:4525   */\n      0x00\n        /* \"#utility.yul\":4548:4554   */\n      dup3\n        /* \"#utility.yul\":4543:4546   */\n      dup3\n        /* \"#utility.yul\":4536:4555   */\n      mstore\n        /* \"#utility.yul\":4588:4592   */\n      0x20\n        /* \"#utility.yul\":4583:4586   */\n      dup3\n        /* \"#utility.yul\":4579:4593   */\n      add\n        /* \"#utility.yul\":4564:4593   */\n      swap1\n      pop\n        /* \"#utility.yul\":4430:4599   */\n      swap3\n      swap2\n      pop\n      pop\n      jump\t// out\n        /* \"#utility.yul\":4605:4763   */\n    tag_110:\n        /* \"#utility.yul\":4745:4755   */\n      0x4e6f742073656e74000000000000000000000000000000000000000000000000\n        /* \"#utility.yul\":4741:4742   */\n      0x00\n        /* \"#utility.yul\":4733:4739   */\n      dup3\n        /* \"#utility.yul\":4729:4743   */\n      add\n        /* \"#utility.yul\":4722:4756   */\n      mstore\n        /* \"#utility.yul\":4605:4763   */\n      pop\n      jump\t// out\n        /* \"#utility.yul\":4769:5134   */\n    tag_111:\n        /* \"#utility.yul\":4911:4914   */\n      0x00\n        /* \"#utility.yul\":4932:4998   */\n      tag_173\n        /* \"#utility.yul\":4996:4997   */\n      0x08\n        /* \"#utility.yul\":4991:4994   */\n      dup4\n        /* \"#utility.yul\":4932:4998   */\n      tag_109\n      jump\t// in\n    tag_173:\n        /* \"#utility.yul\":4925:4998   */\n      swap2\n      pop\n        /* \"#utility.yul\":5007:5100   */\n      tag_174\n        /* \"#utility.yul\":5096:5099   */\n      dup3\n        /* \"#utility.yul\":5007:5100   */\n      tag_110\n      jump\t// in\n    tag_174:\n        /* \"#utility.yul\":5125:5127   */\n      0x20\n        /* \"#utility.yul\":5120:5123   */\n      dup3\n        /* \"#utility.yul\":5116:5128   */\n      add\n        /* \"#utility.yul\":5109:5128   */\n      swap1\n      pop\n        /* \"#utility.yul\":4769:5134   */\n      swap2\n      swap1\n      pop\n      jump\t// out\n        /* \"#utility.yul\":5140:5559   */\n    tag_60:\n        /* \"#utility.yul\":5306:5310   */\n      0x00\n        /* \"#utility.yul\":5344:5346   */\n      0x20\n        /* \"#utility.yul\":5333:5342   */\n      dup3\n        /* \"#utility.yul\":5329:5347   */\n      add\n        /* \"#utility.yul\":5321:5347   */\n      swap1\n      pop\n        /* \"#utility.yul\":5393:5402   */\n      dup2\n        /* \"#utility.yul\":5387:5391   */\n      dup2\n        /* \"#utility.yul\":5383:5403   */\n      sub\n        /* \"#utility.yul\":5379:5380   */\n      0x00\n        /* \"#utility.yul\":5368:5377   */\n      dup4\n        /* \"#utility.yul\":5364:5381   */\n      add\n        /* \"#utility.yul\":5357:5404   */\n      mstore\n        /* \"#utility.yul\":5421:5552   */\n      tag_176\n        /* \"#utility.yul\":5547:5551   */\n      dup2\n        /* \"#utility.yul\":5421:5552   */\n      tag_111\n      jump\t// in\n    tag_176:\n        /* \"#utility.yul\":5413:5552   */\n      swap1\n      pop\n        /* \"#utility.yul\":5140:5559   */\n      swap2\n      swap1\n      pop\n      jump\t// out\n        /* \"#utility.yul\":5565:5733   */\n    tag_112:\n        /* \"#utility.yul\":5705:5725   */\n      0x4469646e27742073656e6420656e6f7567680000000000000000000000000000\n        /* \"#utility.yul\":5701:5702   */\n      0x00\n        /* \"#utility.yul\":5693:5699   */\n      dup3\n        /* \"#utility.yul\":5689:5703   */\n      add\n        /* \"#utility.yul\":5682:5726   */\n      mstore\n        /* \"#utility.yul\":5565:5733   */\n      pop\n      jump\t// out\n        /* \"#utility.yul\":5739:6105   */\n    tag_113:\n        /* \"#utility.yul\":5881:5884   */\n      0x00\n        /* \"#utility.yul\":5902:5969   */\n      tag_179\n        /* \"#utility.yul\":5966:5968   */\n      0x12\n        /* \"#utility.yul\":5961:5964   */\n      dup4\n        /* \"#utility.yul\":5902:5969   */\n      tag_109\n      jump\t// in\n    tag_179:\n        /* \"#utility.yul\":5895:5969   */\n      swap2\n      pop\n        /* \"#utility.yul\":5978:6071   */\n      tag_180\n        /* \"#utility.yul\":6067:6070   */\n      dup3\n        /* \"#utility.yul\":5978:6071   */\n      tag_112\n      jump\t// in\n    tag_180:\n        /* \"#utility.yul\":6096:6098   */\n      0x20\n        /* \"#utility.yul\":6091:6094   */\n      dup3\n        /* \"#utility.yul\":6087:6099   */\n      add\n        /* \"#utility.yul\":6080:6099   */\n      swap1\n      pop\n        /* \"#utility.yul\":5739:6105   */\n      swap2\n      swap1\n      pop\n      jump\t// out\n        /* \"#utility.yul\":6111:6530   */\n    tag_66:\n        /* \"#utility.yul\":6277:6281   */\n      0x00\n        /* \"#utility.yul\":6315:6317   */\n      0x20\n        /* \"#utility.yul\":6304:6313   */\n      dup3\n        /* \"#utility.yul\":6300:6318   */\n      add\n        /* \"#utility.yul\":6292:6318   */\n      swap1\n      pop\n        /* \"#utility.yul\":6364:6373   */\n      dup2\n        /* \"#utility.yul\":6358:6362   */\n      dup2\n        /* \"#utility.yul\":6354:6374   */\n      sub\n        /* \"#utility.yul\":6350:6351   */\n      0x00\n        /* \"#utility.yul\":6339:6348   */\n      dup4\n        /* \"#utility.yul\":6335:6352   */\n      add\n        /* \"#utility.yul\":6328:6375   */\n      mstore\n        /* \"#utility.yul\":6392:6523   */\n      tag_182\n        /* \"#utility.yul\":6518:6522   */\n      dup2\n        /* \"#utility.yul\":6392:6523   */\n      tag_113\n      jump\t// in\n    tag_182:\n        /* \"#utility.yul\":6384:6523   */\n      swap1\n      pop\n        /* \"#utility.yul\":6111:6530   */\n      swap2\n      swap1\n      pop\n      jump\t// out\n        /* \"#utility.yul\":6536:6727   */\n    tag_69:\n        /* \"#utility.yul\":6576:6579   */\n      0x00\n        /* \"#utility.yul\":6595:6615   */\n      tag_184\n        /* \"#utility.yul\":6613:6614   */\n      dup3\n        /* \"#utility.yul\":6595:6615   */\n      tag_93\n      jump\t// in\n    tag_184:\n        /* \"#utility.yul\":6590:6615   */\n      swap2\n      pop\n        /* \"#utility.yul\":6629:6649   */\n      tag_185\n        /* \"#utility.yul\":6647:6648   */\n      dup4\n        /* \"#utility.yul\":6629:6649   */\n      tag_93\n      jump\t// in\n    tag_185:\n        /* \"#utility.yul\":6624:6649   */\n      swap3\n      pop\n        /* \"#utility.yul\":6672:6673   */\n      dup3\n        /* \"#utility.yul\":6669:6670   */\n      dup3\n        /* \"#utility.yul\":6665:6674   */\n      add\n        /* \"#utility.yul\":6658:6674   */\n      swap1\n      pop\n        /* \"#utility.yul\":6693:6696   */\n      dup1\n        /* \"#utility.yul\":6690:6691   */\n      dup3\n        /* \"#utility.yul\":6687:6697   */\n      gt\n        /* \"#utility.yul\":6684:6720   */\n      iszero\n      tag_186\n      jumpi\n        /* \"#utility.yul\":6700:6718   */\n      tag_187\n      tag_105\n      jump\t// in\n    tag_187:\n        /* \"#utility.yul\":6684:6720   */\n    tag_186:\n        /* \"#utility.yul\":6536:6727   */\n      swap3\n      swap2\n      pop\n      pop\n      jump\t// out\n        /* \"#utility.yul\":6733:7143   */\n    tag_76:\n        /* \"#utility.yul\":6773:6780   */\n      0x00\n        /* \"#utility.yul\":6796:6816   */\n      tag_189\n        /* \"#utility.yul\":6814:6815   */\n      dup3\n        /* \"#utility.yul\":6796:6816   */\n      tag_93\n      jump\t// in\n    tag_189:\n        /* \"#utility.yul\":6791:6816   */\n      swap2\n      pop\n        /* \"#utility.yul\":6830:6850   */\n      tag_190\n        /* \"#utility.yul\":6848:6849   */\n      dup4\n        /* \"#utility.yul\":6830:6850   */\n      tag_93\n      jump\t// in\n    tag_190:\n        /* \"#utility.yul\":6825:6850   */\n      swap3\n      pop\n        /* \"#utility.yul\":6885:6886   */\n      dup3\n        /* \"#utility.yul\":6882:6883   */\n      dup3\n        /* \"#utility.yul\":6878:6887   */\n      mul\n        /* \"#utility.yul\":6907:6937   */\n      tag_191\n        /* \"#utility.yul\":6925:6936   */\n      dup2\n        /* \"#utility.yul\":6907:6937   */\n      tag_93\n      jump\t// in\n    tag_191:\n        /* \"#utility.yul\":6896:6937   */\n      swap2\n      pop\n        /* \"#utility.yul\":7086:7087   */\n      dup3\n        /* \"#utility.yul\":7077:7084   */\n      dup3\n        /* \"#utility.yul\":7073:7088   */\n      div\n        /* \"#utility.yul\":7070:7071   */\n      dup5\n        /* \"#utility.yul\":7067:7089   */\n      eq\n        /* \"#utility.yul\":7047:7048   */\n      dup4\n        /* \"#utility.yul\":7040:7049   */\n      iszero\n        /* \"#utility.yul\":7020:7103   */\n      or\n        /* \"#utility.yul\":6997:7136   */\n      tag_192\n      jumpi\n        /* \"#utility.yul\":7116:7134   */\n      tag_193\n      tag_105\n      jump\t// in\n    tag_193:\n        /* \"#utility.yul\":6997:7136   */\n    tag_192:\n        /* \"#utility.yul\":6781:7143   */\n      pop\n        /* \"#utility.yul\":6733:7143   */\n      swap3\n      swap2\n      pop\n      pop\n      jump\t// out\n        /* \"#utility.yul\":7149:7329   */\n    tag_114:\n        /* \"#utility.yul\":7197:7274   */\n      0x4e487b7100000000000000000000000000000000000000000000000000000000\n        /* \"#utility.yul\":7194:7195   */\n      0x00\n        /* \"#utility.yul\":7187:7275   */\n      mstore\n        /* \"#utility.yul\":7294:7298   */\n      0x12\n        /* \"#utility.yul\":7291:7292   */\n      0x04\n        /* \"#utility.yul\":7284:7299   */\n      mstore\n        /* \"#utility.yul\":7318:7322   */\n      0x24\n        /* \"#utility.yul\":7315:7316   */\n      0x00\n        /* \"#utility.yul\":7308:7323   */\n      revert\n        /* \"#utility.yul\":7335:7520   */\n    tag_78:\n        /* \"#utility.yul\":7375:7376   */\n      0x00\n        /* \"#utility.yul\":7392:7412   */\n      tag_196\n        /* \"#utility.yul\":7410:7411   */\n      dup3\n        /* \"#utility.yul\":7392:7412   */\n      tag_93\n      jump\t// in\n    tag_196:\n        /* \"#utility.yul\":7387:7412   */\n      swap2\n      pop\n        /* \"#utility.yul\":7426:7446   */\n      tag_197\n        /* \"#utility.yul\":7444:7445   */\n      dup4\n        /* \"#utility.yul\":7426:7446   */\n      tag_93\n      jump\t// in\n    tag_197:\n        /* \"#utility.yul\":7421:7446   */\n      swap3\n      pop\n        /* \"#utility.yul\":7465:7466   */\n      dup3\n        /* \"#utility.yul\":7455:7490   */\n      tag_198\n      jumpi\n        /* \"#utility.yul\":7470:7488   */\n      tag_199\n      tag_114\n      jump\t// in\n    tag_199:\n        /* \"#utility.yul\":7455:7490   */\n    tag_198:\n        /* \"#utility.yul\":7512:7513   */\n      dup3\n        /* \"#utility.yul\":7509:7510   */\n      dup3\n        /* \"#utility.yul\":7505:7514   */\n      div\n        /* \"#utility.yul\":7500:7514   */\n      swap1\n      pop\n        /* \"#utility.yul\":7335:7520   */\n      swap3\n      swap2\n      pop\n      pop\n      jump\t// out\n        /* \"#utility.yul\":7526:7631   */\n    tag_115:\n        /* \"#utility.yul\":7562:7569   */\n      0x00\n        /* \"#utility.yul\":7602:7624   */\n      0xffffffffffffffffffff\n        /* \"#utility.yul\":7595:7600   */\n      dup3\n        /* \"#utility.yul\":7591:7625   */\n      and\n        /* \"#utility.yul\":7580:7625   */\n      swap1\n      pop\n        /* \"#utility.yul\":7526:7631   */\n      swap2\n      swap1\n      pop\n      jump\t// out\n        /* \"#utility.yul\":7637:7757   */\n    tag_116:\n        /* \"#utility.yul\":7709:7732   */\n      tag_202\n        /* \"#utility.yul\":7726:7731   */\n      dup2\n        /* \"#utility.yul\":7709:7732   */\n      tag_115\n      jump\t// in\n    tag_202:\n        /* \"#utility.yul\":7702:7707   */\n      dup2\n        /* \"#utility.yul\":7699:7733   */\n      eq\n        /* \"#utility.yul\":7689:7751   */\n      tag_203\n      jumpi\n        /* \"#utility.yul\":7747:7748   */\n      0x00\n        /* \"#utility.yul\":7744:7745   */\n      dup1\n        /* \"#utility.yul\":7737:7749   */\n      revert\n        /* \"#utility.yul\":7689:7751   */\n    tag_203:\n        /* \"#utility.yul\":7637:7757   */\n      pop\n      jump\t// out\n        /* \"#utility.yul\":7763:7904   */\n    tag_117:\n        /* \"#utility.yul\":7819:7824   */\n      0x00\n        /* \"#utility.yul\":7850:7856   */\n      dup2\n        /* \"#utility.yul\":7844:7857   */\n      mload\n        /* \"#utility.yul\":7835:7857   */\n      swap1\n      pop\n        /* \"#utility.yul\":7866:7898   */\n      tag_205\n        /* \"#utility.yul\":7892:7897   */\n      dup2\n        /* \"#utility.yul\":7866:7898   */\n      tag_116\n      jump\t// in\n    tag_205:\n        /* \"#utility.yul\":7763:7904   */\n      swap3\n      swap2\n      pop\n      pop\n      jump\t// out\n        /* \"#utility.yul\":7910:7986   */\n    tag_118:\n        /* \"#utility.yul\":7946:7953   */\n      0x00\n        /* \"#utility.yul\":7975:7980   */\n      dup2\n        /* \"#utility.yul\":7964:7980   */\n      swap1\n      pop\n        /* \"#utility.yul\":7910:7986   */\n      swap2\n      swap1\n      pop\n      jump\t// out\n        /* \"#utility.yul\":7992:8112   */\n    tag_119:\n        /* \"#utility.yul\":8064:8087   */\n      tag_208\n        /* \"#utility.yul\":8081:8086   */\n      dup2\n        /* \"#utility.yul\":8064:8087   */\n      tag_118\n      jump\t// in\n    tag_208:\n        /* \"#utility.yul\":8057:8062   */\n      dup2\n        /* \"#utility.yul\":8054:8088   */\n      eq\n        /* \"#utility.yul\":8044:8106   */\n      tag_209\n      jumpi\n        /* \"#utility.yul\":8102:8103   */\n      0x00\n        /* \"#utility.yul\":8099:8100   */\n      dup1\n        /* \"#utility.yul\":8092:8104   */\n      revert\n        /* \"#utility.yul\":8044:8106   */\n    tag_209:\n        /* \"#utility.yul\":7992:8112   */\n      pop\n      jump\t// out\n        /* \"#utility.yul\":8118:8259   */\n    tag_120:\n        /* \"#utility.yul\":8174:8179   */\n      0x00\n        /* \"#utility.yul\":8205:8211   */\n      dup2\n        /* \"#utility.yul\":8199:8212   */\n      mload\n        /* \"#utility.yul\":8190:8212   */\n      swap1\n      pop\n        /* \"#utility.yul\":8221:8253   */\n      tag_211\n        /* \"#utility.yul\":8247:8252   */\n      dup2\n        /* \"#utility.yul\":8221:8253   */\n      tag_119\n      jump\t// in\n    tag_211:\n        /* \"#utility.yul\":8118:8259   */\n      swap3\n      swap2\n      pop\n      pop\n      jump\t// out\n        /* \"#utility.yul\":8265:8408   */\n    tag_121:\n        /* \"#utility.yul\":8322:8327   */\n      0x00\n        /* \"#utility.yul\":8353:8359   */\n      dup2\n        /* \"#utility.yul\":8347:8360   */\n      mload\n        /* \"#utility.yul\":8338:8360   */\n      swap1\n      pop\n        /* \"#utility.yul\":8369:8402   */\n      tag_213\n        /* \"#utility.yul\":8396:8401   */\n      dup2\n        /* \"#utility.yul\":8369:8402   */\n      tag_103\n      jump\t// in\n    tag_213:\n        /* \"#utility.yul\":8265:8408   */\n      swap3\n      swap2\n      pop\n      pop\n      jump\t// out\n        /* \"#utility.yul\":8414:9385   */\n    tag_83:\n        /* \"#utility.yul\":8517:8523   */\n      0x00\n        /* \"#utility.yul\":8525:8531   */\n      dup1\n        /* \"#utility.yul\":8533:8539   */\n      0x00\n        /* \"#utility.yul\":8541:8547   */\n      dup1\n        /* \"#utility.yul\":8549:8555   */\n      0x00\n        /* \"#utility.yul\":8598:8601   */\n      0xa0\n        /* \"#utility.yul\":8586:8595   */\n      dup7\n        /* \"#utility.yul\":8577:8584   */\n      dup9\n        /* \"#utility.yul\":8573:8596   */\n      sub\n        /* \"#utility.yul\":8569:8602   */\n      slt\n        /* \"#utility.yul\":8566:8686   */\n      iszero\n      tag_215\n      jumpi\n        /* \"#utility.yul\":8605:8684   */\n      tag_216\n      tag_96\n      jump\t// in\n    tag_216:\n        /* \"#utility.yul\":8566:8686   */\n    tag_215:\n        /* \"#utility.yul\":8725:8726   */\n      0x00\n        /* \"#utility.yul\":8750:8813   */\n      tag_217\n        /* \"#utility.yul\":8805:8812   */\n      dup9\n        /* \"#utility.yul\":8796:8802   */\n      dup3\n        /* \"#utility.yul\":8785:8794   */\n      dup10\n        /* \"#utility.yul\":8781:8803   */\n      add\n        /* \"#utility.yul\":8750:8813   */\n      tag_117\n      jump\t// in\n    tag_217:\n        /* \"#utility.yul\":8740:8813   */\n      swap6\n      pop\n        /* \"#utility.yul\":8696:8823   */\n      pop\n        /* \"#utility.yul\":8862:8864   */\n      0x20\n        /* \"#utility.yul\":8888:8951   */\n      tag_218\n        /* \"#utility.yul\":8943:8950   */\n      dup9\n        /* \"#utility.yul\":8934:8940   */\n      dup3\n        /* \"#utility.yul\":8923:8932   */\n      dup10\n        /* \"#utility.yul\":8919:8941   */\n      add\n        /* \"#utility.yul\":8888:8951   */\n      tag_120\n      jump\t// in\n    tag_218:\n        /* \"#utility.yul\":8878:8951   */\n      swap5\n      pop\n        /* \"#utility.yul\":8833:8961   */\n      pop\n        /* \"#utility.yul\":9000:9002   */\n      0x40\n        /* \"#utility.yul\":9026:9090   */\n      tag_219\n        /* \"#utility.yul\":9082:9089   */\n      dup9\n        /* \"#utility.yul\":9073:9079   */\n      dup3\n        /* \"#utility.yul\":9062:9071   */\n      dup10\n        /* \"#utility.yul\":9058:9080   */\n      add\n        /* \"#utility.yul\":9026:9090   */\n      tag_121\n      jump\t// in\n    tag_219:\n        /* \"#utility.yul\":9016:9090   */\n      swap4\n      pop\n        /* \"#utility.yul\":8971:9100   */\n      pop\n        /* \"#utility.yul\":9139:9141   */\n      0x60\n        /* \"#utility.yul\":9165:9229   */\n      tag_220\n        /* \"#utility.yul\":9221:9228   */\n      dup9\n        /* \"#utility.yul\":9212:9218   */\n      dup3\n        /* \"#utility.yul\":9201:9210   */\n      dup10\n        /* \"#utility.yul\":9197:9219   */\n      add\n        /* \"#utility.yul\":9165:9229   */\n      tag_121\n      jump\t// in\n    tag_220:\n        /* \"#utility.yul\":9155:9229   */\n      swap3\n      pop\n        /* \"#utility.yul\":9110:9239   */\n      pop\n        /* \"#utility.yul\":9278:9281   */\n      0x80\n        /* \"#utility.yul\":9305:9368   */\n      tag_221\n        /* \"#utility.yul\":9360:9367   */\n      dup9\n        /* \"#utility.yul\":9351:9357   */\n      dup3\n        /* \"#utility.yul\":9340:9349   */\n      dup10\n        /* \"#utility.yul\":9336:9358   */\n      add\n        /* \"#utility.yul\":9305:9368   */\n      tag_117\n      jump\t// in\n    tag_221:\n        /* \"#utility.yul\":9295:9368   */\n      swap2\n      pop\n        /* \"#utility.yul\":9249:9378   */\n      pop\n        /* \"#utility.yul\":8414:9385   */\n      swap3\n      swap6\n      pop\n      swap3\n      swap6\n      swap1\n      swap4\n      pop\n      jump\t// out\n        /* \"#utility.yul\":9391:9947   */\n    tag_85:\n        /* \"#utility.yul\":9430:9437   */\n      0x00\n        /* \"#utility.yul\":9453:9472   */\n      tag_223\n        /* \"#utility.yul\":9470:9471   */\n      dup3\n        /* \"#utility.yul\":9453:9472   */\n      tag_118\n      jump\t// in\n    tag_223:\n        /* \"#utility.yul\":9448:9472   */\n      swap2\n      pop\n        /* \"#utility.yul\":9486:9505   */\n      tag_224\n        /* \"#utility.yul\":9503:9504   */\n      dup4\n        /* \"#utility.yul\":9486:9505   */\n      tag_118\n      jump\t// in\n    tag_224:\n        /* \"#utility.yul\":9481:9505   */\n      swap3\n      pop\n        /* \"#utility.yul\":9540:9541   */\n      dup3\n        /* \"#utility.yul\":9537:9538   */\n      dup3\n        /* \"#utility.yul\":9533:9542   */\n      mul\n        /* \"#utility.yul\":9562:9591   */\n      tag_225\n        /* \"#utility.yul\":9579:9590   */\n      dup2\n        /* \"#utility.yul\":9562:9591   */\n      tag_118\n      jump\t// in\n    tag_225:\n        /* \"#utility.yul\":9551:9591   */\n      swap2\n      pop\n        /* \"#utility.yul\":9649:9715   */\n      0x8000000000000000000000000000000000000000000000000000000000000000\n        /* \"#utility.yul\":9646:9647   */\n      dup5\n        /* \"#utility.yul\":9643:9716   */\n      eq\n        /* \"#utility.yul\":9639:9640   */\n      0x00\n        /* \"#utility.yul\":9636:9637   */\n      dup5\n        /* \"#utility.yul\":9632:9641   */\n      slt\n        /* \"#utility.yul\":9628:9717   */\n      and\n        /* \"#utility.yul\":9625:9740   */\n      iszero\n      tag_226\n      jumpi\n        /* \"#utility.yul\":9720:9738   */\n      tag_227\n      tag_105\n      jump\t// in\n    tag_227:\n        /* \"#utility.yul\":9625:9740   */\n    tag_226:\n        /* \"#utility.yul\":9890:9891   */\n      dup3\n        /* \"#utility.yul\":9881:9888   */\n      dup3\n        /* \"#utility.yul\":9876:9892   */\n      sdiv\n        /* \"#utility.yul\":9873:9874   */\n      dup5\n        /* \"#utility.yul\":9870:9893   */\n      eq\n        /* \"#utility.yul\":9850:9851   */\n      dup4\n        /* \"#utility.yul\":9843:9852   */\n      iszero\n        /* \"#utility.yul\":9823:9907   */\n      or\n        /* \"#utility.yul\":9800:9940   */\n      tag_228\n      jumpi\n        /* \"#utility.yul\":9920:9938   */\n      tag_229\n      tag_105\n      jump\t// in\n    tag_229:\n        /* \"#utility.yul\":9800:9940   */\n    tag_228:\n        /* \"#utility.yul\":9438:9947   */\n      pop\n        /* \"#utility.yul\":9391:9947   */\n      swap3\n      swap2\n      pop\n      pop\n      jump\t// out\n\n    auxdata: 0xa2646970667358221220681d5ce050a8e2887e3ebcf117bc805b7cf354977a08aaa20cf4a5bdf939ccfc64736f6c63430008120033\n}\n",
				"bytecode": {
					"linkReferences": {},
					"object": "60a060405234801561001057600080fd5b503373ffffffffffffffffffffffffffffffffffffffff1660808173ffffffffffffffffffffffffffffffffffffffff1681525050608051610c786100676000396000818161015a01526103b20152610c786000f3fe6080604052600436106100555760003560e01c8063213dbea21461005a5780633ccfd60b1461008557806355a3b2c11461009c5780638da5cb5b146100d9578063b60d428814610104578063dc0d3dff1461010e575b600080fd5b34801561006657600080fd5b5061006f61014b565b60405161007c91906106ba565b60405180910390f35b34801561009157600080fd5b5061009a610158565b005b3480156100a857600080fd5b506100c360048036038101906100be9190610738565b610398565b6040516100d091906106ba565b60405180910390f35b3480156100e557600080fd5b506100ee6103b0565b6040516100fb9190610774565b60405180910390f35b61010c6103d4565b005b34801561011a57600080fd5b50610135600480360381019061013091906107bb565b6104e3565b6040516101429190610774565b60405180910390f35b6802b5e3af16b188000081565b7f000000000000000000000000000000000000000000000000000000000000000073ffffffffffffffffffffffffffffffffffffffff163373ffffffffffffffffffffffffffffffffffffffff16146101dd576040517f30cd747100000000000000000000000000000000000000000000000000000000815260040160405180910390fd5b60005b600080549050811015610288576000808281548110610202576102016107e8565b5b9060005260206000200160009054906101000a900473ffffffffffffffffffffffffffffffffffffffff1690506000600160008373ffffffffffffffffffffffffffffffffffffffff1673ffffffffffffffffffffffffffffffffffffffff1681526020019081526020016000208190555050808061028090610846565b9150506101e0565b50600067ffffffffffffffff8111156102a4576102a361088e565b5b6040519080825280602002602001820160405280156102d25781602001602082028036833780820191505090505b50600090805190602001906102e89291906105fa565b5060003373ffffffffffffffffffffffffffffffffffffffff164760405161030f906108ee565b60006040518083038185875af1925050503d806000811461034c576040519150601f19603f3d011682016040523d82523d6000602084013e610351565b606091505b5050905080610395576040517f08c379a000000000000000000000000000000000000000000000000000000000815260040161038c90610960565b60405180910390fd5b50565b60016020528060005260406000206000915090505481565b7f000000000000000000000000000000000000000000000000000000000000000081565b6802b5e3af16b18800006103e734610522565b1015610428576040517f08c379a000000000000000000000000000000000000000000000000000000000815260040161041f906109cc565b60405180910390fd5b6000339080600181540180825580915050600190039060005260206000200160009091909190916101000a81548173ffffffffffffffffffffffffffffffffffffffff021916908373ffffffffffffffffffffffffffffffffffffffff16021790555034600160003373ffffffffffffffffffffffffffffffffffffffff1673ffffffffffffffffffffffffffffffffffffffff16815260200190815260200160002060008282546104da91906109ec565b92505081905550565b600081815481106104f357600080fd5b906000526020600020016000915054906101000a900473ffffffffffffffffffffffffffffffffffffffff1681565b6000670de0b6b3a7640000610535610551565b836105409190610a20565b61054a9190610a91565b9050919050565b60008073694aa1769357215de4fac081bf1f309adc325306905060008173ffffffffffffffffffffffffffffffffffffffff1663feaf968c6040518163ffffffff1660e01b815260040160a060405180830381865afa1580156105b8573d6000803e3d6000fd5b505050506040513d601f19601f820116820180604052508101906105dc9190610b4f565b5050509150506402540be400816105f39190610bca565b9250505090565b828054828255906000526020600020908101928215610673579160200282015b828111156106725782518260006101000a81548173ffffffffffffffffffffffffffffffffffffffff021916908373ffffffffffffffffffffffffffffffffffffffff1602179055509160200191906001019061061a565b5b5090506106809190610684565b5090565b5b8082111561069d576000816000905550600101610685565b5090565b6000819050919050565b6106b4816106a1565b82525050565b60006020820190506106cf60008301846106ab565b92915050565b600080fd5b600073ffffffffffffffffffffffffffffffffffffffff82169050919050565b6000610705826106da565b9050919050565b610715816106fa565b811461072057600080fd5b50565b6000813590506107328161070c565b92915050565b60006020828403121561074e5761074d6106d5565b5b600061075c84828501610723565b91505092915050565b61076e816106fa565b82525050565b60006020820190506107896000830184610765565b92915050565b610798816106a1565b81146107a357600080fd5b50565b6000813590506107b58161078f565b92915050565b6000602082840312156107d1576107d06106d5565b5b60006107df848285016107a6565b91505092915050565b7f4e487b7100000000000000000000000000000000000000000000000000000000600052603260045260246000fd5b7f4e487b7100000000000000000000000000000000000000000000000000000000600052601160045260246000fd5b6000610851826106a1565b91507fffffffffffffffffffffffffffffffffffffffffffffffffffffffffffffffff820361088357610882610817565b5b600182019050919050565b7f4e487b7100000000000000000000000000000000000000000000000000000000600052604160045260246000fd5b600081905092915050565b50565b60006108d86000836108bd565b91506108e3826108c8565b600082019050919050565b60006108f9826108cb565b9150819050919050565b600082825260208201905092915050565b7f4e6f742073656e74000000000000000000000000000000000000000000000000600082015250565b600061094a600883610903565b915061095582610914565b602082019050919050565b600060208201905081810360008301526109798161093d565b9050919050565b7f4469646e27742073656e6420656e6f7567680000000000000000000000000000600082015250565b60006109b6601283610903565b91506109c182610980565b602082019050919050565b600060208201905081810360008301526109e5816109a9565b9050919050565b60006109f7826106a1565b9150610a02836106a1565b9250828201905080821115610a1a57610a19610817565b5b92915050565b6000610a2b826106a1565b9150610a36836106a1565b9250828202610a44816106a1565b91508282048414831517610a5b57610a5a610817565b5b5092915050565b7f4e487b7100000000000000000000000000000000000000000000000000000000600052601260045260246000fd5b6000610a9c826106a1565b9150610aa7836106a1565b925082610ab757610ab6610a62565b5b828204905092915050565b600069ffffffffffffffffffff82169050919050565b610ae181610ac2565b8114610aec57600080fd5b50565b600081519050610afe81610ad8565b92915050565b6000819050919050565b610b1781610b04565b8114610b2257600080fd5b50565b600081519050610b3481610b0e565b92915050565b600081519050610b498161078f565b92915050565b600080600080600060a08688031215610b6b57610b6a6106d5565b5b6000610b7988828901610aef565b9550506020610b8a88828901610b25565b9450506040610b9b88828901610b3a565b9350506060610bac88828901610b3a565b9250506080610bbd88828901610aef565b9150509295509295909350565b6000610bd582610b04565b9150610be083610b04565b9250828202610bee81610b04565b91507f80000000000000000000000000000000000000000000000000000000000000008414600084121615610c2657610c25610817565b5b8282058414831517610c3b57610c3a610817565b5b509291505056fea2646970667358221220681d5ce050a8e2887e3ebcf117bc805b7cf354977a08aaa20cf4a5bdf939ccfc64736f6c63430008120033",
					"opcodes": "PUSH1 0xA0 PUSH1 0x40 MSTORE CALLVALUE DUP1 ISZERO PUSH2 0x10 JUMPI PUSH1 0x0 DUP1 REVERT JUMPDEST POP CALLER PUSH20 0xFFFFFFFFFFFFFFFFFFFFFFFFFFFFFFFFFFFFFFFF AND PUSH1 0x80 DUP2 PUSH20 0xFFFFFFFFFFFFFFFFFFFFFFFFFFFFFFFFFFFFFFFF AND DUP2 MSTORE POP POP PUSH1 0x80 MLOAD PUSH2 0xC78 PUSH2 0x67 PUSH1 0x0 CODECOPY PUSH1 0x0 DUP2 DUP2 PUSH2 0x15A ADD MSTORE PUSH2 0x3B2 ADD MSTORE PUSH2 0xC78 PUSH1 0x0 RETURN INVALID PUSH1 0x80 PUSH1 0x40 MSTORE PUSH1 0x4 CALLDATASIZE LT PUSH2 0x55 JUMPI PUSH1 0x0 CALLDATALOAD PUSH1 0xE0 SHR DUP1 PUSH4 0x213DBEA2 EQ PUSH2 0x5A JUMPI DUP1 PUSH4 0x3CCFD60B EQ PUSH2 0x85 JUMPI DUP1 PUSH4 0x55A3B2C1 EQ PUSH2 0x9C JUMPI DUP1 PUSH4 0x8DA5CB5B EQ PUSH2 0xD9 JUMPI DUP1 PUSH4 0xB60D4288 EQ PUSH2 0x104 JUMPI DUP1 PUSH4 0xDC0D3DFF EQ PUSH2 0x10E JUMPI JUMPDEST PUSH1 0x0 DUP1 REVERT JUMPDEST CALLVALUE DUP1 ISZERO PUSH2 0x66 JUMPI PUSH1 0x0 DUP1 REVERT JUMPDEST POP PUSH2 0x6F PUSH2 0x14B JUMP JUMPDEST PUSH1 0x40 MLOAD PUSH2 0x7C SWAP2 SWAP1 PUSH2 0x6BA JUMP JUMPDEST PUSH1 0x40 MLOAD DUP1 SWAP2 SUB SWAP1 RETURN JUMPDEST CALLVALUE DUP1 ISZERO PUSH2 0x91 JUMPI PUSH1 0x0 DUP1 REVERT JUMPDEST POP PUSH2 0x9A PUSH2 0x158 JUMP JUMPDEST STOP JUMPDEST CALLVALUE DUP1 ISZERO PUSH2 0xA8 JUMPI PUSH1 0x0 DUP1 REVERT JUMPDEST POP PUSH2 0xC3 PUSH1 0x4 DUP1 CALLDATASIZE SUB DUP2 ADD SWAP1 PUSH2 0xBE SWAP2 SWAP1 PUSH2 0x738 JUMP JUMPDEST PUSH2 0x398 JUMP JUMPDEST PUSH1 0x40 MLOAD PUSH2 0xD0 SWAP2 SWAP1 PUSH2 0x6BA JUMP JUMPDEST PUSH1 0x40 MLOAD DUP1 SWAP2 SUB SWAP1 RETURN JUMPDEST CALLVALUE DUP1 ISZERO PUSH2 0xE5 JUMPI PUSH1 0x0 DUP1 REVERT JUMPDEST POP PUSH2 0xEE PUSH2 0x3B0 JUMP JUMPDEST PUSH1 0x40 MLOAD PUSH2 0xFB SWAP2 SWAP1 PUSH2 0x774 JUMP JUMPDEST PUSH1 0x40 MLOAD DUP1 SWAP2 SUB SWAP1 RETURN JUMPDEST PUSH2 0x10C PUSH2 0x3D4 JUMP JUMPDEST STOP JUMPDEST CALLVALUE DUP1 ISZERO PUSH2 0x11A JUMPI PUSH1 0x0 DUP1 REVERT JUMPDEST POP PUSH2 0x135 PUSH1 0x4 DUP1 CALLDATASIZE SUB DUP2 ADD SWAP1 PUSH2 0x130 SWAP2 SWAP1 PUSH2 0x7BB JUMP JUMPDEST PUSH2 0x4E3 JUMP JUMPDEST PUSH1 0x40 MLOAD PUSH2 0x142 SWAP2 SWAP1 PUSH2 0x774 JUMP JUMPDEST PUSH1 0x40 MLOAD DUP1 SWAP2 SUB SWAP1 RETURN JUMPDEST PUSH9 0x2B5E3AF16B1880000 DUP2 JUMP JUMPDEST PUSH32 0x0 PUSH20 0xFFFFFFFFFFFFFFFFFFFFFFFFFFFFFFFFFFFFFFFF AND CALLER PUSH20 0xFFFFFFFFFFFFFFFFFFFFFFFFFFFFFFFFFFFFFFFF AND EQ PUSH2 0x1DD JUMPI PUSH1 0x40 MLOAD PUSH32 0x30CD747100000000000000000000000000000000000000000000000000000000 DUP2 MSTORE PUSH1 0x4 ADD PUSH1 0x40 MLOAD DUP1 SWAP2 SUB SWAP1 REVERT JUMPDEST PUSH1 0x0 JUMPDEST PUSH1 0x0 DUP1 SLOAD SWAP1 POP DUP2 LT ISZERO PUSH2 0x288 JUMPI PUSH1 0x0 DUP1 DUP3 DUP2 SLOAD DUP2 LT PUSH2 0x202 JUMPI PUSH2 0x201 PUSH2 0x7E8 JUMP JUMPDEST JUMPDEST SWAP1 PUSH1 0x0 MSTORE PUSH1 0x20 PUSH1 0x0 KECCAK256 ADD PUSH1 0x0 SWAP1 SLOAD SWAP1 PUSH2 0x100 EXP SWAP1 DIV PUSH20 0xFFFFFFFFFFFFFFFFFFFFFFFFFFFFFFFFFFFFFFFF AND SWAP1 POP PUSH1 0x0 PUSH1 0x1 PUSH1 0x0 DUP4 PUSH20 0xFFFFFFFFFFFFFFFFFFFFFFFFFFFFFFFFFFFFFFFF AND PUSH20 0xFFFFFFFFFFFFFFFFFFFFFFFFFFFFFFFFFFFFFFFF AND DUP2 MSTORE PUSH1 0x20 ADD SWAP1 DUP2 MSTORE PUSH1 0x20 ADD PUSH1 0x0 KECCAK256 DUP2 SWAP1 SSTORE POP POP DUP1 DUP1 PUSH2 0x280 SWAP1 PUSH2 0x846 JUMP JUMPDEST SWAP2 POP POP PUSH2 0x1E0 JUMP JUMPDEST POP PUSH1 0x0 PUSH8 0xFFFFFFFFFFFFFFFF DUP2 GT ISZERO PUSH2 0x2A4 JUMPI PUSH2 0x2A3 PUSH2 0x88E JUMP JUMPDEST JUMPDEST PUSH1 0x40 MLOAD SWAP1 DUP1 DUP3 MSTORE DUP1 PUSH1 0x20 MUL PUSH1 0x20 ADD DUP3 ADD PUSH1 0x40 MSTORE DUP1 ISZERO PUSH2 0x2D2 JUMPI DUP2 PUSH1 0x20 ADD PUSH1 0x20 DUP3 MUL DUP1 CALLDATASIZE DUP4 CALLDATACOPY DUP1 DUP3 ADD SWAP2 POP POP SWAP1 POP JUMPDEST POP PUSH1 0x0 SWAP1 DUP1 MLOAD SWAP1 PUSH1 0x20 ADD SWAP1 PUSH2 0x2E8 SWAP3 SWAP2 SWAP1 PUSH2 0x5FA JUMP JUMPDEST POP PUSH1 0x0 CALLER PUSH20 0xFFFFFFFFFFFFFFFFFFFFFFFFFFFFFFFFFFFFFFFF AND SELFBALANCE PUSH1 0x40 MLOAD PUSH2 0x30F SWAP1 PUSH2 0x8EE JUMP JUMPDEST PUSH1 0x0 PUSH1 0x40 MLOAD DUP1 DUP4 SUB DUP2 DUP6 DUP8 GAS CALL SWAP3 POP POP POP RETURNDATASIZE DUP1 PUSH1 0x0 DUP2 EQ PUSH2 0x34C JUMPI PUSH1 0x40 MLOAD SWAP2 POP PUSH1 0x1F NOT PUSH1 0x3F RETURNDATASIZE ADD AND DUP3 ADD PUSH1 0x40 MSTORE RETURNDATASIZE DUP3 MSTORE RETURNDATASIZE PUSH1 0x0 PUSH1 0x20 DUP5 ADD RETURNDATACOPY PUSH2 0x351 JUMP JUMPDEST PUSH1 0x60 SWAP2 POP JUMPDEST POP POP SWAP1 POP DUP1 PUSH2 0x395 JUMPI PUSH1 0x40 MLOAD PUSH32 0x8C379A000000000000000000000000000000000000000000000000000000000 DUP2 MSTORE PUSH1 0x4 ADD PUSH2 0x38C SWAP1 PUSH2 0x960 JUMP JUMPDEST PUSH1 0x40 MLOAD DUP1 SWAP2 SUB SWAP1 REVERT JUMPDEST POP JUMP JUMPDEST PUSH1 0x1 PUSH1 0x20 MSTORE DUP1 PUSH1 0x0 MSTORE PUSH1 0x40 PUSH1 0x0 KECCAK256 PUSH1 0x0 SWAP2 POP SWAP1 POP SLOAD DUP2 JUMP JUMPDEST PUSH32 0x0 DUP2 JUMP JUMPDEST PUSH9 0x2B5E3AF16B1880000 PUSH2 0x3E7 CALLVALUE PUSH2 0x522 JUMP JUMPDEST LT ISZERO PUSH2 0x428 JUMPI PUSH1 0x40 MLOAD PUSH32 0x8C379A000000000000000000000000000000000000000000000000000000000 DUP2 MSTORE PUSH1 0x4 ADD PUSH2 0x41F SWAP1 PUSH2 0x9CC JUMP JUMPDEST PUSH1 0x40 MLOAD DUP1 SWAP2 SUB SWAP1 REVERT JUMPDEST PUSH1 0x0 CALLER SWAP1 DUP1 PUSH1 0x1 DUP2 SLOAD ADD DUP1 DUP3 SSTORE DUP1 SWAP2 POP POP PUSH1 0x1 SWAP1 SUB SWAP1 PUSH1 0x0 MSTORE PUSH1 0x20 PUSH1 0x0 KECCAK256 ADD PUSH1 0x0 SWAP1 SWAP2 SWAP1 SWAP2 SWAP1 SWAP2 PUSH2 0x100 EXP DUP2 SLOAD DUP2 PUSH20 0xFFFFFFFFFFFFFFFFFFFFFFFFFFFFFFFFFFFFFFFF MUL NOT AND SWAP1 DUP4 PUSH20 0xFFFFFFFFFFFFFFFFFFFFFFFFFFFFFFFFFFFFFFFF AND MUL OR SWAP1 SSTORE POP CALLVALUE PUSH1 0x1 PUSH1 0x0 CALLER PUSH20 0xFFFFFFFFFFFFFFFFFFFFFFFFFFFFFFFFFFFFFFFF AND PUSH20 0xFFFFFFFFFFFFFFFFFFFFFFFFFFFFFFFFFFFFFFFF AND DUP2 MSTORE PUSH1 0x20 ADD SWAP1 DUP2 MSTORE PUSH1 0x20 ADD PUSH1 0x0 KECCAK256 PUSH1 0x0 DUP3 DUP3 SLOAD PUSH2 0x4DA SWAP2 SWAP1 PUSH2 0x9EC JUMP JUMPDEST SWAP3 POP POP DUP2 SWAP1 SSTORE POP JUMP JUMPDEST PUSH1 0x0 DUP2 DUP2 SLOAD DUP2 LT PUSH2 0x4F3 JUMPI PUSH1 0x0 DUP1 REVERT JUMPDEST SWAP1 PUSH1 0x0 MSTORE PUSH1 0x20 PUSH1 0x0 KECCAK256 ADD PUSH1 0x0 SWAP2 POP SLOAD SWAP1 PUSH2 0x100 EXP SWAP1 DIV PUSH20 0xFFFFFFFFFFFFFFFFFFFFFFFFFFFFFFFFFFFFFFFF AND DUP2 JUMP JUMPDEST PUSH1 0x0 PUSH8 0xDE0B6B3A7640000 PUSH2 0x535 PUSH2 0x551 JUMP JUMPDEST DUP4 PUSH2 0x540 SWAP2 SWAP1 PUSH2 0xA20 JUMP JUMPDEST PUSH2 0x54A SWAP2 SWAP1 PUSH2 0xA91 JUMP JUMPDEST SWAP1 POP SWAP2 SWAP1 POP JUMP JUMPDEST PUSH1 0x0 DUP1 PUSH20 0x694AA1769357215DE4FAC081BF1F309ADC325306 SWAP1 POP PUSH1 0x0 DUP2 PUSH20 0xFFFFFFFFFFFFFFFFFFFFFFFFFFFFFFFFFFFFFFFF AND PUSH4 0xFEAF968C PUSH1 0x40 MLOAD DUP2 PUSH4 0xFFFFFFFF AND PUSH1 0xE0 SHL DUP2 MSTORE PUSH1 0x4 ADD PUSH1 0xA0 PUSH1 0x40 MLOAD DUP1 DUP4 SUB DUP2 DUP7 GAS STATICCALL ISZERO DUP1 ISZERO PUSH2 0x5B8 JUMPI RETURNDATASIZE PUSH1 0x0 DUP1 RETURNDATACOPY RETURNDATASIZE PUSH1 0x0 REVERT JUMPDEST POP POP POP POP PUSH1 0x40 MLOAD RETURNDATASIZE PUSH1 0x1F NOT PUSH1 0x1F DUP3 ADD AND DUP3 ADD DUP1 PUSH1 0x40 MSTORE POP DUP2 ADD SWAP1 PUSH2 0x5DC SWAP2 SWAP1 PUSH2 0xB4F JUMP JUMPDEST POP POP POP SWAP2 POP POP PUSH5 0x2540BE400 DUP2 PUSH2 0x5F3 SWAP2 SWAP1 PUSH2 0xBCA JUMP JUMPDEST SWAP3 POP POP POP SWAP1 JUMP JUMPDEST DUP3 DUP1 SLOAD DUP3 DUP3 SSTORE SWAP1 PUSH1 0x0 MSTORE PUSH1 0x20 PUSH1 0x0 KECCAK256 SWAP1 DUP2 ADD SWAP3 DUP3 ISZERO PUSH2 0x673 JUMPI SWAP2 PUSH1 0x20 MUL DUP3 ADD JUMPDEST DUP3 DUP2 GT ISZERO PUSH2 0x672 JUMPI DUP3 MLOAD DUP3 PUSH1 0x0 PUSH2 0x100 EXP DUP2 SLOAD DUP2 PUSH20 0xFFFFFFFFFFFFFFFFFFFFFFFFFFFFFFFFFFFFFFFF MUL NOT AND SWAP1 DUP4 PUSH20 0xFFFFFFFFFFFFFFFFFFFFFFFFFFFFFFFFFFFFFFFF AND MUL OR SWAP1 SSTORE POP SWAP2 PUSH1 0x20 ADD SWAP2 SWAP1 PUSH1 0x1 ADD SWAP1 PUSH2 0x61A JUMP JUMPDEST JUMPDEST POP SWAP1 POP PUSH2 0x680 SWAP2 SWAP1 PUSH2 0x684 JUMP JUMPDEST POP SWAP1 JUMP JUMPDEST JUMPDEST DUP1 DUP3 GT ISZERO PUSH2 0x69D JUMPI PUSH1 0x0 DUP2 PUSH1 0x0 SWAP1 SSTORE POP PUSH1 0x1 ADD PUSH2 0x685 JUMP JUMPDEST POP SWAP1 JUMP JUMPDEST PUSH1 0x0 DUP2 SWAP1 POP SWAP2 SWAP1 POP JUMP JUMPDEST PUSH2 0x6B4 DUP2 PUSH2 0x6A1 JUMP JUMPDEST DUP3 MSTORE POP POP JUMP JUMPDEST PUSH1 0x0 PUSH1 0x20 DUP3 ADD SWAP1 POP PUSH2 0x6CF PUSH1 0x0 DUP4 ADD DUP5 PUSH2 0x6AB JUMP JUMPDEST SWAP3 SWAP2 POP POP JUMP JUMPDEST PUSH1 0x0 DUP1 REVERT JUMPDEST PUSH1 0x0 PUSH20 0xFFFFFFFFFFFFFFFFFFFFFFFFFFFFFFFFFFFFFFFF DUP3 AND SWAP1 POP SWAP2 SWAP1 POP JUMP JUMPDEST PUSH1 0x0 PUSH2 0x705 DUP3 PUSH2 0x6DA JUMP JUMPDEST SWAP1 POP SWAP2 SWAP1 POP JUMP JUMPDEST PUSH2 0x715 DUP2 PUSH2 0x6FA JUMP JUMPDEST DUP2 EQ PUSH2 0x720 JUMPI PUSH1 0x0 DUP1 REVERT JUMPDEST POP JUMP JUMPDEST PUSH1 0x0 DUP2 CALLDATALOAD SWAP1 POP PUSH2 0x732 DUP2 PUSH2 0x70C JUMP JUMPDEST SWAP3 SWAP2 POP POP JUMP JUMPDEST PUSH1 0x0 PUSH1 0x20 DUP3 DUP5 SUB SLT ISZERO PUSH2 0x74E JUMPI PUSH2 0x74D PUSH2 0x6D5 JUMP JUMPDEST JUMPDEST PUSH1 0x0 PUSH2 0x75C DUP5 DUP3 DUP6 ADD PUSH2 0x723 JUMP JUMPDEST SWAP2 POP POP SWAP3 SWAP2 POP POP JUMP JUMPDEST PUSH2 0x76E DUP2 PUSH2 0x6FA JUMP JUMPDEST DUP3 MSTORE POP POP JUMP JUMPDEST PUSH1 0x0 PUSH1 0x20 DUP3 ADD SWAP1 POP PUSH2 0x789 PUSH1 0x0 DUP4 ADD DUP5 PUSH2 0x765 JUMP JUMPDEST SWAP3 SWAP2 POP POP JUMP JUMPDEST PUSH2 0x798 DUP2 PUSH2 0x6A1 JUMP JUMPDEST DUP2 EQ PUSH2 0x7A3 JUMPI PUSH1 0x0 DUP1 REVERT JUMPDEST POP JUMP JUMPDEST PUSH1 0x0 DUP2 CALLDATALOAD SWAP1 POP PUSH2 0x7B5 DUP2 PUSH2 0x78F JUMP JUMPDEST SWAP3 SWAP2 POP POP JUMP JUMPDEST PUSH1 0x0 PUSH1 0x20 DUP3 DUP5 SUB SLT ISZERO PUSH2 0x7D1 JUMPI PUSH2 0x7D0 PUSH2 0x6D5 JUMP JUMPDEST JUMPDEST PUSH1 0x0 PUSH2 0x7DF DUP5 DUP3 DUP6 ADD PUSH2 0x7A6 JUMP JUMPDEST SWAP2 POP POP SWAP3 SWAP2 POP POP JUMP JUMPDEST PUSH32 0x4E487B7100000000000000000000000000000000000000000000000000000000 PUSH1 0x0 MSTORE PUSH1 0x32 PUSH1 0x4 MSTORE PUSH1 0x24 PUSH1 0x0 REVERT JUMPDEST PUSH32 0x4E487B7100000000000000000000000000000000000000000000000000000000 PUSH1 0x0 MSTORE PUSH1 0x11 PUSH1 0x4 MSTORE PUSH1 0x24 PUSH1 0x0 REVERT JUMPDEST PUSH1 0x0 PUSH2 0x851 DUP3 PUSH2 0x6A1 JUMP JUMPDEST SWAP2 POP PUSH32 0xFFFFFFFFFFFFFFFFFFFFFFFFFFFFFFFFFFFFFFFFFFFFFFFFFFFFFFFFFFFFFFFF DUP3 SUB PUSH2 0x883 JUMPI PUSH2 0x882 PUSH2 0x817 JUMP JUMPDEST JUMPDEST PUSH1 0x1 DUP3 ADD SWAP1 POP SWAP2 SWAP1 POP JUMP JUMPDEST PUSH32 0x4E487B7100000000000000000000000000000000000000000000000000000000 PUSH1 0x0 MSTORE PUSH1 0x41 PUSH1 0x4 MSTORE PUSH1 0x24 PUSH1 0x0 REVERT JUMPDEST PUSH1 0x0 DUP2 SWAP1 POP SWAP3 SWAP2 POP POP JUMP JUMPDEST POP JUMP JUMPDEST PUSH1 0x0 PUSH2 0x8D8 PUSH1 0x0 DUP4 PUSH2 0x8BD JUMP JUMPDEST SWAP2 POP PUSH2 0x8E3 DUP3 PUSH2 0x8C8 JUMP JUMPDEST PUSH1 0x0 DUP3 ADD SWAP1 POP SWAP2 SWAP1 POP JUMP JUMPDEST PUSH1 0x0 PUSH2 0x8F9 DUP3 PUSH2 0x8CB JUMP JUMPDEST SWAP2 POP DUP2 SWAP1 POP SWAP2 SWAP1 POP JUMP JUMPDEST PUSH1 0x0 DUP3 DUP3 MSTORE PUSH1 0x20 DUP3 ADD SWAP1 POP SWAP3 SWAP2 POP POP JUMP JUMPDEST PUSH32 0x4E6F742073656E74000000000000000000000000000000000000000000000000 PUSH1 0x0 DUP3 ADD MSTORE POP JUMP JUMPDEST PUSH1 0x0 PUSH2 0x94A PUSH1 0x8 DUP4 PUSH2 0x903 JUMP JUMPDEST SWAP2 POP PUSH2 0x955 DUP3 PUSH2 0x914 JUMP JUMPDEST PUSH1 0x20 DUP3 ADD SWAP1 POP SWAP2 SWAP1 POP JUMP JUMPDEST PUSH1 0x0 PUSH1 0x20 DUP3 ADD SWAP1 POP DUP2 DUP2 SUB PUSH1 0x0 DUP4 ADD MSTORE PUSH2 0x979 DUP2 PUSH2 0x93D JUMP JUMPDEST SWAP1 POP SWAP2 SWAP1 POP JUMP JUMPDEST PUSH32 0x4469646E27742073656E6420656E6F7567680000000000000000000000000000 PUSH1 0x0 DUP3 ADD MSTORE POP JUMP JUMPDEST PUSH1 0x0 PUSH2 0x9B6 PUSH1 0x12 DUP4 PUSH2 0x903 JUMP JUMPDEST SWAP2 POP PUSH2 0x9C1 DUP3 PUSH2 0x980 JUMP JUMPDEST PUSH1 0x20 DUP3 ADD SWAP1 POP SWAP2 SWAP1 POP JUMP JUMPDEST PUSH1 0x0 PUSH1 0x20 DUP3 ADD SWAP1 POP DUP2 DUP2 SUB PUSH1 0x0 DUP4 ADD MSTORE PUSH2 0x9E5 DUP2 PUSH2 0x9A9 JUMP JUMPDEST SWAP1 POP SWAP2 SWAP1 POP JUMP JUMPDEST PUSH1 0x0 PUSH2 0x9F7 DUP3 PUSH2 0x6A1 JUMP JUMPDEST SWAP2 POP PUSH2 0xA02 DUP4 PUSH2 0x6A1 JUMP JUMPDEST SWAP3 POP DUP3 DUP3 ADD SWAP1 POP DUP1 DUP3 GT ISZERO PUSH2 0xA1A JUMPI PUSH2 0xA19 PUSH2 0x817 JUMP JUMPDEST JUMPDEST SWAP3 SWAP2 POP POP JUMP JUMPDEST PUSH1 0x0 PUSH2 0xA2B DUP3 PUSH2 0x6A1 JUMP JUMPDEST SWAP2 POP PUSH2 0xA36 DUP4 PUSH2 0x6A1 JUMP JUMPDEST SWAP3 POP DUP3 DUP3 MUL PUSH2 0xA44 DUP2 PUSH2 0x6A1 JUMP JUMPDEST SWAP2 POP DUP3 DUP3 DIV DUP5 EQ DUP4 ISZERO OR PUSH2 0xA5B JUMPI PUSH2 0xA5A PUSH2 0x817 JUMP JUMPDEST JUMPDEST POP SWAP3 SWAP2 POP POP JUMP JUMPDEST PUSH32 0x4E487B7100000000000000000000000000000000000000000000000000000000 PUSH1 0x0 MSTORE PUSH1 0x12 PUSH1 0x4 MSTORE PUSH1 0x24 PUSH1 0x0 REVERT JUMPDEST PUSH1 0x0 PUSH2 0xA9C DUP3 PUSH2 0x6A1 JUMP JUMPDEST SWAP2 POP PUSH2 0xAA7 DUP4 PUSH2 0x6A1 JUMP JUMPDEST SWAP3 POP DUP3 PUSH2 0xAB7 JUMPI PUSH2 0xAB6 PUSH2 0xA62 JUMP JUMPDEST JUMPDEST DUP3 DUP3 DIV SWAP1 POP SWAP3 SWAP2 POP POP JUMP JUMPDEST PUSH1 0x0 PUSH10 0xFFFFFFFFFFFFFFFFFFFF DUP3 AND SWAP1 POP SWAP2 SWAP1 POP JUMP JUMPDEST PUSH2 0xAE1 DUP2 PUSH2 0xAC2 JUMP JUMPDEST DUP2 EQ PUSH2 0xAEC JUMPI PUSH1 0x0 DUP1 REVERT JUMPDEST POP JUMP JUMPDEST PUSH1 0x0 DUP2 MLOAD SWAP1 POP PUSH2 0xAFE DUP2 PUSH2 0xAD8 JUMP JUMPDEST SWAP3 SWAP2 POP POP JUMP JUMPDEST PUSH1 0x0 DUP2 SWAP1 POP SWAP2 SWAP1 POP JUMP JUMPDEST PUSH2 0xB17 DUP2 PUSH2 0xB04 JUMP JUMPDEST DUP2 EQ PUSH2 0xB22 JUMPI PUSH1 0x0 DUP1 REVERT JUMPDEST POP JUMP JUMPDEST PUSH1 0x0 DUP2 MLOAD SWAP1 POP PUSH2 0xB34 DUP2 PUSH2 0xB0E JUMP JUMPDEST SWAP3 SWAP2 POP POP JUMP JUMPDEST PUSH1 0x0 DUP2 MLOAD SWAP1 POP PUSH2 0xB49 DUP2 PUSH2 0x78F JUMP JUMPDEST SWAP3 SWAP2 POP POP JUMP JUMPDEST PUSH1 0x0 DUP1 PUSH1 0x0 DUP1 PUSH1 0x0 PUSH1 0xA0 DUP7 DUP9 SUB SLT ISZERO PUSH2 0xB6B JUMPI PUSH2 0xB6A PUSH2 0x6D5 JUMP JUMPDEST JUMPDEST PUSH1 0x0 PUSH2 0xB79 DUP9 DUP3 DUP10 ADD PUSH2 0xAEF JUMP JUMPDEST SWAP6 POP POP PUSH1 0x20 PUSH2 0xB8A DUP9 DUP3 DUP10 ADD PUSH2 0xB25 JUMP JUMPDEST SWAP5 POP POP PUSH1 0x40 PUSH2 0xB9B DUP9 DUP3 DUP10 ADD PUSH2 0xB3A JUMP JUMPDEST SWAP4 POP POP PUSH1 0x60 PUSH2 0xBAC DUP9 DUP3 DUP10 ADD PUSH2 0xB3A JUMP JUMPDEST SWAP3 POP POP PUSH1 0x80 PUSH2 0xBBD DUP9 DUP3 DUP10 ADD PUSH2 0xAEF JUMP JUMPDEST SWAP2 POP POP SWAP3 SWAP6 POP SWAP3 SWAP6 SWAP1 SWAP4 POP JUMP JUMPDEST PUSH1 0x0 PUSH2 0xBD5 DUP3 PUSH2 0xB04 JUMP JUMPDEST SWAP2 POP PUSH2 0xBE0 DUP4 PUSH2 0xB04 JUMP JUMPDEST SWAP3 POP DUP3 DUP3 MUL PUSH2 0xBEE DUP2 PUSH2 0xB04 JUMP JUMPDEST SWAP2 POP PUSH32 0x8000000000000000000000000000000000000000000000000000000000000000 DUP5 EQ PUSH1 0x0 DUP5 SLT AND ISZERO PUSH2 0xC26 JUMPI PUSH2 0xC25 PUSH2 0x817 JUMP JUMPDEST JUMPDEST DUP3 DUP3 SDIV DUP5 EQ DUP4 ISZERO OR PUSH2 0xC3B JUMPI PUSH2 0xC3A PUSH2 0x817 JUMP JUMPDEST JUMPDEST POP SWAP3 SWAP2 POP POP JUMP INVALID LOG2 PUSH5 0x6970667358 0x22 SLT KECCAK256 PUSH9 0x1D5CE050A8E2887E3E 0xBC CALL OR 0xBC DUP1 JUMPDEST PUSH29 0xF354977A08AAA20CF4A5BDF939CCFC64736F6C63430008120033000000 "
				},
				"gasEstimates": {
					"creation": {
						"codeDepositCost": "638400",
						"executionCost": "infinite",
						"totalCost": "infinite"
					},
					"external": {
						"MIN_USD()": "307",
						"amounts(address)": "2836",
						"fund()": "infinite",
						"funders(uint256)": "5044",
						"owner()": "infinite",
						"withdraw()": "infinite"
					}
				},
				"methodIdentifiers": {
					"MIN_USD()": "213dbea2",
					"amounts(address)": "55a3b2c1",
					"fund()": "b60d4288",
					"funders(uint256)": "dc0d3dff",
					"owner()": "8da5cb5b",
					"withdraw()": "3ccfd60b"
				}
			},
			"storageLayout": {
				"storage": [
					{
						"astId": 59,
						"contract": "contracts/FundMe.sol:FundMe",
						"label": "funders",
						"offset": 0,
						"slot": "0",
						"type": "t_array(t_address)dyn_storage"
					},
					{
						"astId": 63,
						"contract": "contracts/FundMe.sol:FundMe",
						"label": "amounts",
						"offset": 0,
						"slot": "1",
						"type": "t_mapping(t_address,t_uint256)"
					}
				],
				"types": {
					"t_address": {
						"encoding": "inplace",
						"label": "address",
						"numberOfBytes": "20"
					},
					"t_array(t_address)dyn_storage": {
						"base": "t_address",
						"encoding": "dynamic_array",
						"label": "address[]",
						"numberOfBytes": "32"
					},
					"t_mapping(t_address,t_uint256)": {
						"encoding": "mapping",
						"key": "t_address",
						"label": "mapping(address => uint256)",
						"numberOfBytes": "32",
						"value": "t_uint256"
					},
					"t_uint256": {
						"encoding": "inplace",
						"label": "uint256",
						"numberOfBytes": "32"
					}
				}
			},
			"userdoc": {
				"kind": "user",
				"methods": {},
				"version": 1
			}
		}
	}
}