{
	"data": {
		"bytecode": {
			"linkReferences": {},
			"object": "60806040526802b5e3af16b188000060005534801561001d57600080fd5b5033600360006101000a81548173ffffffffffffffffffffffffffffffffffffffff021916908373ffffffffffffffffffffffffffffffffffffffff160217905550610ca88061006e6000396000f3fe60806040526004361061004a5760003560e01c80633ccfd60b1461004f57806355a3b2c1146100665780638da5cb5b146100a3578063b60d4288146100ce578063dc0d3dff146100d8575b600080fd5b34801561005b57600080fd5b50610064610115565b005b34801561007257600080fd5b5061008d600480360381019061008891906106c8565b610361565b60405161009a919061070e565b60405180910390f35b3480156100af57600080fd5b506100b8610379565b6040516100c59190610738565b60405180910390f35b6100d661039f565b005b3480156100e457600080fd5b506100ff60048036038101906100fa919061077f565b6104a7565b60405161010c9190610738565b60405180910390f35b600360009054906101000a900473ffffffffffffffffffffffffffffffffffffffff1673ffffffffffffffffffffffffffffffffffffffff163373ffffffffffffffffffffffffffffffffffffffff16146101a5576040517f08c379a000000000000000000000000000000000000000000000000000000000815260040161019c90610809565b60405180910390fd5b60005b600180549050811015610251576000600182815481106101cb576101ca610829565b5b9060005260206000200160009054906101000a900473ffffffffffffffffffffffffffffffffffffffff1690506000600260008373ffffffffffffffffffffffffffffffffffffffff1673ffffffffffffffffffffffffffffffffffffffff1681526020019081526020016000208190555050808061024990610887565b9150506101a8565b50600067ffffffffffffffff81111561026d5761026c6108cf565b5b60405190808252806020026020018201604052801561029b5781602001602082028036833780820191505090505b50600190805190602001906102b19291906105be565b5060003373ffffffffffffffffffffffffffffffffffffffff16476040516102d89061092f565b60006040518083038185875af1925050503d8060008114610315576040519150601f19603f3d011682016040523d82523d6000602084013e61031a565b606091505b505090508061035e576040517f08c379a000000000000000000000000000000000000000000000000000000000815260040161035590610990565b60405180910390fd5b50565b60026020528060005260406000206000915090505481565b600360009054906101000a900473ffffffffffffffffffffffffffffffffffffffff1681565b6000546103ab346104e6565b10156103ec576040517f08c379a00000000000000000000000000000000000000000000000000000000081526004016103e3906109fc565b60405180910390fd5b6001339080600181540180825580915050600190039060005260206000200160009091909190916101000a81548173ffffffffffffffffffffffffffffffffffffffff021916908373ffffffffffffffffffffffffffffffffffffffff16021790555034600260003373ffffffffffffffffffffffffffffffffffffffff1673ffffffffffffffffffffffffffffffffffffffff168152602001908152602001600020600082825461049e9190610a1c565b92505081905550565b600181815481106104b757600080fd5b906000526020600020016000915054906101000a900473ffffffffffffffffffffffffffffffffffffffff1681565b6000670de0b6b3a76400006104f9610515565b836105049190610a50565b61050e9190610ac1565b9050919050565b60008073694aa1769357215de4fac081bf1f309adc325306905060008173ffffffffffffffffffffffffffffffffffffffff1663feaf968c6040518163ffffffff1660e01b815260040160a060405180830381865afa15801561057c573d6000803e3d6000fd5b505050506040513d601f19601f820116820180604052508101906105a09190610b7f565b5050509150506402540be400816105b79190610bfa565b9250505090565b828054828255906000526020600020908101928215610637579160200282015b828111156106365782518260006101000a81548173ffffffffffffffffffffffffffffffffffffffff021916908373ffffffffffffffffffffffffffffffffffffffff160217905550916020019190600101906105de565b5b5090506106449190610648565b5090565b5b80821115610661576000816000905550600101610649565b5090565b600080fd5b600073ffffffffffffffffffffffffffffffffffffffff82169050919050565b60006106958261066a565b9050919050565b6106a58161068a565b81146106b057600080fd5b50565b6000813590506106c28161069c565b92915050565b6000602082840312156106de576106dd610665565b5b60006106ec848285016106b3565b91505092915050565b6000819050919050565b610708816106f5565b82525050565b600060208201905061072360008301846106ff565b92915050565b6107328161068a565b82525050565b600060208201905061074d6000830184610729565b92915050565b61075c816106f5565b811461076757600080fd5b50565b60008135905061077981610753565b92915050565b60006020828403121561079557610794610665565b5b60006107a38482850161076a565b91505092915050565b600082825260208201905092915050565b7f596f7520617265206e6f7420746865206f776e6572206c6d616f2e0000000000600082015250565b60006107f3601b836107ac565b91506107fe826107bd565b602082019050919050565b60006020820190508181036000830152610822816107e6565b9050919050565b7f4e487b7100000000000000000000000000000000000000000000000000000000600052603260045260246000fd5b7f4e487b7100000000000000000000000000000000000000000000000000000000600052601160045260246000fd5b6000610892826106f5565b91507fffffffffffffffffffffffffffffffffffffffffffffffffffffffffffffffff82036108c4576108c3610858565b5b600182019050919050565b7f4e487b7100000000000000000000000000000000000000000000000000000000600052604160045260246000fd5b600081905092915050565b50565b60006109196000836108fe565b915061092482610909565b600082019050919050565b600061093a8261090c565b9150819050919050565b7f4e6f742073656e74000000000000000000000000000000000000000000000000600082015250565b600061097a6008836107ac565b915061098582610944565b602082019050919050565b600060208201905081810360008301526109a98161096d565b9050919050565b7f4469646e27742073656e6420656e6f7567680000000000000000000000000000600082015250565b60006109e66012836107ac565b91506109f1826109b0565b602082019050919050565b60006020820190508181036000830152610a15816109d9565b9050919050565b6000610a27826106f5565b9150610a32836106f5565b9250828201905080821115610a4a57610a49610858565b5b92915050565b6000610a5b826106f5565b9150610a66836106f5565b9250828202610a74816106f5565b91508282048414831517610a8b57610a8a610858565b5b5092915050565b7f4e487b7100000000000000000000000000000000000000000000000000000000600052601260045260246000fd5b6000610acc826106f5565b9150610ad7836106f5565b925082610ae757610ae6610a92565b5b828204905092915050565b600069ffffffffffffffffffff82169050919050565b610b1181610af2565b8114610b1c57600080fd5b50565b600081519050610b2e81610b08565b92915050565b6000819050919050565b610b4781610b34565b8114610b5257600080fd5b50565b600081519050610b6481610b3e565b92915050565b600081519050610b7981610753565b92915050565b600080600080600060a08688031215610b9b57610b9a610665565b5b6000610ba988828901610b1f565b9550506020610bba88828901610b55565b9450506040610bcb88828901610b6a565b9350506060610bdc88828901610b6a565b9250506080610bed88828901610b1f565b9150509295509295909350565b6000610c0582610b34565b9150610c1083610b34565b9250828202610c1e81610b34565b91507f80000000000000000000000000000000000000000000000000000000000000008414600084121615610c5657610c55610858565b5b8282058414831517610c6b57610c6a610858565b5b509291505056fea2646970667358221220988d2fff44c7adbfdd77cb148dff1b3a5031278f4cb4d959697003d7d73ef2dd64736f6c63430008120033",
			"opcodes": "PUSH1 0x80 PUSH1 0x40 MSTORE PUSH9 0x2B5E3AF16B1880000 PUSH1 0x0 SSTORE CALLVALUE DUP1 ISZERO PUSH2 0x1D JUMPI PUSH1 0x0 DUP1 REVERT JUMPDEST POP CALLER PUSH1 0x3 PUSH1 0x0 PUSH2 0x100 EXP DUP2 SLOAD DUP2 PUSH20 0xFFFFFFFFFFFFFFFFFFFFFFFFFFFFFFFFFFFFFFFF MUL NOT AND SWAP1 DUP4 PUSH20 0xFFFFFFFFFFFFFFFFFFFFFFFFFFFFFFFFFFFFFFFF AND MUL OR SWAP1 SSTORE POP PUSH2 0xCA8 DUP1 PUSH2 0x6E PUSH1 0x0 CODECOPY PUSH1 0x0 RETURN INVALID PUSH1 0x80 PUSH1 0x40 MSTORE PUSH1 0x4 CALLDATASIZE LT PUSH2 0x4A JUMPI PUSH1 0x0 CALLDATALOAD PUSH1 0xE0 SHR DUP1 PUSH4 0x3CCFD60B EQ PUSH2 0x4F JUMPI DUP1 PUSH4 0x55A3B2C1 EQ PUSH2 0x66 JUMPI DUP1 PUSH4 0x8DA5CB5B EQ PUSH2 0xA3 JUMPI DUP1 PUSH4 0xB60D4288 EQ PUSH2 0xCE JUMPI DUP1 PUSH4 0xDC0D3DFF EQ PUSH2 0xD8 JUMPI JUMPDEST PUSH1 0x0 DUP1 REVERT JUMPDEST CALLVALUE DUP1 ISZERO PUSH2 0x5B JUMPI PUSH1 0x0 DUP1 REVERT JUMPDEST POP PUSH2 0x64 PUSH2 0x115 JUMP JUMPDEST STOP JUMPDEST CALLVALUE DUP1 ISZERO PUSH2 0x72 JUMPI PUSH1 0x0 DUP1 REVERT JUMPDEST POP PUSH2 0x8D PUSH1 0x4 DUP1 CALLDATASIZE SUB DUP2 ADD SWAP1 PUSH2 0x88 SWAP2 SWAP1 PUSH2 0x6C8 JUMP JUMPDEST PUSH2 0x361 JUMP JUMPDEST PUSH1 0x40 MLOAD PUSH2 0x9A SWAP2 SWAP1 PUSH2 0x70E JUMP JUMPDEST PUSH1 0x40 MLOAD DUP1 SWAP2 SUB SWAP1 RETURN JUMPDEST CALLVALUE DUP1 ISZERO PUSH2 0xAF JUMPI PUSH1 0x0 DUP1 REVERT JUMPDEST POP PUSH2 0xB8 PUSH2 0x379 JUMP JUMPDEST PUSH1 0x40 MLOAD PUSH2 0xC5 SWAP2 SWAP1 PUSH2 0x738 JUMP JUMPDEST PUSH1 0x40 MLOAD DUP1 SWAP2 SUB SWAP1 RETURN JUMPDEST PUSH2 0xD6 PUSH2 0x39F JUMP JUMPDEST STOP JUMPDEST CALLVALUE DUP1 ISZERO PUSH2 0xE4 JUMPI PUSH1 0x0 DUP1 REVERT JUMPDEST POP PUSH2 0xFF PUSH1 0x4 DUP1 CALLDATASIZE SUB DUP2 ADD SWAP1 PUSH2 0xFA SWAP2 SWAP1 PUSH2 0x77F JUMP JUMPDEST PUSH2 0x4A7 JUMP JUMPDEST PUSH1 0x40 MLOAD PUSH2 0x10C SWAP2 SWAP1 PUSH2 0x738 JUMP JUMPDEST PUSH1 0x40 MLOAD DUP1 SWAP2 SUB SWAP1 RETURN JUMPDEST PUSH1 0x3 PUSH1 0x0 SWAP1 SLOAD SWAP1 PUSH2 0x100 EXP SWAP1 DIV PUSH20 0xFFFFFFFFFFFFFFFFFFFFFFFFFFFFFFFFFFFFFFFF AND PUSH20 0xFFFFFFFFFFFFFFFFFFFFFFFFFFFFFFFFFFFFFFFF AND CALLER PUSH20 0xFFFFFFFFFFFFFFFFFFFFFFFFFFFFFFFFFFFFFFFF AND EQ PUSH2 0x1A5 JUMPI PUSH1 0x40 MLOAD PUSH32 0x8C379A000000000000000000000000000000000000000000000000000000000 DUP2 MSTORE PUSH1 0x4 ADD PUSH2 0x19C SWAP1 PUSH2 0x809 JUMP JUMPDEST PUSH1 0x40 MLOAD DUP1 SWAP2 SUB SWAP1 REVERT JUMPDEST PUSH1 0x0 JUMPDEST PUSH1 0x1 DUP1 SLOAD SWAP1 POP DUP2 LT ISZERO PUSH2 0x251 JUMPI PUSH1 0x0 PUSH1 0x1 DUP3 DUP2 SLOAD DUP2 LT PUSH2 0x1CB JUMPI PUSH2 0x1CA PUSH2 0x829 JUMP JUMPDEST JUMPDEST SWAP1 PUSH1 0x0 MSTORE PUSH1 0x20 PUSH1 0x0 KECCAK256 ADD PUSH1 0x0 SWAP1 SLOAD SWAP1 PUSH2 0x100 EXP SWAP1 DIV PUSH20 0xFFFFFFFFFFFFFFFFFFFFFFFFFFFFFFFFFFFFFFFF AND SWAP1 POP PUSH1 0x0 PUSH1 0x2 PUSH1 0x0 DUP4 PUSH20 0xFFFFFFFFFFFFFFFFFFFFFFFFFFFFFFFFFFFFFFFF AND PUSH20 0xFFFFFFFFFFFFFFFFFFFFFFFFFFFFFFFFFFFFFFFF AND DUP2 MSTORE PUSH1 0x20 ADD SWAP1 DUP2 MSTORE PUSH1 0x20 ADD PUSH1 0x0 KECCAK256 DUP2 SWAP1 SSTORE POP POP DUP1 DUP1 PUSH2 0x249 SWAP1 PUSH2 0x887 JUMP JUMPDEST SWAP2 POP POP PUSH2 0x1A8 JUMP JUMPDEST POP PUSH1 0x0 PUSH8 0xFFFFFFFFFFFFFFFF DUP2 GT ISZERO PUSH2 0x26D JUMPI PUSH2 0x26C PUSH2 0x8CF JUMP JUMPDEST JUMPDEST PUSH1 0x40 MLOAD SWAP1 DUP1 DUP3 MSTORE DUP1 PUSH1 0x20 MUL PUSH1 0x20 ADD DUP3 ADD PUSH1 0x40 MSTORE DUP1 ISZERO PUSH2 0x29B JUMPI DUP2 PUSH1 0x20 ADD PUSH1 0x20 DUP3 MUL DUP1 CALLDATASIZE DUP4 CALLDATACOPY DUP1 DUP3 ADD SWAP2 POP POP SWAP1 POP JUMPDEST POP PUSH1 0x1 SWAP1 DUP1 MLOAD SWAP1 PUSH1 0x20 ADD SWAP1 PUSH2 0x2B1 SWAP3 SWAP2 SWAP1 PUSH2 0x5BE JUMP JUMPDEST POP PUSH1 0x0 CALLER PUSH20 0xFFFFFFFFFFFFFFFFFFFFFFFFFFFFFFFFFFFFFFFF AND SELFBALANCE PUSH1 0x40 MLOAD PUSH2 0x2D8 SWAP1 PUSH2 0x92F JUMP JUMPDEST PUSH1 0x0 PUSH1 0x40 MLOAD DUP1 DUP4 SUB DUP2 DUP6 DUP8 GAS CALL SWAP3 POP POP POP RETURNDATASIZE DUP1 PUSH1 0x0 DUP2 EQ PUSH2 0x315 JUMPI PUSH1 0x40 MLOAD SWAP2 POP PUSH1 0x1F NOT PUSH1 0x3F RETURNDATASIZE ADD AND DUP3 ADD PUSH1 0x40 MSTORE RETURNDATASIZE DUP3 MSTORE RETURNDATASIZE PUSH1 0x0 PUSH1 0x20 DUP5 ADD RETURNDATACOPY PUSH2 0x31A JUMP JUMPDEST PUSH1 0x60 SWAP2 POP JUMPDEST POP POP SWAP1 POP DUP1 PUSH2 0x35E JUMPI PUSH1 0x40 MLOAD PUSH32 0x8C379A000000000000000000000000000000000000000000000000000000000 DUP2 MSTORE PUSH1 0x4 ADD PUSH2 0x355 SWAP1 PUSH2 0x990 JUMP JUMPDEST PUSH1 0x40 MLOAD DUP1 SWAP2 SUB SWAP1 REVERT JUMPDEST POP JUMP JUMPDEST PUSH1 0x2 PUSH1 0x20 MSTORE DUP1 PUSH1 0x0 MSTORE PUSH1 0x40 PUSH1 0x0 KECCAK256 PUSH1 0x0 SWAP2 POP SWAP1 POP SLOAD DUP2 JUMP JUMPDEST PUSH1 0x3 PUSH1 0x0 SWAP1 SLOAD SWAP1 PUSH2 0x100 EXP SWAP1 DIV PUSH20 0xFFFFFFFFFFFFFFFFFFFFFFFFFFFFFFFFFFFFFFFF AND DUP2 JUMP JUMPDEST PUSH1 0x0 SLOAD PUSH2 0x3AB CALLVALUE PUSH2 0x4E6 JUMP JUMPDEST LT ISZERO PUSH2 0x3EC JUMPI PUSH1 0x40 MLOAD PUSH32 0x8C379A000000000000000000000000000000000000000000000000000000000 DUP2 MSTORE PUSH1 0x4 ADD PUSH2 0x3E3 SWAP1 PUSH2 0x9FC JUMP JUMPDEST PUSH1 0x40 MLOAD DUP1 SWAP2 SUB SWAP1 REVERT JUMPDEST PUSH1 0x1 CALLER SWAP1 DUP1 PUSH1 0x1 DUP2 SLOAD ADD DUP1 DUP3 SSTORE DUP1 SWAP2 POP POP PUSH1 0x1 SWAP1 SUB SWAP1 PUSH1 0x0 MSTORE PUSH1 0x20 PUSH1 0x0 KECCAK256 ADD PUSH1 0x0 SWAP1 SWAP2 SWAP1 SWAP2 SWAP1 SWAP2 PUSH2 0x100 EXP DUP2 SLOAD DUP2 PUSH20 0xFFFFFFFFFFFFFFFFFFFFFFFFFFFFFFFFFFFFFFFF MUL NOT AND SWAP1 DUP4 PUSH20 0xFFFFFFFFFFFFFFFFFFFFFFFFFFFFFFFFFFFFFFFF AND MUL OR SWAP1 SSTORE POP CALLVALUE PUSH1 0x2 PUSH1 0x0 CALLER PUSH20 0xFFFFFFFFFFFFFFFFFFFFFFFFFFFFFFFFFFFFFFFF AND PUSH20 0xFFFFFFFFFFFFFFFFFFFFFFFFFFFFFFFFFFFFFFFF AND DUP2 MSTORE PUSH1 0x20 ADD SWAP1 DUP2 MSTORE PUSH1 0x20 ADD PUSH1 0x0 KECCAK256 PUSH1 0x0 DUP3 DUP3 SLOAD PUSH2 0x49E SWAP2 SWAP1 PUSH2 0xA1C JUMP JUMPDEST SWAP3 POP POP DUP2 SWAP1 SSTORE POP JUMP JUMPDEST PUSH1 0x1 DUP2 DUP2 SLOAD DUP2 LT PUSH2 0x4B7 JUMPI PUSH1 0x0 DUP1 REVERT JUMPDEST SWAP1 PUSH1 0x0 MSTORE PUSH1 0x20 PUSH1 0x0 KECCAK256 ADD PUSH1 0x0 SWAP2 POP SLOAD SWAP1 PUSH2 0x100 EXP SWAP1 DIV PUSH20 0xFFFFFFFFFFFFFFFFFFFFFFFFFFFFFFFFFFFFFFFF AND DUP2 JUMP JUMPDEST PUSH1 0x0 PUSH8 0xDE0B6B3A7640000 PUSH2 0x4F9 PUSH2 0x515 JUMP JUMPDEST DUP4 PUSH2 0x504 SWAP2 SWAP1 PUSH2 0xA50 JUMP JUMPDEST PUSH2 0x50E SWAP2 SWAP1 PUSH2 0xAC1 JUMP JUMPDEST SWAP1 POP SWAP2 SWAP1 POP JUMP JUMPDEST PUSH1 0x0 DUP1 PUSH20 0x694AA1769357215DE4FAC081BF1F309ADC325306 SWAP1 POP PUSH1 0x0 DUP2 PUSH20 0xFFFFFFFFFFFFFFFFFFFFFFFFFFFFFFFFFFFFFFFF AND PUSH4 0xFEAF968C PUSH1 0x40 MLOAD DUP2 PUSH4 0xFFFFFFFF AND PUSH1 0xE0 SHL DUP2 MSTORE PUSH1 0x4 ADD PUSH1 0xA0 PUSH1 0x40 MLOAD DUP1 DUP4 SUB DUP2 DUP7 GAS STATICCALL ISZERO DUP1 ISZERO PUSH2 0x57C JUMPI RETURNDATASIZE PUSH1 0x0 DUP1 RETURNDATACOPY RETURNDATASIZE PUSH1 0x0 REVERT JUMPDEST POP POP POP POP PUSH1 0x40 MLOAD RETURNDATASIZE PUSH1 0x1F NOT PUSH1 0x1F DUP3 ADD AND DUP3 ADD DUP1 PUSH1 0x40 MSTORE POP DUP2 ADD SWAP1 PUSH2 0x5A0 SWAP2 SWAP1 PUSH2 0xB7F JUMP JUMPDEST POP POP POP SWAP2 POP POP PUSH5 0x2540BE400 DUP2 PUSH2 0x5B7 SWAP2 SWAP1 PUSH2 0xBFA JUMP JUMPDEST SWAP3 POP POP POP SWAP1 JUMP JUMPDEST DUP3 DUP1 SLOAD DUP3 DUP3 SSTORE SWAP1 PUSH1 0x0 MSTORE PUSH1 0x20 PUSH1 0x0 KECCAK256 SWAP1 DUP2 ADD SWAP3 DUP3 ISZERO PUSH2 0x637 JUMPI SWAP2 PUSH1 0x20 MUL DUP3 ADD JUMPDEST DUP3 DUP2 GT ISZERO PUSH2 0x636 JUMPI DUP3 MLOAD DUP3 PUSH1 0x0 PUSH2 0x100 EXP DUP2 SLOAD DUP2 PUSH20 0xFFFFFFFFFFFFFFFFFFFFFFFFFFFFFFFFFFFFFFFF MUL NOT AND SWAP1 DUP4 PUSH20 0xFFFFFFFFFFFFFFFFFFFFFFFFFFFFFFFFFFFFFFFF AND MUL OR SWAP1 SSTORE POP SWAP2 PUSH1 0x20 ADD SWAP2 SWAP1 PUSH1 0x1 ADD SWAP1 PUSH2 0x5DE JUMP JUMPDEST JUMPDEST POP SWAP1 POP PUSH2 0x644 SWAP2 SWAP1 PUSH2 0x648 JUMP JUMPDEST POP SWAP1 JUMP JUMPDEST JUMPDEST DUP1 DUP3 GT ISZERO PUSH2 0x661 JUMPI PUSH1 0x0 DUP2 PUSH1 0x0 SWAP1 SSTORE POP PUSH1 0x1 ADD PUSH2 0x649 JUMP JUMPDEST POP SWAP1 JUMP JUMPDEST PUSH1 0x0 DUP1 REVERT JUMPDEST PUSH1 0x0 PUSH20 0xFFFFFFFFFFFFFFFFFFFFFFFFFFFFFFFFFFFFFFFF DUP3 AND SWAP1 POP SWAP2 SWAP1 POP JUMP JUMPDEST PUSH1 0x0 PUSH2 0x695 DUP3 PUSH2 0x66A JUMP JUMPDEST SWAP1 POP SWAP2 SWAP1 POP JUMP JUMPDEST PUSH2 0x6A5 DUP2 PUSH2 0x68A JUMP JUMPDEST DUP2 EQ PUSH2 0x6B0 JUMPI PUSH1 0x0 DUP1 REVERT JUMPDEST POP JUMP JUMPDEST PUSH1 0x0 DUP2 CALLDATALOAD SWAP1 POP PUSH2 0x6C2 DUP2 PUSH2 0x69C JUMP JUMPDEST SWAP3 SWAP2 POP POP JUMP JUMPDEST PUSH1 0x0 PUSH1 0x20 DUP3 DUP5 SUB SLT ISZERO PUSH2 0x6DE JUMPI PUSH2 0x6DD PUSH2 0x665 JUMP JUMPDEST JUMPDEST PUSH1 0x0 PUSH2 0x6EC DUP5 DUP3 DUP6 ADD PUSH2 0x6B3 JUMP JUMPDEST SWAP2 POP POP SWAP3 SWAP2 POP POP JUMP JUMPDEST PUSH1 0x0 DUP2 SWAP1 POP SWAP2 SWAP1 POP JUMP JUMPDEST PUSH2 0x708 DUP2 PUSH2 0x6F5 JUMP JUMPDEST DUP3 MSTORE POP POP JUMP JUMPDEST PUSH1 0x0 PUSH1 0x20 DUP3 ADD SWAP1 POP PUSH2 0x723 PUSH1 0x0 DUP4 ADD DUP5 PUSH2 0x6FF JUMP JUMPDEST SWAP3 SWAP2 POP POP JUMP JUMPDEST PUSH2 0x732 DUP2 PUSH2 0x68A JUMP JUMPDEST DUP3 MSTORE POP POP JUMP JUMPDEST PUSH1 0x0 PUSH1 0x20 DUP3 ADD SWAP1 POP PUSH2 0x74D PUSH1 0x0 DUP4 ADD DUP5 PUSH2 0x729 JUMP JUMPDEST SWAP3 SWAP2 POP POP JUMP JUMPDEST PUSH2 0x75C DUP2 PUSH2 0x6F5 JUMP JUMPDEST DUP2 EQ PUSH2 0x767 JUMPI PUSH1 0x0 DUP1 REVERT JUMPDEST POP JUMP JUMPDEST PUSH1 0x0 DUP2 CALLDATALOAD SWAP1 POP PUSH2 0x779 DUP2 PUSH2 0x753 JUMP JUMPDEST SWAP3 SWAP2 POP POP JUMP JUMPDEST PUSH1 0x0 PUSH1 0x20 DUP3 DUP5 SUB SLT ISZERO PUSH2 0x795 JUMPI PUSH2 0x794 PUSH2 0x665 JUMP JUMPDEST JUMPDEST PUSH1 0x0 PUSH2 0x7A3 DUP5 DUP3 DUP6 ADD PUSH2 0x76A JUMP JUMPDEST SWAP2 POP POP SWAP3 SWAP2 POP POP JUMP JUMPDEST PUSH1 0x0 DUP3 DUP3 MSTORE PUSH1 0x20 DUP3 ADD SWAP1 POP SWAP3 SWAP2 POP POP JUMP JUMPDEST PUSH32 0x596F7520617265206E6F7420746865206F776E6572206C6D616F2E0000000000 PUSH1 0x0 DUP3 ADD MSTORE POP JUMP JUMPDEST PUSH1 0x0 PUSH2 0x7F3 PUSH1 0x1B DUP4 PUSH2 0x7AC JUMP JUMPDEST SWAP2 POP PUSH2 0x7FE DUP3 PUSH2 0x7BD JUMP JUMPDEST PUSH1 0x20 DUP3 ADD SWAP1 POP SWAP2 SWAP1 POP JUMP JUMPDEST PUSH1 0x0 PUSH1 0x20 DUP3 ADD SWAP1 POP DUP2 DUP2 SUB PUSH1 0x0 DUP4 ADD MSTORE PUSH2 0x822 DUP2 PUSH2 0x7E6 JUMP JUMPDEST SWAP1 POP SWAP2 SWAP1 POP JUMP JUMPDEST PUSH32 0x4E487B7100000000000000000000000000000000000000000000000000000000 PUSH1 0x0 MSTORE PUSH1 0x32 PUSH1 0x4 MSTORE PUSH1 0x24 PUSH1 0x0 REVERT JUMPDEST PUSH32 0x4E487B7100000000000000000000000000000000000000000000000000000000 PUSH1 0x0 MSTORE PUSH1 0x11 PUSH1 0x4 MSTORE PUSH1 0x24 PUSH1 0x0 REVERT JUMPDEST PUSH1 0x0 PUSH2 0x892 DUP3 PUSH2 0x6F5 JUMP JUMPDEST SWAP2 POP PUSH32 0xFFFFFFFFFFFFFFFFFFFFFFFFFFFFFFFFFFFFFFFFFFFFFFFFFFFFFFFFFFFFFFFF DUP3 SUB PUSH2 0x8C4 JUMPI PUSH2 0x8C3 PUSH2 0x858 JUMP JUMPDEST JUMPDEST PUSH1 0x1 DUP3 ADD SWAP1 POP SWAP2 SWAP1 POP JUMP JUMPDEST PUSH32 0x4E487B7100000000000000000000000000000000000000000000000000000000 PUSH1 0x0 MSTORE PUSH1 0x41 PUSH1 0x4 MSTORE PUSH1 0x24 PUSH1 0x0 REVERT JUMPDEST PUSH1 0x0 DUP2 SWAP1 POP SWAP3 SWAP2 POP POP JUMP JUMPDEST POP JUMP JUMPDEST PUSH1 0x0 PUSH2 0x919 PUSH1 0x0 DUP4 PUSH2 0x8FE JUMP JUMPDEST SWAP2 POP PUSH2 0x924 DUP3 PUSH2 0x909 JUMP JUMPDEST PUSH1 0x0 DUP3 ADD SWAP1 POP SWAP2 SWAP1 POP JUMP JUMPDEST PUSH1 0x0 PUSH2 0x93A DUP3 PUSH2 0x90C JUMP JUMPDEST SWAP2 POP DUP2 SWAP1 POP SWAP2 SWAP1 POP JUMP JUMPDEST PUSH32 0x4E6F742073656E74000000000000000000000000000000000000000000000000 PUSH1 0x0 DUP3 ADD MSTORE POP JUMP JUMPDEST PUSH1 0x0 PUSH2 0x97A PUSH1 0x8 DUP4 PUSH2 0x7AC JUMP JUMPDEST SWAP2 POP PUSH2 0x985 DUP3 PUSH2 0x944 JUMP JUMPDEST PUSH1 0x20 DUP3 ADD SWAP1 POP SWAP2 SWAP1 POP JUMP JUMPDEST PUSH1 0x0 PUSH1 0x20 DUP3 ADD SWAP1 POP DUP2 DUP2 SUB PUSH1 0x0 DUP4 ADD MSTORE PUSH2 0x9A9 DUP2 PUSH2 0x96D JUMP JUMPDEST SWAP1 POP SWAP2 SWAP1 POP JUMP JUMPDEST PUSH32 0x4469646E27742073656E6420656E6F7567680000000000000000000000000000 PUSH1 0x0 DUP3 ADD MSTORE POP JUMP JUMPDEST PUSH1 0x0 PUSH2 0x9E6 PUSH1 0x12 DUP4 PUSH2 0x7AC JUMP JUMPDEST SWAP2 POP PUSH2 0x9F1 DUP3 PUSH2 0x9B0 JUMP JUMPDEST PUSH1 0x20 DUP3 ADD SWAP1 POP SWAP2 SWAP1 POP JUMP JUMPDEST PUSH1 0x0 PUSH1 0x20 DUP3 ADD SWAP1 POP DUP2 DUP2 SUB PUSH1 0x0 DUP4 ADD MSTORE PUSH2 0xA15 DUP2 PUSH2 0x9D9 JUMP JUMPDEST SWAP1 POP SWAP2 SWAP1 POP JUMP JUMPDEST PUSH1 0x0 PUSH2 0xA27 DUP3 PUSH2 0x6F5 JUMP JUMPDEST SWAP2 POP PUSH2 0xA32 DUP4 PUSH2 0x6F5 JUMP JUMPDEST SWAP3 POP DUP3 DUP3 ADD SWAP1 POP DUP1 DUP3 GT ISZERO PUSH2 0xA4A JUMPI PUSH2 0xA49 PUSH2 0x858 JUMP JUMPDEST JUMPDEST SWAP3 SWAP2 POP POP JUMP JUMPDEST PUSH1 0x0 PUSH2 0xA5B DUP3 PUSH2 0x6F5 JUMP JUMPDEST SWAP2 POP PUSH2 0xA66 DUP4 PUSH2 0x6F5 JUMP JUMPDEST SWAP3 POP DUP3 DUP3 MUL PUSH2 0xA74 DUP2 PUSH2 0x6F5 JUMP JUMPDEST SWAP2 POP DUP3 DUP3 DIV DUP5 EQ DUP4 ISZERO OR PUSH2 0xA8B JUMPI PUSH2 0xA8A PUSH2 0x858 JUMP JUMPDEST JUMPDEST POP SWAP3 SWAP2 POP POP JUMP JUMPDEST PUSH32 0x4E487B7100000000000000000000000000000000000000000000000000000000 PUSH1 0x0 MSTORE PUSH1 0x12 PUSH1 0x4 MSTORE PUSH1 0x24 PUSH1 0x0 REVERT JUMPDEST PUSH1 0x0 PUSH2 0xACC DUP3 PUSH2 0x6F5 JUMP JUMPDEST SWAP2 POP PUSH2 0xAD7 DUP4 PUSH2 0x6F5 JUMP JUMPDEST SWAP3 POP DUP3 PUSH2 0xAE7 JUMPI PUSH2 0xAE6 PUSH2 0xA92 JUMP JUMPDEST JUMPDEST DUP3 DUP3 DIV SWAP1 POP SWAP3 SWAP2 POP POP JUMP JUMPDEST PUSH1 0x0 PUSH10 0xFFFFFFFFFFFFFFFFFFFF DUP3 AND SWAP1 POP SWAP2 SWAP1 POP JUMP JUMPDEST PUSH2 0xB11 DUP2 PUSH2 0xAF2 JUMP JUMPDEST DUP2 EQ PUSH2 0xB1C JUMPI PUSH1 0x0 DUP1 REVERT JUMPDEST POP JUMP JUMPDEST PUSH1 0x0 DUP2 MLOAD SWAP1 POP PUSH2 0xB2E DUP2 PUSH2 0xB08 JUMP JUMPDEST SWAP3 SWAP2 POP POP JUMP JUMPDEST PUSH1 0x0 DUP2 SWAP1 POP SWAP2 SWAP1 POP JUMP JUMPDEST PUSH2 0xB47 DUP2 PUSH2 0xB34 JUMP JUMPDEST DUP2 EQ PUSH2 0xB52 JUMPI PUSH1 0x0 DUP1 REVERT JUMPDEST POP JUMP JUMPDEST PUSH1 0x0 DUP2 MLOAD SWAP1 POP PUSH2 0xB64 DUP2 PUSH2 0xB3E JUMP JUMPDEST SWAP3 SWAP2 POP POP JUMP JUMPDEST PUSH1 0x0 DUP2 MLOAD SWAP1 POP PUSH2 0xB79 DUP2 PUSH2 0x753 JUMP JUMPDEST SWAP3 SWAP2 POP POP JUMP JUMPDEST PUSH1 0x0 DUP1 PUSH1 0x0 DUP1 PUSH1 0x0 PUSH1 0xA0 DUP7 DUP9 SUB SLT ISZERO PUSH2 0xB9B JUMPI PUSH2 0xB9A PUSH2 0x665 JUMP JUMPDEST JUMPDEST PUSH1 0x0 PUSH2 0xBA9 DUP9 DUP3 DUP10 ADD PUSH2 0xB1F JUMP JUMPDEST SWAP6 POP POP PUSH1 0x20 PUSH2 0xBBA DUP9 DUP3 DUP10 ADD PUSH2 0xB55 JUMP JUMPDEST SWAP5 POP POP PUSH1 0x40 PUSH2 0xBCB DUP9 DUP3 DUP10 ADD PUSH2 0xB6A JUMP JUMPDEST SWAP4 POP POP PUSH1 0x60 PUSH2 0xBDC DUP9 DUP3 DUP10 ADD PUSH2 0xB6A JUMP JUMPDEST SWAP3 POP POP PUSH1 0x80 PUSH2 0xBED DUP9 DUP3 DUP10 ADD PUSH2 0xB1F JUMP JUMPDEST SWAP2 POP POP SWAP3 SWAP6 POP SWAP3 SWAP6 SWAP1 SWAP4 POP JUMP JUMPDEST PUSH1 0x0 PUSH2 0xC05 DUP3 PUSH2 0xB34 JUMP JUMPDEST SWAP2 POP PUSH2 0xC10 DUP4 PUSH2 0xB34 JUMP JUMPDEST SWAP3 POP DUP3 DUP3 MUL PUSH2 0xC1E DUP2 PUSH2 0xB34 JUMP JUMPDEST SWAP2 POP PUSH32 0x8000000000000000000000000000000000000000000000000000000000000000 DUP5 EQ PUSH1 0x0 DUP5 SLT AND ISZERO PUSH2 0xC56 JUMPI PUSH2 0xC55 PUSH2 0x858 JUMP JUMPDEST JUMPDEST DUP3 DUP3 SDIV DUP5 EQ DUP4 ISZERO OR PUSH2 0xC6B JUMPI PUSH2 0xC6A PUSH2 0x858 JUMP JUMPDEST JUMPDEST POP SWAP3 SWAP2 POP POP JUMP INVALID LOG2 PUSH5 0x6970667358 0x22 SLT KECCAK256 SWAP9 DUP14 0x2F SELFDESTRUCT PREVRANDAO 0xC7 0xAD 0xBF 0xDD PUSH24 0xCB148DFF1B3A5031278F4CB4D959697003D7D73EF2DD6473 PUSH16 0x6C634300081200330000000000000000 "
		},
		"gasEstimates": {
			"creation": {
				"codeDepositCost": "648000",
				"executionCost": "47055",
				"totalCost": "695055"
			},
			"external": {
				"amounts(address)": "2814",
				"fund()": "infinite",
				"funders(uint256)": "5022",
				"owner()": "2536",
				"withdraw()": "infinite"
			}
		},
		"methodIdentifiers": {
			"amounts(address)": "55a3b2c1",
			"fund()": "b60d4288",
			"funders(uint256)": "dc0d3dff",
			"owner()": "8da5cb5b",
			"withdraw()": "3ccfd60b"
		}
	},
	"abi": [
		{
			"inputs": [],
			"stateMutability": "nonpayable",
			"type": "constructor"
		},
		{
			"inputs": [
				{
					"internalType": "address",
					"name": "",
					"type": "address"
				}
			],
			"name": "amounts",
			"outputs": [
				{
					"internalType": "uint256",
					"name": "",
					"type": "uint256"
				}
			],
			"stateMutability": "view",
			"type": "function"
		},
		{
			"inputs": [],
			"name": "fund",
			"outputs": [],
			"stateMutability": "payable",
			"type": "function"
		},
		{
			"inputs": [
				{
					"internalType": "uint256",
					"name": "",
					"type": "uint256"
				}
			],
			"name": "funders",
			"outputs": [
				{
					"internalType": "address",
					"name": "",
					"type": "address"
				}
			],
			"stateMutability": "view",
			"type": "function"
		},
		{
			"inputs": [],
			"name": "owner",
			"outputs": [
				{
					"internalType": "address",
					"name": "",
					"type": "address"
				}
			],
			"stateMutability": "view",
			"type": "function"
		},
		{
			"inputs": [],
			"name": "withdraw",
			"outputs": [],
			"stateMutability": "nonpayable",
			"type": "function"
		}
	]
}