{
	"data": {
		"bytecode": {
			"linkReferences": {},
			"object": "6080604052603260005534801561001557600080fd5b5073694aa1769357215de4fac081bf1f309adc325306600160006101000a81548173ffffffffffffffffffffffffffffffffffffffff021916908373ffffffffffffffffffffffffffffffffffffffff1602179055506105708061007a6000396000f3fe6080604052600436106100345760003560e01c80636e5b6b281461003957806398d5fdca14610076578063b60d4288146100a1575b600080fd5b34801561004557600080fd5b50610060600480360381019061005b9190610215565b6100ab565b60405161006d9190610251565b60405180910390f35b34801561008257600080fd5b5061008b6100da565b6040516100989190610251565b60405180910390f35b6100a961018b565b005b6000670de0b6b3a76400006100be6100da565b836100c9919061029b565b6100d3919061030c565b9050919050565b600080600160009054906101000a900473ffffffffffffffffffffffffffffffffffffffff1673ffffffffffffffffffffffffffffffffffffffff1663feaf968c6040518163ffffffff1660e01b815260040160a060405180830381865afa15801561014a573d6000803e3d6000fd5b505050506040513d601f19601f8201168201806040525081019061016e91906103ca565b5050509150506402540be400816101859190610445565b91505090565b600054610197346100ab565b10156101d8576040517f08c379a00000000000000000000000000000000000000000000000000000000081526004016101cf9061051a565b60405180910390fd5b565b600080fd5b6000819050919050565b6101f2816101df565b81146101fd57600080fd5b50565b60008135905061020f816101e9565b92915050565b60006020828403121561022b5761022a6101da565b5b600061023984828501610200565b91505092915050565b61024b816101df565b82525050565b60006020820190506102666000830184610242565b92915050565b7f4e487b7100000000000000000000000000000000000000000000000000000000600052601160045260246000fd5b60006102a6826101df565b91506102b1836101df565b92508282026102bf816101df565b915082820484148315176102d6576102d561026c565b5b5092915050565b7f4e487b7100000000000000000000000000000000000000000000000000000000600052601260045260246000fd5b6000610317826101df565b9150610322836101df565b925082610332576103316102dd565b5b828204905092915050565b600069ffffffffffffffffffff82169050919050565b61035c8161033d565b811461036757600080fd5b50565b60008151905061037981610353565b92915050565b6000819050919050565b6103928161037f565b811461039d57600080fd5b50565b6000815190506103af81610389565b92915050565b6000815190506103c4816101e9565b92915050565b600080600080600060a086880312156103e6576103e56101da565b5b60006103f48882890161036a565b9550506020610405888289016103a0565b9450506040610416888289016103b5565b9350506060610427888289016103b5565b92505060806104388882890161036a565b9150509295509295909350565b60006104508261037f565b915061045b8361037f565b92508282026104698161037f565b91507f800000000000000000000000000000000000000000000000000000000000000084146000841216156104a1576104a061026c565b5b82820584148315176104b6576104b561026c565b5b5092915050565b600082825260208201905092915050565b7f4469646e27742073656e6420656e6f7567680000000000000000000000000000600082015250565b60006105046012836104bd565b915061050f826104ce565b602082019050919050565b60006020820190508181036000830152610533816104f7565b905091905056fea2646970667358221220978686121ab7f0b73dfd74d27b4971689e1489e5bd71b6d2ac0c895a3bbb232764736f6c63430008120033",
			"opcodes": "PUSH1 0x80 PUSH1 0x40 MSTORE PUSH1 0x32 PUSH1 0x0 SSTORE CALLVALUE DUP1 ISZERO PUSH2 0x15 JUMPI PUSH1 0x0 DUP1 REVERT JUMPDEST POP PUSH20 0x694AA1769357215DE4FAC081BF1F309ADC325306 PUSH1 0x1 PUSH1 0x0 PUSH2 0x100 EXP DUP2 SLOAD DUP2 PUSH20 0xFFFFFFFFFFFFFFFFFFFFFFFFFFFFFFFFFFFFFFFF MUL NOT AND SWAP1 DUP4 PUSH20 0xFFFFFFFFFFFFFFFFFFFFFFFFFFFFFFFFFFFFFFFF AND MUL OR SWAP1 SSTORE POP PUSH2 0x570 DUP1 PUSH2 0x7A PUSH1 0x0 CODECOPY PUSH1 0x0 RETURN INVALID PUSH1 0x80 PUSH1 0x40 MSTORE PUSH1 0x4 CALLDATASIZE LT PUSH2 0x34 JUMPI PUSH1 0x0 CALLDATALOAD PUSH1 0xE0 SHR DUP1 PUSH4 0x6E5B6B28 EQ PUSH2 0x39 JUMPI DUP1 PUSH4 0x98D5FDCA EQ PUSH2 0x76 JUMPI DUP1 PUSH4 0xB60D4288 EQ PUSH2 0xA1 JUMPI JUMPDEST PUSH1 0x0 DUP1 REVERT JUMPDEST CALLVALUE DUP1 ISZERO PUSH2 0x45 JUMPI PUSH1 0x0 DUP1 REVERT JUMPDEST POP PUSH2 0x60 PUSH1 0x4 DUP1 CALLDATASIZE SUB DUP2 ADD SWAP1 PUSH2 0x5B SWAP2 SWAP1 PUSH2 0x215 JUMP JUMPDEST PUSH2 0xAB JUMP JUMPDEST PUSH1 0x40 MLOAD PUSH2 0x6D SWAP2 SWAP1 PUSH2 0x251 JUMP JUMPDEST PUSH1 0x40 MLOAD DUP1 SWAP2 SUB SWAP1 RETURN JUMPDEST CALLVALUE DUP1 ISZERO PUSH2 0x82 JUMPI PUSH1 0x0 DUP1 REVERT JUMPDEST POP PUSH2 0x8B PUSH2 0xDA JUMP JUMPDEST PUSH1 0x40 MLOAD PUSH2 0x98 SWAP2 SWAP1 PUSH2 0x251 JUMP JUMPDEST PUSH1 0x40 MLOAD DUP1 SWAP2 SUB SWAP1 RETURN JUMPDEST PUSH2 0xA9 PUSH2 0x18B JUMP JUMPDEST STOP JUMPDEST PUSH1 0x0 PUSH8 0xDE0B6B3A7640000 PUSH2 0xBE PUSH2 0xDA JUMP JUMPDEST DUP4 PUSH2 0xC9 SWAP2 SWAP1 PUSH2 0x29B JUMP JUMPDEST PUSH2 0xD3 SWAP2 SWAP1 PUSH2 0x30C JUMP JUMPDEST SWAP1 POP SWAP2 SWAP1 POP JUMP JUMPDEST PUSH1 0x0 DUP1 PUSH1 0x1 PUSH1 0x0 SWAP1 SLOAD SWAP1 PUSH2 0x100 EXP SWAP1 DIV PUSH20 0xFFFFFFFFFFFFFFFFFFFFFFFFFFFFFFFFFFFFFFFF AND PUSH20 0xFFFFFFFFFFFFFFFFFFFFFFFFFFFFFFFFFFFFFFFF AND PUSH4 0xFEAF968C PUSH1 0x40 MLOAD DUP2 PUSH4 0xFFFFFFFF AND PUSH1 0xE0 SHL DUP2 MSTORE PUSH1 0x4 ADD PUSH1 0xA0 PUSH1 0x40 MLOAD DUP1 DUP4 SUB DUP2 DUP7 GAS STATICCALL ISZERO DUP1 ISZERO PUSH2 0x14A JUMPI RETURNDATASIZE PUSH1 0x0 DUP1 RETURNDATACOPY RETURNDATASIZE PUSH1 0x0 REVERT JUMPDEST POP POP POP POP PUSH1 0x40 MLOAD RETURNDATASIZE PUSH1 0x1F NOT PUSH1 0x1F DUP3 ADD AND DUP3 ADD DUP1 PUSH1 0x40 MSTORE POP DUP2 ADD SWAP1 PUSH2 0x16E SWAP2 SWAP1 PUSH2 0x3CA JUMP JUMPDEST POP POP POP SWAP2 POP POP PUSH5 0x2540BE400 DUP2 PUSH2 0x185 SWAP2 SWAP1 PUSH2 0x445 JUMP JUMPDEST SWAP2 POP POP SWAP1 JUMP JUMPDEST PUSH1 0x0 SLOAD PUSH2 0x197 CALLVALUE PUSH2 0xAB JUMP JUMPDEST LT ISZERO PUSH2 0x1D8 JUMPI PUSH1 0x40 MLOAD PUSH32 0x8C379A000000000000000000000000000000000000000000000000000000000 DUP2 MSTORE PUSH1 0x4 ADD PUSH2 0x1CF SWAP1 PUSH2 0x51A JUMP JUMPDEST PUSH1 0x40 MLOAD DUP1 SWAP2 SUB SWAP1 REVERT JUMPDEST JUMP JUMPDEST PUSH1 0x0 DUP1 REVERT JUMPDEST PUSH1 0x0 DUP2 SWAP1 POP SWAP2 SWAP1 POP JUMP JUMPDEST PUSH2 0x1F2 DUP2 PUSH2 0x1DF JUMP JUMPDEST DUP2 EQ PUSH2 0x1FD JUMPI PUSH1 0x0 DUP1 REVERT JUMPDEST POP JUMP JUMPDEST PUSH1 0x0 DUP2 CALLDATALOAD SWAP1 POP PUSH2 0x20F DUP2 PUSH2 0x1E9 JUMP JUMPDEST SWAP3 SWAP2 POP POP JUMP JUMPDEST PUSH1 0x0 PUSH1 0x20 DUP3 DUP5 SUB SLT ISZERO PUSH2 0x22B JUMPI PUSH2 0x22A PUSH2 0x1DA JUMP JUMPDEST JUMPDEST PUSH1 0x0 PUSH2 0x239 DUP5 DUP3 DUP6 ADD PUSH2 0x200 JUMP JUMPDEST SWAP2 POP POP SWAP3 SWAP2 POP POP JUMP JUMPDEST PUSH2 0x24B DUP2 PUSH2 0x1DF JUMP JUMPDEST DUP3 MSTORE POP POP JUMP JUMPDEST PUSH1 0x0 PUSH1 0x20 DUP3 ADD SWAP1 POP PUSH2 0x266 PUSH1 0x0 DUP4 ADD DUP5 PUSH2 0x242 JUMP JUMPDEST SWAP3 SWAP2 POP POP JUMP JUMPDEST PUSH32 0x4E487B7100000000000000000000000000000000000000000000000000000000 PUSH1 0x0 MSTORE PUSH1 0x11 PUSH1 0x4 MSTORE PUSH1 0x24 PUSH1 0x0 REVERT JUMPDEST PUSH1 0x0 PUSH2 0x2A6 DUP3 PUSH2 0x1DF JUMP JUMPDEST SWAP2 POP PUSH2 0x2B1 DUP4 PUSH2 0x1DF JUMP JUMPDEST SWAP3 POP DUP3 DUP3 MUL PUSH2 0x2BF DUP2 PUSH2 0x1DF JUMP JUMPDEST SWAP2 POP DUP3 DUP3 DIV DUP5 EQ DUP4 ISZERO OR PUSH2 0x2D6 JUMPI PUSH2 0x2D5 PUSH2 0x26C JUMP JUMPDEST JUMPDEST POP SWAP3 SWAP2 POP POP JUMP JUMPDEST PUSH32 0x4E487B7100000000000000000000000000000000000000000000000000000000 PUSH1 0x0 MSTORE PUSH1 0x12 PUSH1 0x4 MSTORE PUSH1 0x24 PUSH1 0x0 REVERT JUMPDEST PUSH1 0x0 PUSH2 0x317 DUP3 PUSH2 0x1DF JUMP JUMPDEST SWAP2 POP PUSH2 0x322 DUP4 PUSH2 0x1DF JUMP JUMPDEST SWAP3 POP DUP3 PUSH2 0x332 JUMPI PUSH2 0x331 PUSH2 0x2DD JUMP JUMPDEST JUMPDEST DUP3 DUP3 DIV SWAP1 POP SWAP3 SWAP2 POP POP JUMP JUMPDEST PUSH1 0x0 PUSH10 0xFFFFFFFFFFFFFFFFFFFF DUP3 AND SWAP1 POP SWAP2 SWAP1 POP JUMP JUMPDEST PUSH2 0x35C DUP2 PUSH2 0x33D JUMP JUMPDEST DUP2 EQ PUSH2 0x367 JUMPI PUSH1 0x0 DUP1 REVERT JUMPDEST POP JUMP JUMPDEST PUSH1 0x0 DUP2 MLOAD SWAP1 POP PUSH2 0x379 DUP2 PUSH2 0x353 JUMP JUMPDEST SWAP3 SWAP2 POP POP JUMP JUMPDEST PUSH1 0x0 DUP2 SWAP1 POP SWAP2 SWAP1 POP JUMP JUMPDEST PUSH2 0x392 DUP2 PUSH2 0x37F JUMP JUMPDEST DUP2 EQ PUSH2 0x39D JUMPI PUSH1 0x0 DUP1 REVERT JUMPDEST POP JUMP JUMPDEST PUSH1 0x0 DUP2 MLOAD SWAP1 POP PUSH2 0x3AF DUP2 PUSH2 0x389 JUMP JUMPDEST SWAP3 SWAP2 POP POP JUMP JUMPDEST PUSH1 0x0 DUP2 MLOAD SWAP1 POP PUSH2 0x3C4 DUP2 PUSH2 0x1E9 JUMP JUMPDEST SWAP3 SWAP2 POP POP JUMP JUMPDEST PUSH1 0x0 DUP1 PUSH1 0x0 DUP1 PUSH1 0x0 PUSH1 0xA0 DUP7 DUP9 SUB SLT ISZERO PUSH2 0x3E6 JUMPI PUSH2 0x3E5 PUSH2 0x1DA JUMP JUMPDEST JUMPDEST PUSH1 0x0 PUSH2 0x3F4 DUP9 DUP3 DUP10 ADD PUSH2 0x36A JUMP JUMPDEST SWAP6 POP POP PUSH1 0x20 PUSH2 0x405 DUP9 DUP3 DUP10 ADD PUSH2 0x3A0 JUMP JUMPDEST SWAP5 POP POP PUSH1 0x40 PUSH2 0x416 DUP9 DUP3 DUP10 ADD PUSH2 0x3B5 JUMP JUMPDEST SWAP4 POP POP PUSH1 0x60 PUSH2 0x427 DUP9 DUP3 DUP10 ADD PUSH2 0x3B5 JUMP JUMPDEST SWAP3 POP POP PUSH1 0x80 PUSH2 0x438 DUP9 DUP3 DUP10 ADD PUSH2 0x36A JUMP JUMPDEST SWAP2 POP POP SWAP3 SWAP6 POP SWAP3 SWAP6 SWAP1 SWAP4 POP JUMP JUMPDEST PUSH1 0x0 PUSH2 0x450 DUP3 PUSH2 0x37F JUMP JUMPDEST SWAP2 POP PUSH2 0x45B DUP4 PUSH2 0x37F JUMP JUMPDEST SWAP3 POP DUP3 DUP3 MUL PUSH2 0x469 DUP2 PUSH2 0x37F JUMP JUMPDEST SWAP2 POP PUSH32 0x8000000000000000000000000000000000000000000000000000000000000000 DUP5 EQ PUSH1 0x0 DUP5 SLT AND ISZERO PUSH2 0x4A1 JUMPI PUSH2 0x4A0 PUSH2 0x26C JUMP JUMPDEST JUMPDEST DUP3 DUP3 SDIV DUP5 EQ DUP4 ISZERO OR PUSH2 0x4B6 JUMPI PUSH2 0x4B5 PUSH2 0x26C JUMP JUMPDEST JUMPDEST POP SWAP3 SWAP2 POP POP JUMP JUMPDEST PUSH1 0x0 DUP3 DUP3 MSTORE PUSH1 0x20 DUP3 ADD SWAP1 POP SWAP3 SWAP2 POP POP JUMP JUMPDEST PUSH32 0x4469646E27742073656E6420656E6F7567680000000000000000000000000000 PUSH1 0x0 DUP3 ADD MSTORE POP JUMP JUMPDEST PUSH1 0x0 PUSH2 0x504 PUSH1 0x12 DUP4 PUSH2 0x4BD JUMP JUMPDEST SWAP2 POP PUSH2 0x50F DUP3 PUSH2 0x4CE JUMP JUMPDEST PUSH1 0x20 DUP3 ADD SWAP1 POP SWAP2 SWAP1 POP JUMP JUMPDEST PUSH1 0x0 PUSH1 0x20 DUP3 ADD SWAP1 POP DUP2 DUP2 SUB PUSH1 0x0 DUP4 ADD MSTORE PUSH2 0x533 DUP2 PUSH2 0x4F7 JUMP JUMPDEST SWAP1 POP SWAP2 SWAP1 POP JUMP INVALID LOG2 PUSH5 0x6970667358 0x22 SLT KECCAK256 SWAP8 DUP7 DUP7 SLT BYTE 0xB7 CREATE 0xB7 RETURNDATASIZE REVERT PUSH21 0xD27B4971689E1489E5BD71B6D2AC0C895A3BBB2327 PUSH5 0x736F6C6343 STOP ADDMOD SLT STOP CALLER "
		},
		"gasEstimates": {
			"creation": {
				"codeDepositCost": "278400",
				"executionCost": "46691",
				"totalCost": "325091"
			},
			"external": {
				"fund()": "infinite",
				"getConversionRate(uint256)": "infinite",
				"getPrice()": "infinite"
			},
			"internal": {
				"withdraw()": "infinite"
			}
		},
		"methodIdentifiers": {
			"fund()": "b60d4288",
			"getConversionRate(uint256)": "6e5b6b28",
			"getPrice()": "98d5fdca"
		}
	},
	"abi": [
		{
			"inputs": [],
			"stateMutability": "nonpayable",
			"type": "constructor"
		},
		{
			"inputs": [],
			"name": "fund",
			"outputs": [],
			"stateMutability": "payable",
			"type": "function"
		},
		{
			"inputs": [
				{
					"internalType": "uint256",
					"name": "amountInEth",
					"type": "uint256"
				}
			],
			"name": "getConversionRate",
			"outputs": [
				{
					"internalType": "uint256",
					"name": "",
					"type": "uint256"
				}
			],
			"stateMutability": "view",
			"type": "function"
		},
		{
			"inputs": [],
			"name": "getPrice",
			"outputs": [
				{
					"internalType": "uint256",
					"name": "",
					"type": "uint256"
				}
			],
			"stateMutability": "view",
			"type": "function"
		}
	]
}