{
	"data": {
		"bytecode": {
			"linkReferences": {},
			"object": "608060405234801561001057600080fd5b506113ee806100206000396000f3fe60806040523480156200001157600080fd5b5060043610620000525760003560e01c80636ed28ed014620000575780639507d39a14620000775780639eaa423914620000ad578063fb971d0114620000e3575b600080fd5b6200007560048036038101906200006f919062000387565b620000ef565b005b6200009560048036038101906200008f9190620003ce565b620001a8565b604051620000a4919062000411565b60405180910390f35b620000cb6004803603810190620000c59190620003ce565b62000269565b604051620000da9190620004b9565b60405180910390f35b620000ed620002a9565b005b6000808381548110620001075762000106620004d6565b5b9060005260206000200160009054906101000a900473ffffffffffffffffffffffffffffffffffffffff1690508073ffffffffffffffffffffffffffffffffffffffff1663b6339418836040518263ffffffff1660e01b81526004016200016f919062000411565b600060405180830381600087803b1580156200018a57600080fd5b505af11580156200019f573d6000803e3d6000fd5b50505050505050565b60008060008381548110620001c257620001c1620004d6565b5b9060005260206000200160009054906101000a900473ffffffffffffffffffffffffffffffffffffffff1690508073ffffffffffffffffffffffffffffffffffffffff16632e64cec16040518163ffffffff1660e01b8152600401602060405180830381865afa1580156200023b573d6000803e3d6000fd5b505050506040513d601f19601f820116820180604052508101906200026191906200051c565b915050919050565b600081815481106200027a57600080fd5b906000526020600020016000915054906101000a900473ffffffffffffffffffffffffffffffffffffffff1681565b6000604051620002b99062000339565b604051809103906000f080158015620002d6573d6000803e3d6000fd5b509080600181540180825580915050600190039060005260206000200160009091909190916101000a81548173ffffffffffffffffffffffffffffffffffffffff021916908373ffffffffffffffffffffffffffffffffffffffff160217905550565b610e6a806200054f83390190565b600080fd5b6000819050919050565b62000361816200034c565b81146200036d57600080fd5b50565b600081359050620003818162000356565b92915050565b60008060408385031215620003a157620003a062000347565b5b6000620003b18582860162000370565b9250506020620003c48582860162000370565b9150509250929050565b600060208284031215620003e757620003e662000347565b5b6000620003f78482850162000370565b91505092915050565b6200040b816200034c565b82525050565b600060208201905062000428600083018462000400565b92915050565b600073ffffffffffffffffffffffffffffffffffffffff82169050919050565b6000819050919050565b600062000479620004736200046d846200042e565b6200044e565b6200042e565b9050919050565b60006200048d8262000458565b9050919050565b6000620004a18262000480565b9050919050565b620004b38162000494565b82525050565b6000602082019050620004d06000830184620004a8565b92915050565b7f4e487b7100000000000000000000000000000000000000000000000000000000600052603260045260246000fd5b600081519050620005168162000356565b92915050565b60006020828403121562000535576200053462000347565b5b6000620005458482850162000505565b9150509291505056fe608060405260405180604001604052806040518060400160405280600481526020017f4e416d65000000000000000000000000000000000000000000000000000000008152508152602001602d8152506001600082015181600001908162000068919062000303565b506020820151816001015550503480156200008257600080fd5b50620003ea565b600081519050919050565b7f4e487b7100000000000000000000000000000000000000000000000000000000600052604160045260246000fd5b7f4e487b7100000000000000000000000000000000000000000000000000000000600052602260045260246000fd5b600060028204905060018216806200010b57607f821691505b602082108103620001215762000120620000c3565b5b50919050565b60008190508160005260206000209050919050565b60006020601f8301049050919050565b600082821b905092915050565b6000600883026200018b7fffffffffffffffffffffffffffffffffffffffffffffffffffffffffffffffff826200014c565b6200019786836200014c565b95508019841693508086168417925050509392505050565b6000819050919050565b6000819050919050565b6000620001e4620001de620001d884620001af565b620001b9565b620001af565b9050919050565b6000819050919050565b6200020083620001c3565b620002186200020f82620001eb565b84845462000159565b825550505050565b600090565b6200022f62000220565b6200023c818484620001f5565b505050565b5b8181101562000264576200025860008262000225565b60018101905062000242565b5050565b601f821115620002b3576200027d8162000127565b62000288846200013c565b8101602085101562000298578190505b620002b0620002a7856200013c565b83018262000241565b50505b505050565b600082821c905092915050565b6000620002d860001984600802620002b8565b1980831691505092915050565b6000620002f38383620002c5565b9150826002028217905092915050565b6200030e8262000089565b67ffffffffffffffff8111156200032a576200032962000094565b5b620003368254620000f2565b6200034382828562000268565b600060209050601f8311600181146200037b576000841562000366578287015190505b620003728582620002e5565b865550620003e2565b601f1984166200038b8662000127565b60005b82811015620003b5578489015182556001820191506020850194506020810190506200038e565b86831015620003d55784890151620003d1601f891682620002c5565b8355505b6001600288020188555050505b505050505050565b610a7080620003fa6000396000f3fe608060405234801561001057600080fd5b50600436106100885760003560e01c80639e7a13ad1161005b5780639e7a13ad14610104578063b633941814610135578063d06bf88314610151578063e0b1e47d1461016f57610088565b80631b913f0a1461008d5780632e64cec1146100a957806346cb59c2146100c75780638381f58a146100e6575b600080fd5b6100a760048036038101906100a2919061055e565b61019f565b005b6100b1610228565b6040516100be91906105c9565b60405180910390f35b6100cf610231565b6040516100dd929190610663565b60405180910390f35b6100ee6102cb565b6040516100fb91906105c9565b60405180910390f35b61011e60048036038101906101199190610693565b6102d1565b60405161012c929190610663565b60405180910390f35b61014f600480360381019061014a9190610693565b61038d565b005b610159610397565b60405161016691906105c9565b60405180910390f35b610189600480360381019061018491906106c0565b6103a0565b60405161019691906105c9565b60405180910390f35b6004604051806040016040528084815260200183815250908060018154018082558091505060019003906000526020600020906002020160009091909190915060008201518160000190816101f49190610915565b50602082015181600101555050806003836040516102129190610a23565b9081526020016040518091039020819055505050565b60008054905090565b600180600001805461024290610738565b80601f016020809104026020016040519081016040528092919081815260200182805461026e90610738565b80156102bb5780601f10610290576101008083540402835291602001916102bb565b820191906000526020600020905b81548152906001019060200180831161029e57829003601f168201915b5050505050908060010154905082565b60005481565b600481815481106102e157600080fd5b906000526020600020906002020160009150905080600001805461030490610738565b80601f016020809104026020016040519081016040528092919081815260200182805461033090610738565b801561037d5780601f106103525761010080835404028352916020019161037d565b820191906000526020600020905b81548152906001019060200180831161036057829003601f168201915b5050505050908060010154905082565b8060008190555050565b60006002905090565b6003818051602081018201805184825260208301602085012081835280955050505050506000915090505481565b6000604051905090565b600080fd5b600080fd5b600080fd5b600080fd5b6000601f19601f8301169050919050565b7f4e487b7100000000000000000000000000000000000000000000000000000000600052604160045260246000fd5b610435826103ec565b810181811067ffffffffffffffff82111715610454576104536103fd565b5b80604052505050565b60006104676103ce565b9050610473828261042c565b919050565b600067ffffffffffffffff821115610493576104926103fd565b5b61049c826103ec565b9050602081019050919050565b82818337600083830152505050565b60006104cb6104c684610478565b61045d565b9050828152602081018484840111156104e7576104e66103e7565b5b6104f28482856104a9565b509392505050565b600082601f83011261050f5761050e6103e2565b5b813561051f8482602086016104b8565b91505092915050565b6000819050919050565b61053b81610528565b811461054657600080fd5b50565b60008135905061055881610532565b92915050565b60008060408385031215610575576105746103d8565b5b600083013567ffffffffffffffff811115610593576105926103dd565b5b61059f858286016104fa565b92505060206105b085828601610549565b9150509250929050565b6105c381610528565b82525050565b60006020820190506105de60008301846105ba565b92915050565b600081519050919050565b600082825260208201905092915050565b60005b8381101561061e578082015181840152602081019050610603565b60008484015250505050565b6000610635826105e4565b61063f81856105ef565b935061064f818560208601610600565b610658816103ec565b840191505092915050565b6000604082019050818103600083015261067d818561062a565b905061068c60208301846105ba565b9392505050565b6000602082840312156106a9576106a86103d8565b5b60006106b784828501610549565b91505092915050565b6000602082840312156106d6576106d56103d8565b5b600082013567ffffffffffffffff8111156106f4576106f36103dd565b5b610700848285016104fa565b91505092915050565b7f4e487b7100000000000000000000000000000000000000000000000000000000600052602260045260246000fd5b6000600282049050600182168061075057607f821691505b60208210810361076357610762610709565b5b50919050565b60008190508160005260206000209050919050565b60006020601f8301049050919050565b600082821b905092915050565b6000600883026107cb7fffffffffffffffffffffffffffffffffffffffffffffffffffffffffffffffff8261078e565b6107d5868361078e565b95508019841693508086168417925050509392505050565b6000819050919050565b600061081261080d61080884610528565b6107ed565b610528565b9050919050565b6000819050919050565b61082c836107f7565b61084061083882610819565b84845461079b565b825550505050565b600090565b610855610848565b610860818484610823565b505050565b5b818110156108845761087960008261084d565b600181019050610866565b5050565b601f8211156108c95761089a81610769565b6108a38461077e565b810160208510156108b2578190505b6108c66108be8561077e565b830182610865565b50505b505050565b600082821c905092915050565b60006108ec600019846008026108ce565b1980831691505092915050565b600061090583836108db565b9150826002028217905092915050565b61091e826105e4565b67ffffffffffffffff811115610937576109366103fd565b5b6109418254610738565b61094c828285610888565b600060209050601f83116001811461097f576000841561096d578287015190505b61097785826108f9565b8655506109df565b601f19841661098d86610769565b60005b828110156109b557848901518255600182019150602085019450602081019050610990565b868310156109d257848901516109ce601f8916826108db565b8355505b6001600288020188555050505b505050505050565b600081905092915050565b60006109fd826105e4565b610a0781856109e7565b9350610a17818560208601610600565b80840191505092915050565b6000610a2f82846109f2565b91508190509291505056fea26469706673582212202b75034c675c4bce058e6869528e429d78d554c2eeeb89b07374811515706abc64736f6c63430008120033a2646970667358221220c4a978f8bb19eddc9d950d461d247c033e127bbf0dd5f31b8dba54d0b2269a3964736f6c63430008120033",
			"opcodes": "PUSH1 0x80 PUSH1 0x40 MSTORE CALLVALUE DUP1 ISZERO PUSH2 0x10 JUMPI PUSH1 0x0 DUP1 REVERT JUMPDEST POP PUSH2 0x13EE DUP1 PUSH2 0x20 PUSH1 0x0 CODECOPY PUSH1 0x0 RETURN INVALID PUSH1 0x80 PUSH1 0x40 MSTORE CALLVALUE DUP1 ISZERO PUSH3 0x11 JUMPI PUSH1 0x0 DUP1 REVERT JUMPDEST POP PUSH1 0x4 CALLDATASIZE LT PUSH3 0x52 JUMPI PUSH1 0x0 CALLDATALOAD PUSH1 0xE0 SHR DUP1 PUSH4 0x6ED28ED0 EQ PUSH3 0x57 JUMPI DUP1 PUSH4 0x9507D39A EQ PUSH3 0x77 JUMPI DUP1 PUSH4 0x9EAA4239 EQ PUSH3 0xAD JUMPI DUP1 PUSH4 0xFB971D01 EQ PUSH3 0xE3 JUMPI JUMPDEST PUSH1 0x0 DUP1 REVERT JUMPDEST PUSH3 0x75 PUSH1 0x4 DUP1 CALLDATASIZE SUB DUP2 ADD SWAP1 PUSH3 0x6F SWAP2 SWAP1 PUSH3 0x387 JUMP JUMPDEST PUSH3 0xEF JUMP JUMPDEST STOP JUMPDEST PUSH3 0x95 PUSH1 0x4 DUP1 CALLDATASIZE SUB DUP2 ADD SWAP1 PUSH3 0x8F SWAP2 SWAP1 PUSH3 0x3CE JUMP JUMPDEST PUSH3 0x1A8 JUMP JUMPDEST PUSH1 0x40 MLOAD PUSH3 0xA4 SWAP2 SWAP1 PUSH3 0x411 JUMP JUMPDEST PUSH1 0x40 MLOAD DUP1 SWAP2 SUB SWAP1 RETURN JUMPDEST PUSH3 0xCB PUSH1 0x4 DUP1 CALLDATASIZE SUB DUP2 ADD SWAP1 PUSH3 0xC5 SWAP2 SWAP1 PUSH3 0x3CE JUMP JUMPDEST PUSH3 0x269 JUMP JUMPDEST PUSH1 0x40 MLOAD PUSH3 0xDA SWAP2 SWAP1 PUSH3 0x4B9 JUMP JUMPDEST PUSH1 0x40 MLOAD DUP1 SWAP2 SUB SWAP1 RETURN JUMPDEST PUSH3 0xED PUSH3 0x2A9 JUMP JUMPDEST STOP JUMPDEST PUSH1 0x0 DUP1 DUP4 DUP2 SLOAD DUP2 LT PUSH3 0x107 JUMPI PUSH3 0x106 PUSH3 0x4D6 JUMP JUMPDEST JUMPDEST SWAP1 PUSH1 0x0 MSTORE PUSH1 0x20 PUSH1 0x0 KECCAK256 ADD PUSH1 0x0 SWAP1 SLOAD SWAP1 PUSH2 0x100 EXP SWAP1 DIV PUSH20 0xFFFFFFFFFFFFFFFFFFFFFFFFFFFFFFFFFFFFFFFF AND SWAP1 POP DUP1 PUSH20 0xFFFFFFFFFFFFFFFFFFFFFFFFFFFFFFFFFFFFFFFF AND PUSH4 0xB6339418 DUP4 PUSH1 0x40 MLOAD DUP3 PUSH4 0xFFFFFFFF AND PUSH1 0xE0 SHL DUP2 MSTORE PUSH1 0x4 ADD PUSH3 0x16F SWAP2 SWAP1 PUSH3 0x411 JUMP JUMPDEST PUSH1 0x0 PUSH1 0x40 MLOAD DUP1 DUP4 SUB DUP2 PUSH1 0x0 DUP8 DUP1 EXTCODESIZE ISZERO DUP1 ISZERO PUSH3 0x18A JUMPI PUSH1 0x0 DUP1 REVERT JUMPDEST POP GAS CALL ISZERO DUP1 ISZERO PUSH3 0x19F JUMPI RETURNDATASIZE PUSH1 0x0 DUP1 RETURNDATACOPY RETURNDATASIZE PUSH1 0x0 REVERT JUMPDEST POP POP POP POP POP POP POP JUMP JUMPDEST PUSH1 0x0 DUP1 PUSH1 0x0 DUP4 DUP2 SLOAD DUP2 LT PUSH3 0x1C2 JUMPI PUSH3 0x1C1 PUSH3 0x4D6 JUMP JUMPDEST JUMPDEST SWAP1 PUSH1 0x0 MSTORE PUSH1 0x20 PUSH1 0x0 KECCAK256 ADD PUSH1 0x0 SWAP1 SLOAD SWAP1 PUSH2 0x100 EXP SWAP1 DIV PUSH20 0xFFFFFFFFFFFFFFFFFFFFFFFFFFFFFFFFFFFFFFFF AND SWAP1 POP DUP1 PUSH20 0xFFFFFFFFFFFFFFFFFFFFFFFFFFFFFFFFFFFFFFFF AND PUSH4 0x2E64CEC1 PUSH1 0x40 MLOAD DUP2 PUSH4 0xFFFFFFFF AND PUSH1 0xE0 SHL DUP2 MSTORE PUSH1 0x4 ADD PUSH1 0x20 PUSH1 0x40 MLOAD DUP1 DUP4 SUB DUP2 DUP7 GAS STATICCALL ISZERO DUP1 ISZERO PUSH3 0x23B JUMPI RETURNDATASIZE PUSH1 0x0 DUP1 RETURNDATACOPY RETURNDATASIZE PUSH1 0x0 REVERT JUMPDEST POP POP POP POP PUSH1 0x40 MLOAD RETURNDATASIZE PUSH1 0x1F NOT PUSH1 0x1F DUP3 ADD AND DUP3 ADD DUP1 PUSH1 0x40 MSTORE POP DUP2 ADD SWAP1 PUSH3 0x261 SWAP2 SWAP1 PUSH3 0x51C JUMP JUMPDEST SWAP2 POP POP SWAP2 SWAP1 POP JUMP JUMPDEST PUSH1 0x0 DUP2 DUP2 SLOAD DUP2 LT PUSH3 0x27A JUMPI PUSH1 0x0 DUP1 REVERT JUMPDEST SWAP1 PUSH1 0x0 MSTORE PUSH1 0x20 PUSH1 0x0 KECCAK256 ADD PUSH1 0x0 SWAP2 POP SLOAD SWAP1 PUSH2 0x100 EXP SWAP1 DIV PUSH20 0xFFFFFFFFFFFFFFFFFFFFFFFFFFFFFFFFFFFFFFFF AND DUP2 JUMP JUMPDEST PUSH1 0x0 PUSH1 0x40 MLOAD PUSH3 0x2B9 SWAP1 PUSH3 0x339 JUMP JUMPDEST PUSH1 0x40 MLOAD DUP1 SWAP2 SUB SWAP1 PUSH1 0x0 CREATE DUP1 ISZERO DUP1 ISZERO PUSH3 0x2D6 JUMPI RETURNDATASIZE PUSH1 0x0 DUP1 RETURNDATACOPY RETURNDATASIZE PUSH1 0x0 REVERT JUMPDEST POP SWAP1 DUP1 PUSH1 0x1 DUP2 SLOAD ADD DUP1 DUP3 SSTORE DUP1 SWAP2 POP POP PUSH1 0x1 SWAP1 SUB SWAP1 PUSH1 0x0 MSTORE PUSH1 0x20 PUSH1 0x0 KECCAK256 ADD PUSH1 0x0 SWAP1 SWAP2 SWAP1 SWAP2 SWAP1 SWAP2 PUSH2 0x100 EXP DUP2 SLOAD DUP2 PUSH20 0xFFFFFFFFFFFFFFFFFFFFFFFFFFFFFFFFFFFFFFFF MUL NOT AND SWAP1 DUP4 PUSH20 0xFFFFFFFFFFFFFFFFFFFFFFFFFFFFFFFFFFFFFFFF AND MUL OR SWAP1 SSTORE POP JUMP JUMPDEST PUSH2 0xE6A DUP1 PUSH3 0x54F DUP4 CODECOPY ADD SWAP1 JUMP JUMPDEST PUSH1 0x0 DUP1 REVERT JUMPDEST PUSH1 0x0 DUP2 SWAP1 POP SWAP2 SWAP1 POP JUMP JUMPDEST PUSH3 0x361 DUP2 PUSH3 0x34C JUMP JUMPDEST DUP2 EQ PUSH3 0x36D JUMPI PUSH1 0x0 DUP1 REVERT JUMPDEST POP JUMP JUMPDEST PUSH1 0x0 DUP2 CALLDATALOAD SWAP1 POP PUSH3 0x381 DUP2 PUSH3 0x356 JUMP JUMPDEST SWAP3 SWAP2 POP POP JUMP JUMPDEST PUSH1 0x0 DUP1 PUSH1 0x40 DUP4 DUP6 SUB SLT ISZERO PUSH3 0x3A1 JUMPI PUSH3 0x3A0 PUSH3 0x347 JUMP JUMPDEST JUMPDEST PUSH1 0x0 PUSH3 0x3B1 DUP6 DUP3 DUP7 ADD PUSH3 0x370 JUMP JUMPDEST SWAP3 POP POP PUSH1 0x20 PUSH3 0x3C4 DUP6 DUP3 DUP7 ADD PUSH3 0x370 JUMP JUMPDEST SWAP2 POP POP SWAP3 POP SWAP3 SWAP1 POP JUMP JUMPDEST PUSH1 0x0 PUSH1 0x20 DUP3 DUP5 SUB SLT ISZERO PUSH3 0x3E7 JUMPI PUSH3 0x3E6 PUSH3 0x347 JUMP JUMPDEST JUMPDEST PUSH1 0x0 PUSH3 0x3F7 DUP5 DUP3 DUP6 ADD PUSH3 0x370 JUMP JUMPDEST SWAP2 POP POP SWAP3 SWAP2 POP POP JUMP JUMPDEST PUSH3 0x40B DUP2 PUSH3 0x34C JUMP JUMPDEST DUP3 MSTORE POP POP JUMP JUMPDEST PUSH1 0x0 PUSH1 0x20 DUP3 ADD SWAP1 POP PUSH3 0x428 PUSH1 0x0 DUP4 ADD DUP5 PUSH3 0x400 JUMP JUMPDEST SWAP3 SWAP2 POP POP JUMP JUMPDEST PUSH1 0x0 PUSH20 0xFFFFFFFFFFFFFFFFFFFFFFFFFFFFFFFFFFFFFFFF DUP3 AND SWAP1 POP SWAP2 SWAP1 POP JUMP JUMPDEST PUSH1 0x0 DUP2 SWAP1 POP SWAP2 SWAP1 POP JUMP JUMPDEST PUSH1 0x0 PUSH3 0x479 PUSH3 0x473 PUSH3 0x46D DUP5 PUSH3 0x42E JUMP JUMPDEST PUSH3 0x44E JUMP JUMPDEST PUSH3 0x42E JUMP JUMPDEST SWAP1 POP SWAP2 SWAP1 POP JUMP JUMPDEST PUSH1 0x0 PUSH3 0x48D DUP3 PUSH3 0x458 JUMP JUMPDEST SWAP1 POP SWAP2 SWAP1 POP JUMP JUMPDEST PUSH1 0x0 PUSH3 0x4A1 DUP3 PUSH3 0x480 JUMP JUMPDEST SWAP1 POP SWAP2 SWAP1 POP JUMP JUMPDEST PUSH3 0x4B3 DUP2 PUSH3 0x494 JUMP JUMPDEST DUP3 MSTORE POP POP JUMP JUMPDEST PUSH1 0x0 PUSH1 0x20 DUP3 ADD SWAP1 POP PUSH3 0x4D0 PUSH1 0x0 DUP4 ADD DUP5 PUSH3 0x4A8 JUMP JUMPDEST SWAP3 SWAP2 POP POP JUMP JUMPDEST PUSH32 0x4E487B7100000000000000000000000000000000000000000000000000000000 PUSH1 0x0 MSTORE PUSH1 0x32 PUSH1 0x4 MSTORE PUSH1 0x24 PUSH1 0x0 REVERT JUMPDEST PUSH1 0x0 DUP2 MLOAD SWAP1 POP PUSH3 0x516 DUP2 PUSH3 0x356 JUMP JUMPDEST SWAP3 SWAP2 POP POP JUMP JUMPDEST PUSH1 0x0 PUSH1 0x20 DUP3 DUP5 SUB SLT ISZERO PUSH3 0x535 JUMPI PUSH3 0x534 PUSH3 0x347 JUMP JUMPDEST JUMPDEST PUSH1 0x0 PUSH3 0x545 DUP5 DUP3 DUP6 ADD PUSH3 0x505 JUMP JUMPDEST SWAP2 POP POP SWAP3 SWAP2 POP POP JUMP INVALID PUSH1 0x80 PUSH1 0x40 MSTORE PUSH1 0x40 MLOAD DUP1 PUSH1 0x40 ADD PUSH1 0x40 MSTORE DUP1 PUSH1 0x40 MLOAD DUP1 PUSH1 0x40 ADD PUSH1 0x40 MSTORE DUP1 PUSH1 0x4 DUP2 MSTORE PUSH1 0x20 ADD PUSH32 0x4E416D6500000000000000000000000000000000000000000000000000000000 DUP2 MSTORE POP DUP2 MSTORE PUSH1 0x20 ADD PUSH1 0x2D DUP2 MSTORE POP PUSH1 0x1 PUSH1 0x0 DUP3 ADD MLOAD DUP2 PUSH1 0x0 ADD SWAP1 DUP2 PUSH3 0x68 SWAP2 SWAP1 PUSH3 0x303 JUMP JUMPDEST POP PUSH1 0x20 DUP3 ADD MLOAD DUP2 PUSH1 0x1 ADD SSTORE POP POP CALLVALUE DUP1 ISZERO PUSH3 0x82 JUMPI PUSH1 0x0 DUP1 REVERT JUMPDEST POP PUSH3 0x3EA JUMP JUMPDEST PUSH1 0x0 DUP2 MLOAD SWAP1 POP SWAP2 SWAP1 POP JUMP JUMPDEST PUSH32 0x4E487B7100000000000000000000000000000000000000000000000000000000 PUSH1 0x0 MSTORE PUSH1 0x41 PUSH1 0x4 MSTORE PUSH1 0x24 PUSH1 0x0 REVERT JUMPDEST PUSH32 0x4E487B7100000000000000000000000000000000000000000000000000000000 PUSH1 0x0 MSTORE PUSH1 0x22 PUSH1 0x4 MSTORE PUSH1 0x24 PUSH1 0x0 REVERT JUMPDEST PUSH1 0x0 PUSH1 0x2 DUP3 DIV SWAP1 POP PUSH1 0x1 DUP3 AND DUP1 PUSH3 0x10B JUMPI PUSH1 0x7F DUP3 AND SWAP2 POP JUMPDEST PUSH1 0x20 DUP3 LT DUP2 SUB PUSH3 0x121 JUMPI PUSH3 0x120 PUSH3 0xC3 JUMP JUMPDEST JUMPDEST POP SWAP2 SWAP1 POP JUMP JUMPDEST PUSH1 0x0 DUP2 SWAP1 POP DUP2 PUSH1 0x0 MSTORE PUSH1 0x20 PUSH1 0x0 KECCAK256 SWAP1 POP SWAP2 SWAP1 POP JUMP JUMPDEST PUSH1 0x0 PUSH1 0x20 PUSH1 0x1F DUP4 ADD DIV SWAP1 POP SWAP2 SWAP1 POP JUMP JUMPDEST PUSH1 0x0 DUP3 DUP3 SHL SWAP1 POP SWAP3 SWAP2 POP POP JUMP JUMPDEST PUSH1 0x0 PUSH1 0x8 DUP4 MUL PUSH3 0x18B PUSH32 0xFFFFFFFFFFFFFFFFFFFFFFFFFFFFFFFFFFFFFFFFFFFFFFFFFFFFFFFFFFFFFFFF DUP3 PUSH3 0x14C JUMP JUMPDEST PUSH3 0x197 DUP7 DUP4 PUSH3 0x14C JUMP JUMPDEST SWAP6 POP DUP1 NOT DUP5 AND SWAP4 POP DUP1 DUP7 AND DUP5 OR SWAP3 POP POP POP SWAP4 SWAP3 POP POP POP JUMP JUMPDEST PUSH1 0x0 DUP2 SWAP1 POP SWAP2 SWAP1 POP JUMP JUMPDEST PUSH1 0x0 DUP2 SWAP1 POP SWAP2 SWAP1 POP JUMP JUMPDEST PUSH1 0x0 PUSH3 0x1E4 PUSH3 0x1DE PUSH3 0x1D8 DUP5 PUSH3 0x1AF JUMP JUMPDEST PUSH3 0x1B9 JUMP JUMPDEST PUSH3 0x1AF JUMP JUMPDEST SWAP1 POP SWAP2 SWAP1 POP JUMP JUMPDEST PUSH1 0x0 DUP2 SWAP1 POP SWAP2 SWAP1 POP JUMP JUMPDEST PUSH3 0x200 DUP4 PUSH3 0x1C3 JUMP JUMPDEST PUSH3 0x218 PUSH3 0x20F DUP3 PUSH3 0x1EB JUMP JUMPDEST DUP5 DUP5 SLOAD PUSH3 0x159 JUMP JUMPDEST DUP3 SSTORE POP POP POP POP JUMP JUMPDEST PUSH1 0x0 SWAP1 JUMP JUMPDEST PUSH3 0x22F PUSH3 0x220 JUMP JUMPDEST PUSH3 0x23C DUP2 DUP5 DUP5 PUSH3 0x1F5 JUMP JUMPDEST POP POP POP JUMP JUMPDEST JUMPDEST DUP2 DUP2 LT ISZERO PUSH3 0x264 JUMPI PUSH3 0x258 PUSH1 0x0 DUP3 PUSH3 0x225 JUMP JUMPDEST PUSH1 0x1 DUP2 ADD SWAP1 POP PUSH3 0x242 JUMP JUMPDEST POP POP JUMP JUMPDEST PUSH1 0x1F DUP3 GT ISZERO PUSH3 0x2B3 JUMPI PUSH3 0x27D DUP2 PUSH3 0x127 JUMP JUMPDEST PUSH3 0x288 DUP5 PUSH3 0x13C JUMP JUMPDEST DUP2 ADD PUSH1 0x20 DUP6 LT ISZERO PUSH3 0x298 JUMPI DUP2 SWAP1 POP JUMPDEST PUSH3 0x2B0 PUSH3 0x2A7 DUP6 PUSH3 0x13C JUMP JUMPDEST DUP4 ADD DUP3 PUSH3 0x241 JUMP JUMPDEST POP POP JUMPDEST POP POP POP JUMP JUMPDEST PUSH1 0x0 DUP3 DUP3 SHR SWAP1 POP SWAP3 SWAP2 POP POP JUMP JUMPDEST PUSH1 0x0 PUSH3 0x2D8 PUSH1 0x0 NOT DUP5 PUSH1 0x8 MUL PUSH3 0x2B8 JUMP JUMPDEST NOT DUP1 DUP4 AND SWAP2 POP POP SWAP3 SWAP2 POP POP JUMP JUMPDEST PUSH1 0x0 PUSH3 0x2F3 DUP4 DUP4 PUSH3 0x2C5 JUMP JUMPDEST SWAP2 POP DUP3 PUSH1 0x2 MUL DUP3 OR SWAP1 POP SWAP3 SWAP2 POP POP JUMP JUMPDEST PUSH3 0x30E DUP3 PUSH3 0x89 JUMP JUMPDEST PUSH8 0xFFFFFFFFFFFFFFFF DUP2 GT ISZERO PUSH3 0x32A JUMPI PUSH3 0x329 PUSH3 0x94 JUMP JUMPDEST JUMPDEST PUSH3 0x336 DUP3 SLOAD PUSH3 0xF2 JUMP JUMPDEST PUSH3 0x343 DUP3 DUP3 DUP6 PUSH3 0x268 JUMP JUMPDEST PUSH1 0x0 PUSH1 0x20 SWAP1 POP PUSH1 0x1F DUP4 GT PUSH1 0x1 DUP2 EQ PUSH3 0x37B JUMPI PUSH1 0x0 DUP5 ISZERO PUSH3 0x366 JUMPI DUP3 DUP8 ADD MLOAD SWAP1 POP JUMPDEST PUSH3 0x372 DUP6 DUP3 PUSH3 0x2E5 JUMP JUMPDEST DUP7 SSTORE POP PUSH3 0x3E2 JUMP JUMPDEST PUSH1 0x1F NOT DUP5 AND PUSH3 0x38B DUP7 PUSH3 0x127 JUMP JUMPDEST PUSH1 0x0 JUMPDEST DUP3 DUP2 LT ISZERO PUSH3 0x3B5 JUMPI DUP5 DUP10 ADD MLOAD DUP3 SSTORE PUSH1 0x1 DUP3 ADD SWAP2 POP PUSH1 0x20 DUP6 ADD SWAP5 POP PUSH1 0x20 DUP2 ADD SWAP1 POP PUSH3 0x38E JUMP JUMPDEST DUP7 DUP4 LT ISZERO PUSH3 0x3D5 JUMPI DUP5 DUP10 ADD MLOAD PUSH3 0x3D1 PUSH1 0x1F DUP10 AND DUP3 PUSH3 0x2C5 JUMP JUMPDEST DUP4 SSTORE POP JUMPDEST PUSH1 0x1 PUSH1 0x2 DUP9 MUL ADD DUP9 SSTORE POP POP POP JUMPDEST POP POP POP POP POP POP JUMP JUMPDEST PUSH2 0xA70 DUP1 PUSH3 0x3FA PUSH1 0x0 CODECOPY PUSH1 0x0 RETURN INVALID PUSH1 0x80 PUSH1 0x40 MSTORE CALLVALUE DUP1 ISZERO PUSH2 0x10 JUMPI PUSH1 0x0 DUP1 REVERT JUMPDEST POP PUSH1 0x4 CALLDATASIZE LT PUSH2 0x88 JUMPI PUSH1 0x0 CALLDATALOAD PUSH1 0xE0 SHR DUP1 PUSH4 0x9E7A13AD GT PUSH2 0x5B JUMPI DUP1 PUSH4 0x9E7A13AD EQ PUSH2 0x104 JUMPI DUP1 PUSH4 0xB6339418 EQ PUSH2 0x135 JUMPI DUP1 PUSH4 0xD06BF883 EQ PUSH2 0x151 JUMPI DUP1 PUSH4 0xE0B1E47D EQ PUSH2 0x16F JUMPI PUSH2 0x88 JUMP JUMPDEST DUP1 PUSH4 0x1B913F0A EQ PUSH2 0x8D JUMPI DUP1 PUSH4 0x2E64CEC1 EQ PUSH2 0xA9 JUMPI DUP1 PUSH4 0x46CB59C2 EQ PUSH2 0xC7 JUMPI DUP1 PUSH4 0x8381F58A EQ PUSH2 0xE6 JUMPI JUMPDEST PUSH1 0x0 DUP1 REVERT JUMPDEST PUSH2 0xA7 PUSH1 0x4 DUP1 CALLDATASIZE SUB DUP2 ADD SWAP1 PUSH2 0xA2 SWAP2 SWAP1 PUSH2 0x55E JUMP JUMPDEST PUSH2 0x19F JUMP JUMPDEST STOP JUMPDEST PUSH2 0xB1 PUSH2 0x228 JUMP JUMPDEST PUSH1 0x40 MLOAD PUSH2 0xBE SWAP2 SWAP1 PUSH2 0x5C9 JUMP JUMPDEST PUSH1 0x40 MLOAD DUP1 SWAP2 SUB SWAP1 RETURN JUMPDEST PUSH2 0xCF PUSH2 0x231 JUMP JUMPDEST PUSH1 0x40 MLOAD PUSH2 0xDD SWAP3 SWAP2 SWAP1 PUSH2 0x663 JUMP JUMPDEST PUSH1 0x40 MLOAD DUP1 SWAP2 SUB SWAP1 RETURN JUMPDEST PUSH2 0xEE PUSH2 0x2CB JUMP JUMPDEST PUSH1 0x40 MLOAD PUSH2 0xFB SWAP2 SWAP1 PUSH2 0x5C9 JUMP JUMPDEST PUSH1 0x40 MLOAD DUP1 SWAP2 SUB SWAP1 RETURN JUMPDEST PUSH2 0x11E PUSH1 0x4 DUP1 CALLDATASIZE SUB DUP2 ADD SWAP1 PUSH2 0x119 SWAP2 SWAP1 PUSH2 0x693 JUMP JUMPDEST PUSH2 0x2D1 JUMP JUMPDEST PUSH1 0x40 MLOAD PUSH2 0x12C SWAP3 SWAP2 SWAP1 PUSH2 0x663 JUMP JUMPDEST PUSH1 0x40 MLOAD DUP1 SWAP2 SUB SWAP1 RETURN JUMPDEST PUSH2 0x14F PUSH1 0x4 DUP1 CALLDATASIZE SUB DUP2 ADD SWAP1 PUSH2 0x14A SWAP2 SWAP1 PUSH2 0x693 JUMP JUMPDEST PUSH2 0x38D JUMP JUMPDEST STOP JUMPDEST PUSH2 0x159 PUSH2 0x397 JUMP JUMPDEST PUSH1 0x40 MLOAD PUSH2 0x166 SWAP2 SWAP1 PUSH2 0x5C9 JUMP JUMPDEST PUSH1 0x40 MLOAD DUP1 SWAP2 SUB SWAP1 RETURN JUMPDEST PUSH2 0x189 PUSH1 0x4 DUP1 CALLDATASIZE SUB DUP2 ADD SWAP1 PUSH2 0x184 SWAP2 SWAP1 PUSH2 0x6C0 JUMP JUMPDEST PUSH2 0x3A0 JUMP JUMPDEST PUSH1 0x40 MLOAD PUSH2 0x196 SWAP2 SWAP1 PUSH2 0x5C9 JUMP JUMPDEST PUSH1 0x40 MLOAD DUP1 SWAP2 SUB SWAP1 RETURN JUMPDEST PUSH1 0x4 PUSH1 0x40 MLOAD DUP1 PUSH1 0x40 ADD PUSH1 0x40 MSTORE DUP1 DUP5 DUP2 MSTORE PUSH1 0x20 ADD DUP4 DUP2 MSTORE POP SWAP1 DUP1 PUSH1 0x1 DUP2 SLOAD ADD DUP1 DUP3 SSTORE DUP1 SWAP2 POP POP PUSH1 0x1 SWAP1 SUB SWAP1 PUSH1 0x0 MSTORE PUSH1 0x20 PUSH1 0x0 KECCAK256 SWAP1 PUSH1 0x2 MUL ADD PUSH1 0x0 SWAP1 SWAP2 SWAP1 SWAP2 SWAP1 SWAP2 POP PUSH1 0x0 DUP3 ADD MLOAD DUP2 PUSH1 0x0 ADD SWAP1 DUP2 PUSH2 0x1F4 SWAP2 SWAP1 PUSH2 0x915 JUMP JUMPDEST POP PUSH1 0x20 DUP3 ADD MLOAD DUP2 PUSH1 0x1 ADD SSTORE POP POP DUP1 PUSH1 0x3 DUP4 PUSH1 0x40 MLOAD PUSH2 0x212 SWAP2 SWAP1 PUSH2 0xA23 JUMP JUMPDEST SWAP1 DUP2 MSTORE PUSH1 0x20 ADD PUSH1 0x40 MLOAD DUP1 SWAP2 SUB SWAP1 KECCAK256 DUP2 SWAP1 SSTORE POP POP POP JUMP JUMPDEST PUSH1 0x0 DUP1 SLOAD SWAP1 POP SWAP1 JUMP JUMPDEST PUSH1 0x1 DUP1 PUSH1 0x0 ADD DUP1 SLOAD PUSH2 0x242 SWAP1 PUSH2 0x738 JUMP JUMPDEST DUP1 PUSH1 0x1F ADD PUSH1 0x20 DUP1 SWAP2 DIV MUL PUSH1 0x20 ADD PUSH1 0x40 MLOAD SWAP1 DUP2 ADD PUSH1 0x40 MSTORE DUP1 SWAP3 SWAP2 SWAP1 DUP2 DUP2 MSTORE PUSH1 0x20 ADD DUP3 DUP1 SLOAD PUSH2 0x26E SWAP1 PUSH2 0x738 JUMP JUMPDEST DUP1 ISZERO PUSH2 0x2BB JUMPI DUP1 PUSH1 0x1F LT PUSH2 0x290 JUMPI PUSH2 0x100 DUP1 DUP4 SLOAD DIV MUL DUP4 MSTORE SWAP2 PUSH1 0x20 ADD SWAP2 PUSH2 0x2BB JUMP JUMPDEST DUP3 ADD SWAP2 SWAP1 PUSH1 0x0 MSTORE PUSH1 0x20 PUSH1 0x0 KECCAK256 SWAP1 JUMPDEST DUP2 SLOAD DUP2 MSTORE SWAP1 PUSH1 0x1 ADD SWAP1 PUSH1 0x20 ADD DUP1 DUP4 GT PUSH2 0x29E JUMPI DUP3 SWAP1 SUB PUSH1 0x1F AND DUP3 ADD SWAP2 JUMPDEST POP POP POP POP POP SWAP1 DUP1 PUSH1 0x1 ADD SLOAD SWAP1 POP DUP3 JUMP JUMPDEST PUSH1 0x0 SLOAD DUP2 JUMP JUMPDEST PUSH1 0x4 DUP2 DUP2 SLOAD DUP2 LT PUSH2 0x2E1 JUMPI PUSH1 0x0 DUP1 REVERT JUMPDEST SWAP1 PUSH1 0x0 MSTORE PUSH1 0x20 PUSH1 0x0 KECCAK256 SWAP1 PUSH1 0x2 MUL ADD PUSH1 0x0 SWAP2 POP SWAP1 POP DUP1 PUSH1 0x0 ADD DUP1 SLOAD PUSH2 0x304 SWAP1 PUSH2 0x738 JUMP JUMPDEST DUP1 PUSH1 0x1F ADD PUSH1 0x20 DUP1 SWAP2 DIV MUL PUSH1 0x20 ADD PUSH1 0x40 MLOAD SWAP1 DUP2 ADD PUSH1 0x40 MSTORE DUP1 SWAP3 SWAP2 SWAP1 DUP2 DUP2 MSTORE PUSH1 0x20 ADD DUP3 DUP1 SLOAD PUSH2 0x330 SWAP1 PUSH2 0x738 JUMP JUMPDEST DUP1 ISZERO PUSH2 0x37D JUMPI DUP1 PUSH1 0x1F LT PUSH2 0x352 JUMPI PUSH2 0x100 DUP1 DUP4 SLOAD DIV MUL DUP4 MSTORE SWAP2 PUSH1 0x20 ADD SWAP2 PUSH2 0x37D JUMP JUMPDEST DUP3 ADD SWAP2 SWAP1 PUSH1 0x0 MSTORE PUSH1 0x20 PUSH1 0x0 KECCAK256 SWAP1 JUMPDEST DUP2 SLOAD DUP2 MSTORE SWAP1 PUSH1 0x1 ADD SWAP1 PUSH1 0x20 ADD DUP1 DUP4 GT PUSH2 0x360 JUMPI DUP3 SWAP1 SUB PUSH1 0x1F AND DUP3 ADD SWAP2 JUMPDEST POP POP POP POP POP SWAP1 DUP1 PUSH1 0x1 ADD SLOAD SWAP1 POP DUP3 JUMP JUMPDEST DUP1 PUSH1 0x0 DUP2 SWAP1 SSTORE POP POP JUMP JUMPDEST PUSH1 0x0 PUSH1 0x2 SWAP1 POP SWAP1 JUMP JUMPDEST PUSH1 0x3 DUP2 DUP1 MLOAD PUSH1 0x20 DUP2 ADD DUP3 ADD DUP1 MLOAD DUP5 DUP3 MSTORE PUSH1 0x20 DUP4 ADD PUSH1 0x20 DUP6 ADD KECCAK256 DUP2 DUP4 MSTORE DUP1 SWAP6 POP POP POP POP POP POP PUSH1 0x0 SWAP2 POP SWAP1 POP SLOAD DUP2 JUMP JUMPDEST PUSH1 0x0 PUSH1 0x40 MLOAD SWAP1 POP SWAP1 JUMP JUMPDEST PUSH1 0x0 DUP1 REVERT JUMPDEST PUSH1 0x0 DUP1 REVERT JUMPDEST PUSH1 0x0 DUP1 REVERT JUMPDEST PUSH1 0x0 DUP1 REVERT JUMPDEST PUSH1 0x0 PUSH1 0x1F NOT PUSH1 0x1F DUP4 ADD AND SWAP1 POP SWAP2 SWAP1 POP JUMP JUMPDEST PUSH32 0x4E487B7100000000000000000000000000000000000000000000000000000000 PUSH1 0x0 MSTORE PUSH1 0x41 PUSH1 0x4 MSTORE PUSH1 0x24 PUSH1 0x0 REVERT JUMPDEST PUSH2 0x435 DUP3 PUSH2 0x3EC JUMP JUMPDEST DUP2 ADD DUP2 DUP2 LT PUSH8 0xFFFFFFFFFFFFFFFF DUP3 GT OR ISZERO PUSH2 0x454 JUMPI PUSH2 0x453 PUSH2 0x3FD JUMP JUMPDEST JUMPDEST DUP1 PUSH1 0x40 MSTORE POP POP POP JUMP JUMPDEST PUSH1 0x0 PUSH2 0x467 PUSH2 0x3CE JUMP JUMPDEST SWAP1 POP PUSH2 0x473 DUP3 DUP3 PUSH2 0x42C JUMP JUMPDEST SWAP2 SWAP1 POP JUMP JUMPDEST PUSH1 0x0 PUSH8 0xFFFFFFFFFFFFFFFF DUP3 GT ISZERO PUSH2 0x493 JUMPI PUSH2 0x492 PUSH2 0x3FD JUMP JUMPDEST JUMPDEST PUSH2 0x49C DUP3 PUSH2 0x3EC JUMP JUMPDEST SWAP1 POP PUSH1 0x20 DUP2 ADD SWAP1 POP SWAP2 SWAP1 POP JUMP JUMPDEST DUP3 DUP2 DUP4 CALLDATACOPY PUSH1 0x0 DUP4 DUP4 ADD MSTORE POP POP POP JUMP JUMPDEST PUSH1 0x0 PUSH2 0x4CB PUSH2 0x4C6 DUP5 PUSH2 0x478 JUMP JUMPDEST PUSH2 0x45D JUMP JUMPDEST SWAP1 POP DUP3 DUP2 MSTORE PUSH1 0x20 DUP2 ADD DUP5 DUP5 DUP5 ADD GT ISZERO PUSH2 0x4E7 JUMPI PUSH2 0x4E6 PUSH2 0x3E7 JUMP JUMPDEST JUMPDEST PUSH2 0x4F2 DUP5 DUP3 DUP6 PUSH2 0x4A9 JUMP JUMPDEST POP SWAP4 SWAP3 POP POP POP JUMP JUMPDEST PUSH1 0x0 DUP3 PUSH1 0x1F DUP4 ADD SLT PUSH2 0x50F JUMPI PUSH2 0x50E PUSH2 0x3E2 JUMP JUMPDEST JUMPDEST DUP2 CALLDATALOAD PUSH2 0x51F DUP5 DUP3 PUSH1 0x20 DUP7 ADD PUSH2 0x4B8 JUMP JUMPDEST SWAP2 POP POP SWAP3 SWAP2 POP POP JUMP JUMPDEST PUSH1 0x0 DUP2 SWAP1 POP SWAP2 SWAP1 POP JUMP JUMPDEST PUSH2 0x53B DUP2 PUSH2 0x528 JUMP JUMPDEST DUP2 EQ PUSH2 0x546 JUMPI PUSH1 0x0 DUP1 REVERT JUMPDEST POP JUMP JUMPDEST PUSH1 0x0 DUP2 CALLDATALOAD SWAP1 POP PUSH2 0x558 DUP2 PUSH2 0x532 JUMP JUMPDEST SWAP3 SWAP2 POP POP JUMP JUMPDEST PUSH1 0x0 DUP1 PUSH1 0x40 DUP4 DUP6 SUB SLT ISZERO PUSH2 0x575 JUMPI PUSH2 0x574 PUSH2 0x3D8 JUMP JUMPDEST JUMPDEST PUSH1 0x0 DUP4 ADD CALLDATALOAD PUSH8 0xFFFFFFFFFFFFFFFF DUP2 GT ISZERO PUSH2 0x593 JUMPI PUSH2 0x592 PUSH2 0x3DD JUMP JUMPDEST JUMPDEST PUSH2 0x59F DUP6 DUP3 DUP7 ADD PUSH2 0x4FA JUMP JUMPDEST SWAP3 POP POP PUSH1 0x20 PUSH2 0x5B0 DUP6 DUP3 DUP7 ADD PUSH2 0x549 JUMP JUMPDEST SWAP2 POP POP SWAP3 POP SWAP3 SWAP1 POP JUMP JUMPDEST PUSH2 0x5C3 DUP2 PUSH2 0x528 JUMP JUMPDEST DUP3 MSTORE POP POP JUMP JUMPDEST PUSH1 0x0 PUSH1 0x20 DUP3 ADD SWAP1 POP PUSH2 0x5DE PUSH1 0x0 DUP4 ADD DUP5 PUSH2 0x5BA JUMP JUMPDEST SWAP3 SWAP2 POP POP JUMP JUMPDEST PUSH1 0x0 DUP2 MLOAD SWAP1 POP SWAP2 SWAP1 POP JUMP JUMPDEST PUSH1 0x0 DUP3 DUP3 MSTORE PUSH1 0x20 DUP3 ADD SWAP1 POP SWAP3 SWAP2 POP POP JUMP JUMPDEST PUSH1 0x0 JUMPDEST DUP4 DUP2 LT ISZERO PUSH2 0x61E JUMPI DUP1 DUP3 ADD MLOAD DUP2 DUP5 ADD MSTORE PUSH1 0x20 DUP2 ADD SWAP1 POP PUSH2 0x603 JUMP JUMPDEST PUSH1 0x0 DUP5 DUP5 ADD MSTORE POP POP POP POP JUMP JUMPDEST PUSH1 0x0 PUSH2 0x635 DUP3 PUSH2 0x5E4 JUMP JUMPDEST PUSH2 0x63F DUP2 DUP6 PUSH2 0x5EF JUMP JUMPDEST SWAP4 POP PUSH2 0x64F DUP2 DUP6 PUSH1 0x20 DUP7 ADD PUSH2 0x600 JUMP JUMPDEST PUSH2 0x658 DUP2 PUSH2 0x3EC JUMP JUMPDEST DUP5 ADD SWAP2 POP POP SWAP3 SWAP2 POP POP JUMP JUMPDEST PUSH1 0x0 PUSH1 0x40 DUP3 ADD SWAP1 POP DUP2 DUP2 SUB PUSH1 0x0 DUP4 ADD MSTORE PUSH2 0x67D DUP2 DUP6 PUSH2 0x62A JUMP JUMPDEST SWAP1 POP PUSH2 0x68C PUSH1 0x20 DUP4 ADD DUP5 PUSH2 0x5BA JUMP JUMPDEST SWAP4 SWAP3 POP POP POP JUMP JUMPDEST PUSH1 0x0 PUSH1 0x20 DUP3 DUP5 SUB SLT ISZERO PUSH2 0x6A9 JUMPI PUSH2 0x6A8 PUSH2 0x3D8 JUMP JUMPDEST JUMPDEST PUSH1 0x0 PUSH2 0x6B7 DUP5 DUP3 DUP6 ADD PUSH2 0x549 JUMP JUMPDEST SWAP2 POP POP SWAP3 SWAP2 POP POP JUMP JUMPDEST PUSH1 0x0 PUSH1 0x20 DUP3 DUP5 SUB SLT ISZERO PUSH2 0x6D6 JUMPI PUSH2 0x6D5 PUSH2 0x3D8 JUMP JUMPDEST JUMPDEST PUSH1 0x0 DUP3 ADD CALLDATALOAD PUSH8 0xFFFFFFFFFFFFFFFF DUP2 GT ISZERO PUSH2 0x6F4 JUMPI PUSH2 0x6F3 PUSH2 0x3DD JUMP JUMPDEST JUMPDEST PUSH2 0x700 DUP5 DUP3 DUP6 ADD PUSH2 0x4FA JUMP JUMPDEST SWAP2 POP POP SWAP3 SWAP2 POP POP JUMP JUMPDEST PUSH32 0x4E487B7100000000000000000000000000000000000000000000000000000000 PUSH1 0x0 MSTORE PUSH1 0x22 PUSH1 0x4 MSTORE PUSH1 0x24 PUSH1 0x0 REVERT JUMPDEST PUSH1 0x0 PUSH1 0x2 DUP3 DIV SWAP1 POP PUSH1 0x1 DUP3 AND DUP1 PUSH2 0x750 JUMPI PUSH1 0x7F DUP3 AND SWAP2 POP JUMPDEST PUSH1 0x20 DUP3 LT DUP2 SUB PUSH2 0x763 JUMPI PUSH2 0x762 PUSH2 0x709 JUMP JUMPDEST JUMPDEST POP SWAP2 SWAP1 POP JUMP JUMPDEST PUSH1 0x0 DUP2 SWAP1 POP DUP2 PUSH1 0x0 MSTORE PUSH1 0x20 PUSH1 0x0 KECCAK256 SWAP1 POP SWAP2 SWAP1 POP JUMP JUMPDEST PUSH1 0x0 PUSH1 0x20 PUSH1 0x1F DUP4 ADD DIV SWAP1 POP SWAP2 SWAP1 POP JUMP JUMPDEST PUSH1 0x0 DUP3 DUP3 SHL SWAP1 POP SWAP3 SWAP2 POP POP JUMP JUMPDEST PUSH1 0x0 PUSH1 0x8 DUP4 MUL PUSH2 0x7CB PUSH32 0xFFFFFFFFFFFFFFFFFFFFFFFFFFFFFFFFFFFFFFFFFFFFFFFFFFFFFFFFFFFFFFFF DUP3 PUSH2 0x78E JUMP JUMPDEST PUSH2 0x7D5 DUP7 DUP4 PUSH2 0x78E JUMP JUMPDEST SWAP6 POP DUP1 NOT DUP5 AND SWAP4 POP DUP1 DUP7 AND DUP5 OR SWAP3 POP POP POP SWAP4 SWAP3 POP POP POP JUMP JUMPDEST PUSH1 0x0 DUP2 SWAP1 POP SWAP2 SWAP1 POP JUMP JUMPDEST PUSH1 0x0 PUSH2 0x812 PUSH2 0x80D PUSH2 0x808 DUP5 PUSH2 0x528 JUMP JUMPDEST PUSH2 0x7ED JUMP JUMPDEST PUSH2 0x528 JUMP JUMPDEST SWAP1 POP SWAP2 SWAP1 POP JUMP JUMPDEST PUSH1 0x0 DUP2 SWAP1 POP SWAP2 SWAP1 POP JUMP JUMPDEST PUSH2 0x82C DUP4 PUSH2 0x7F7 JUMP JUMPDEST PUSH2 0x840 PUSH2 0x838 DUP3 PUSH2 0x819 JUMP JUMPDEST DUP5 DUP5 SLOAD PUSH2 0x79B JUMP JUMPDEST DUP3 SSTORE POP POP POP POP JUMP JUMPDEST PUSH1 0x0 SWAP1 JUMP JUMPDEST PUSH2 0x855 PUSH2 0x848 JUMP JUMPDEST PUSH2 0x860 DUP2 DUP5 DUP5 PUSH2 0x823 JUMP JUMPDEST POP POP POP JUMP JUMPDEST JUMPDEST DUP2 DUP2 LT ISZERO PUSH2 0x884 JUMPI PUSH2 0x879 PUSH1 0x0 DUP3 PUSH2 0x84D JUMP JUMPDEST PUSH1 0x1 DUP2 ADD SWAP1 POP PUSH2 0x866 JUMP JUMPDEST POP POP JUMP JUMPDEST PUSH1 0x1F DUP3 GT ISZERO PUSH2 0x8C9 JUMPI PUSH2 0x89A DUP2 PUSH2 0x769 JUMP JUMPDEST PUSH2 0x8A3 DUP5 PUSH2 0x77E JUMP JUMPDEST DUP2 ADD PUSH1 0x20 DUP6 LT ISZERO PUSH2 0x8B2 JUMPI DUP2 SWAP1 POP JUMPDEST PUSH2 0x8C6 PUSH2 0x8BE DUP6 PUSH2 0x77E JUMP JUMPDEST DUP4 ADD DUP3 PUSH2 0x865 JUMP JUMPDEST POP POP JUMPDEST POP POP POP JUMP JUMPDEST PUSH1 0x0 DUP3 DUP3 SHR SWAP1 POP SWAP3 SWAP2 POP POP JUMP JUMPDEST PUSH1 0x0 PUSH2 0x8EC PUSH1 0x0 NOT DUP5 PUSH1 0x8 MUL PUSH2 0x8CE JUMP JUMPDEST NOT DUP1 DUP4 AND SWAP2 POP POP SWAP3 SWAP2 POP POP JUMP JUMPDEST PUSH1 0x0 PUSH2 0x905 DUP4 DUP4 PUSH2 0x8DB JUMP JUMPDEST SWAP2 POP DUP3 PUSH1 0x2 MUL DUP3 OR SWAP1 POP SWAP3 SWAP2 POP POP JUMP JUMPDEST PUSH2 0x91E DUP3 PUSH2 0x5E4 JUMP JUMPDEST PUSH8 0xFFFFFFFFFFFFFFFF DUP2 GT ISZERO PUSH2 0x937 JUMPI PUSH2 0x936 PUSH2 0x3FD JUMP JUMPDEST JUMPDEST PUSH2 0x941 DUP3 SLOAD PUSH2 0x738 JUMP JUMPDEST PUSH2 0x94C DUP3 DUP3 DUP6 PUSH2 0x888 JUMP JUMPDEST PUSH1 0x0 PUSH1 0x20 SWAP1 POP PUSH1 0x1F DUP4 GT PUSH1 0x1 DUP2 EQ PUSH2 0x97F JUMPI PUSH1 0x0 DUP5 ISZERO PUSH2 0x96D JUMPI DUP3 DUP8 ADD MLOAD SWAP1 POP JUMPDEST PUSH2 0x977 DUP6 DUP3 PUSH2 0x8F9 JUMP JUMPDEST DUP7 SSTORE POP PUSH2 0x9DF JUMP JUMPDEST PUSH1 0x1F NOT DUP5 AND PUSH2 0x98D DUP7 PUSH2 0x769 JUMP JUMPDEST PUSH1 0x0 JUMPDEST DUP3 DUP2 LT ISZERO PUSH2 0x9B5 JUMPI DUP5 DUP10 ADD MLOAD DUP3 SSTORE PUSH1 0x1 DUP3 ADD SWAP2 POP PUSH1 0x20 DUP6 ADD SWAP5 POP PUSH1 0x20 DUP2 ADD SWAP1 POP PUSH2 0x990 JUMP JUMPDEST DUP7 DUP4 LT ISZERO PUSH2 0x9D2 JUMPI DUP5 DUP10 ADD MLOAD PUSH2 0x9CE PUSH1 0x1F DUP10 AND DUP3 PUSH2 0x8DB JUMP JUMPDEST DUP4 SSTORE POP JUMPDEST PUSH1 0x1 PUSH1 0x2 DUP9 MUL ADD DUP9 SSTORE POP POP POP JUMPDEST POP POP POP POP POP POP JUMP JUMPDEST PUSH1 0x0 DUP2 SWAP1 POP SWAP3 SWAP2 POP POP JUMP JUMPDEST PUSH1 0x0 PUSH2 0x9FD DUP3 PUSH2 0x5E4 JUMP JUMPDEST PUSH2 0xA07 DUP2 DUP6 PUSH2 0x9E7 JUMP JUMPDEST SWAP4 POP PUSH2 0xA17 DUP2 DUP6 PUSH1 0x20 DUP7 ADD PUSH2 0x600 JUMP JUMPDEST DUP1 DUP5 ADD SWAP2 POP POP SWAP3 SWAP2 POP POP JUMP JUMPDEST PUSH1 0x0 PUSH2 0xA2F DUP3 DUP5 PUSH2 0x9F2 JUMP JUMPDEST SWAP2 POP DUP2 SWAP1 POP SWAP3 SWAP2 POP POP JUMP INVALID LOG2 PUSH5 0x6970667358 0x22 SLT KECCAK256 0x2B PUSH22 0x34C675C4BCE058E6869528E429D78D554C2EEEB89B0 PUSH20 0x74811515706ABC64736F6C63430008120033A264 PUSH10 0x70667358221220C4A978 0xF8 0xBB NOT 0xED 0xDC SWAP14 SWAP6 0xD CHAINID SAR 0x24 PUSH29 0x33E127BBF0DD5F31B8DBA54D0B2269A3964736F6C6343000812003300 "
		},
		"gasEstimates": {
			"creation": {
				"codeDepositCost": "1020400",
				"executionCost": "1061",
				"totalCost": "1021461"
			},
			"external": {
				"_storage(uint256)": "infinite",
				"createStorage()": "infinite",
				"get(uint256)": "infinite",
				"store(uint256,uint256)": "infinite"
			}
		},
		"methodIdentifiers": {
			"_storage(uint256)": "9eaa4239",
			"createStorage()": "fb971d01",
			"get(uint256)": "9507d39a",
			"store(uint256,uint256)": "6ed28ed0"
		}
	},
	"abi": [
		{
			"inputs": [
				{
					"internalType": "uint256",
					"name": "",
					"type": "uint256"
				}
			],
			"name": "_storage",
			"outputs": [
				{
					"internalType": "contract SimpleStorage",
					"name": "",
					"type": "address"
				}
			],
			"stateMutability": "view",
			"type": "function"
		},
		{
			"inputs": [],
			"name": "createStorage",
			"outputs": [],
			"stateMutability": "nonpayable",
			"type": "function"
		},
		{
			"inputs": [
				{
					"internalType": "uint256",
					"name": "index",
					"type": "uint256"
				}
			],
			"name": "get",
			"outputs": [
				{
					"internalType": "uint256",
					"name": "",
					"type": "uint256"
				}
			],
			"stateMutability": "view",
			"type": "function"
		},
		{
			"inputs": [
				{
					"internalType": "uint256",
					"name": "index",
					"type": "uint256"
				},
				{
					"internalType": "uint256",
					"name": "number",
					"type": "uint256"
				}
			],
			"name": "store",
			"outputs": [],
			"stateMutability": "nonpayable",
			"type": "function"
		}
	]
}